{
	"contracts/FundMe02.sol": {
		"FundMe": {
			"abi": [
				{
					"inputs": [
						{
							"internalType": "address",
							"name": "funder",
							"type": "address"
						}
					],
					"name": "addressToAmountFunded",
					"outputs": [
						{
							"internalType": "uint256",
							"name": "amountFunded",
							"type": "uint256"
						}
					],
					"stateMutability": "view",
					"type": "function"
				},
				{
					"inputs": [],
					"name": "fund",
					"outputs": [],
					"stateMutability": "payable",
					"type": "function"
				},
				{
					"inputs": [
						{
							"internalType": "uint256",
							"name": "",
							"type": "uint256"
						}
					],
					"name": "funders",
					"outputs": [
						{
							"internalType": "address",
							"name": "",
							"type": "address"
						}
					],
					"stateMutability": "view",
					"type": "function"
				},
				{
					"inputs": [],
					"name": "minUSD",
					"outputs": [
						{
							"internalType": "uint256",
							"name": "",
							"type": "uint256"
						}
					],
					"stateMutability": "view",
					"type": "function"
				},
				{
					"inputs": [],
					"name": "myValue",
					"outputs": [
						{
							"internalType": "uint256",
							"name": "",
							"type": "uint256"
						}
					],
					"stateMutability": "view",
					"type": "function"
				},
				{
					"inputs": [],
					"name": "withdraw",
					"outputs": [],
					"stateMutability": "nonpayable",
					"type": "function"
				}
			],
			"devdoc": {
				"kind": "dev",
				"methods": {},
				"version": 1
			},
			"evm": {
				"assembly": "    /* \"contracts/FundMe02.sol\":112:1733  contract FundMe {... */\n  mstore(0x40, 0x80)\n    /* \"contracts/FundMe02.sol\":348:350  10 */\n  0x0a\n    /* \"contracts/FundMe02.sol\":323:350  uint256 public myValue = 10 */\n  0x00\n  sstore\n    /* \"contracts/FundMe02.sol\":380:394  5 * (10 ** 18) */\n  0x4563918244f40000\n    /* \"contracts/FundMe02.sol\":356:394  uint256 public minUSD = 5 * (10 ** 18) */\n  0x01\n  sstore\n    /* \"contracts/FundMe02.sol\":112:1733  contract FundMe {... */\n  callvalue\n  dup1\n  iszero\n  tag_1\n  jumpi\n  0x00\n  dup1\n  revert\ntag_1:\n  pop\n  dataSize(sub_0)\n  dup1\n  dataOffset(sub_0)\n  0x00\n  codecopy\n  0x00\n  return\nstop\n\nsub_0: assembly {\n        /* \"contracts/FundMe02.sol\":112:1733  contract FundMe {... */\n      mstore(0x40, 0x80)\n      jumpi(tag_1, lt(calldatasize, 0x04))\n      shr(0xe0, calldataload(0x00))\n      dup1\n      0x3ccfd60b\n      eq\n      tag_2\n      jumpi\n      dup1\n      0x3e47d6f3\n      eq\n      tag_3\n      jumpi\n      dup1\n      0x47f1aae7\n      eq\n      tag_4\n      jumpi\n      dup1\n      0xb60d4288\n      eq\n      tag_5\n      jumpi\n      dup1\n      0xdc0d3dff\n      eq\n      tag_6\n      jumpi\n      dup1\n      0xdc992aa0\n      eq\n      tag_7\n      jumpi\n    tag_1:\n      0x00\n      dup1\n      revert\n        /* \"contracts/FundMe02.sol\":1215:1727  function withdraw() public {... */\n    tag_2:\n      callvalue\n      dup1\n      iszero\n      tag_8\n      jumpi\n      0x00\n      dup1\n      revert\n    tag_8:\n      pop\n      tag_9\n      tag_10\n      jump\t// in\n    tag_9:\n      stop\n        /* \"contracts/FundMe02.sol\":431:508  mapping(address funder => uint256 amountFunded ) public addressToAmountFunded */\n    tag_3:\n      callvalue\n      dup1\n      iszero\n      tag_11\n      jumpi\n      0x00\n      dup1\n      revert\n    tag_11:\n      pop\n      tag_12\n      0x04\n      dup1\n      calldatasize\n      sub\n      dup2\n      add\n      swap1\n      tag_13\n      swap2\n      swap1\n      tag_14\n      jump\t// in\n    tag_13:\n      tag_15\n      jump\t// in\n    tag_12:\n      mload(0x40)\n      tag_16\n      swap2\n      swap1\n      tag_17\n      jump\t// in\n    tag_16:\n      mload(0x40)\n      dup1\n      swap2\n      sub\n      swap1\n      return\n        /* \"contracts/FundMe02.sol\":323:350  uint256 public myValue = 10 */\n    tag_4:\n      callvalue\n      dup1\n      iszero\n      tag_18\n      jumpi\n      0x00\n      dup1\n      revert\n    tag_18:\n      pop\n      tag_19\n      tag_20\n      jump\t// in\n    tag_19:\n      mload(0x40)\n      tag_21\n      swap2\n      swap1\n      tag_17\n      jump\t// in\n    tag_21:\n      mload(0x40)\n      dup1\n      swap2\n      sub\n      swap1\n      return\n        /* \"contracts/FundMe02.sol\":513:1161  function fund() public payable {... */\n    tag_5:\n      tag_22\n      tag_23\n      jump\t// in\n    tag_22:\n      stop\n        /* \"contracts/FundMe02.sol\":401:425  address[] public funders */\n    tag_6:\n      callvalue\n      dup1\n      iszero\n      tag_24\n      jumpi\n      0x00\n      dup1\n      revert\n    tag_24:\n      pop\n      tag_25\n      0x04\n      dup1\n      calldatasize\n      sub\n      dup2\n      add\n      swap1\n      tag_26\n      swap2\n      swap1\n      tag_27\n      jump\t// in\n    tag_26:\n      tag_28\n      jump\t// in\n    tag_25:\n      mload(0x40)\n      tag_29\n      swap2\n      swap1\n      tag_30\n      jump\t// in\n    tag_29:\n      mload(0x40)\n      dup1\n      swap2\n      sub\n      swap1\n      return\n        /* \"contracts/FundMe02.sol\":356:394  uint256 public minUSD = 5 * (10 ** 18) */\n    tag_7:\n      callvalue\n      dup1\n      iszero\n      tag_31\n      jumpi\n      0x00\n      dup1\n      revert\n    tag_31:\n      pop\n      tag_32\n      tag_33\n      jump\t// in\n    tag_32:\n      mload(0x40)\n      tag_34\n      swap2\n      swap1\n      tag_17\n      jump\t// in\n    tag_34:\n      mload(0x40)\n      dup1\n      swap2\n      sub\n      swap1\n      return\n        /* \"contracts/FundMe02.sol\":1215:1727  function withdraw() public {... */\n    tag_10:\n        /* \"contracts/FundMe02.sol\":1383:1402  uint256 funderIndex */\n      0x00\n        /* \"contracts/FundMe02.sol\":1330:1563  for (/* starting index, ending index, step amount */ uint256 funderIndex = 0; funderIndex < funders.length; funderIndex++){... */\n    tag_36:\n        /* \"contracts/FundMe02.sol\":1422:1429  funders */\n      0x02\n        /* \"contracts/FundMe02.sol\":1422:1436  funders.length */\n      dup1\n      sload\n      swap1\n      pop\n        /* \"contracts/FundMe02.sol\":1408:1419  funderIndex */\n      dup2\n        /* \"contracts/FundMe02.sol\":1408:1436  funderIndex < funders.length */\n      lt\n        /* \"contracts/FundMe02.sol\":1330:1563  for (/* starting index, ending index, step amount */ uint256 funderIndex = 0; funderIndex < funders.length; funderIndex++){... */\n      iszero\n      tag_37\n      jumpi\n        /* \"contracts/FundMe02.sol\":1462:1483  address funderAddress */\n      0x00\n        /* \"contracts/FundMe02.sol\":1486:1493  funders */\n      0x02\n        /* \"contracts/FundMe02.sol\":1494:1505  funderIndex */\n      dup3\n        /* \"contracts/FundMe02.sol\":1486:1506  funders[funderIndex] */\n      dup2\n      sload\n      dup2\n      lt\n      tag_39\n      jumpi\n      tag_40\n      tag_41\n      jump\t// in\n    tag_40:\n    tag_39:\n      swap1\n      0x00\n      mstore\n      keccak256(0x00, 0x20)\n      add\n      0x00\n      swap1\n      sload\n      swap1\n      0x0100\n      exp\n      swap1\n      div\n      0xffffffffffffffffffffffffffffffffffffffff\n      and\n        /* \"contracts/FundMe02.sol\":1462:1506  address funderAddress = funders[funderIndex] */\n      swap1\n      pop\n        /* \"contracts/FundMe02.sol\":1555:1556  0 */\n      0x00\n        /* \"contracts/FundMe02.sol\":1516:1537  addressToAmountFunded */\n      0x03\n        /* \"contracts/FundMe02.sol\":1516:1552  addressToAmountFunded[funderAddress] */\n      0x00\n        /* \"contracts/FundMe02.sol\":1538:1551  funderAddress */\n      dup4\n        /* \"contracts/FundMe02.sol\":1516:1552  addressToAmountFunded[funderAddress] */\n      0xffffffffffffffffffffffffffffffffffffffff\n      and\n      0xffffffffffffffffffffffffffffffffffffffff\n      and\n      dup2\n      mstore\n      0x20\n      add\n      swap1\n      dup2\n      mstore\n      0x20\n      add\n      0x00\n      keccak256\n        /* \"contracts/FundMe02.sol\":1516:1556  addressToAmountFunded[funderAddress] = 0 */\n      dup2\n      swap1\n      sstore\n      pop\n        /* \"contracts/FundMe02.sol\":1452:1563  {... */\n      pop\n        /* \"contracts/FundMe02.sol\":1438:1451  funderIndex++ */\n      dup1\n      dup1\n      0x01\n      add\n      swap2\n      pop\n      pop\n        /* \"contracts/FundMe02.sol\":1330:1563  for (/* starting index, ending index, step amount */ uint256 funderIndex = 0; funderIndex < funders.length; funderIndex++){... */\n      jump(tag_36)\n    tag_37:\n      pop\n        /* \"contracts/FundMe02.sol\":1644:1645  0 */\n      0x00\n        /* \"contracts/FundMe02.sol\":1630:1646  new address[](0) */\n      0xffffffffffffffff\n      dup2\n      gt\n      iszero\n      tag_43\n      jumpi\n      tag_44\n      tag_45\n      jump\t// in\n    tag_44:\n    tag_43:\n      mload(0x40)\n      swap1\n      dup1\n      dup3\n      mstore\n      dup1\n      0x20\n      mul\n      0x20\n      add\n      dup3\n      add\n      0x40\n      mstore\n      dup1\n      iszero\n      tag_46\n      jumpi\n      dup2\n      0x20\n      add\n      0x20\n      dup3\n      mul\n      dup1\n      calldatasize\n      dup4\n      calldatacopy\n      dup1\n      dup3\n      add\n      swap2\n      pop\n      pop\n      swap1\n      pop\n    tag_46:\n      pop\n        /* \"contracts/FundMe02.sol\":1620:1627  funders */\n      0x02\n        /* \"contracts/FundMe02.sol\":1620:1646  funders = new address[](0) */\n      swap1\n      dup1\n      mload\n      swap1\n      0x20\n      add\n      swap1\n      tag_47\n      swap3\n      swap2\n      swap1\n      tag_48\n      jump\t// in\n    tag_47:\n      pop\n        /* \"contracts/FundMe02.sol\":1215:1727  function withdraw() public {... */\n      jump\t// out\n        /* \"contracts/FundMe02.sol\":431:508  mapping(address funder => uint256 amountFunded ) public addressToAmountFunded */\n    tag_15:\n      mstore(0x20, 0x03)\n      dup1\n      0x00\n      mstore\n      keccak256(0x00, 0x40)\n      0x00\n      swap2\n      pop\n      swap1\n      pop\n      sload\n      dup2\n      jump\t// out\n        /* \"contracts/FundMe02.sol\":323:350  uint256 public myValue = 10 */\n    tag_20:\n      sload(0x00)\n      dup2\n      jump\t// out\n        /* \"contracts/FundMe02.sol\":513:1161  function fund() public payable {... */\n    tag_23:\n        /* \"contracts/FundMe02.sol\":673:679  minUSD */\n      sload(0x01)\n        /* \"contracts/FundMe02.sol\":640:669  msg.value.getConvertionRate() */\n      tag_50\n        /* \"contracts/FundMe02.sol\":640:649  msg.value */\n      callvalue\n        /* \"contracts/FundMe02.sol\":640:667  msg.value.getConvertionRate */\n      tag_51\n        /* \"contracts/FundMe02.sol\":640:669  msg.value.getConvertionRate() */\n      jump\t// in\n    tag_50:\n        /* \"contracts/FundMe02.sol\":640:679  msg.value.getConvertionRate() >= minUSD */\n      lt\n      iszero\n        /* \"contracts/FundMe02.sol\":632:706  require(msg.value.getConvertionRate() >= minUSD, \"didn't send enough ETH\") */\n      tag_52\n      jumpi\n      mload(0x40)\n      0x08c379a000000000000000000000000000000000000000000000000000000000\n      dup2\n      mstore\n      0x04\n      add\n      tag_53\n      swap1\n      tag_54\n      jump\t// in\n    tag_53:\n      mload(0x40)\n      dup1\n      swap2\n      sub\n      swap1\n      revert\n    tag_52:\n        /* \"contracts/FundMe02.sol\":951:958  funders */\n      0x02\n        /* \"contracts/FundMe02.sol\":964:974  msg.sender */\n      caller\n        /* \"contracts/FundMe02.sol\":951:975  funders.push(msg.sender) */\n      swap1\n      dup1\n      0x01\n      dup2\n      sload\n      add\n      dup1\n      dup3\n      sstore\n      dup1\n      swap2\n      pop\n      pop\n      0x01\n      swap1\n      sub\n      swap1\n      0x00\n      mstore\n      keccak256(0x00, 0x20)\n      add\n      0x00\n      swap1\n      swap2\n      swap1\n      swap2\n      swap1\n      swap2\n      0x0100\n      exp\n      dup2\n      sload\n      dup2\n      0xffffffffffffffffffffffffffffffffffffffff\n      mul\n      not\n      and\n      swap1\n      dup4\n      0xffffffffffffffffffffffffffffffffffffffff\n      and\n      mul\n      or\n      swap1\n      sstore\n      pop\n        /* \"contracts/FundMe02.sol\":1109:1118  msg.value */\n      callvalue\n        /* \"contracts/FundMe02.sol\":1072:1093  addressToAmountFunded */\n      0x03\n        /* \"contracts/FundMe02.sol\":1072:1105  addressToAmountFunded[msg.sender] */\n      0x00\n        /* \"contracts/FundMe02.sol\":1094:1104  msg.sender */\n      caller\n        /* \"contracts/FundMe02.sol\":1072:1105  addressToAmountFunded[msg.sender] */\n      0xffffffffffffffffffffffffffffffffffffffff\n      and\n      0xffffffffffffffffffffffffffffffffffffffff\n      and\n      dup2\n      mstore\n      0x20\n      add\n      swap1\n      dup2\n      mstore\n      0x20\n      add\n      0x00\n      keccak256\n      0x00\n        /* \"contracts/FundMe02.sol\":1072:1118  addressToAmountFunded[msg.sender] += msg.value */\n      dup3\n      dup3\n      sload\n      tag_56\n      swap2\n      swap1\n      tag_57\n      jump\t// in\n    tag_56:\n      swap3\n      pop\n      pop\n      dup2\n      swap1\n      sstore\n      pop\n        /* \"contracts/FundMe02.sol\":513:1161  function fund() public payable {... */\n      jump\t// out\n        /* \"contracts/FundMe02.sol\":401:425  address[] public funders */\n    tag_28:\n      0x02\n      dup2\n      dup2\n      sload\n      dup2\n      lt\n      tag_58\n      jumpi\n      0x00\n      dup1\n      revert\n    tag_58:\n      swap1\n      0x00\n      mstore\n      keccak256(0x00, 0x20)\n      add\n      0x00\n      swap2\n      pop\n      sload\n      swap1\n      0x0100\n      exp\n      swap1\n      div\n      0xffffffffffffffffffffffffffffffffffffffff\n      and\n      dup2\n      jump\t// out\n        /* \"contracts/FundMe02.sol\":356:394  uint256 public minUSD = 5 * (10 ** 18) */\n    tag_33:\n      sload(0x01)\n      dup2\n      jump\t// out\n        /* \"contracts/PriceConverter.sol\":566:788  function getConvertionRate(uint256 _ethAmount) internal view returns(uint256) {... */\n    tag_51:\n        /* \"contracts/PriceConverter.sol\":635:642  uint256 */\n      0x00\n        /* \"contracts/PriceConverter.sol\":654:670  uint256 ethPrice */\n      dup1\n        /* \"contracts/PriceConverter.sol\":673:683  getPrice() */\n      tag_61\n        /* \"contracts/PriceConverter.sol\":673:681  getPrice */\n      tag_62\n        /* \"contracts/PriceConverter.sol\":673:683  getPrice() */\n      jump\t// in\n    tag_61:\n        /* \"contracts/PriceConverter.sol\":654:683  uint256 ethPrice = getPrice() */\n      swap1\n      pop\n        /* \"contracts/PriceConverter.sol\":693:715  uint256 ethAmountInUsd */\n      0x00\n        /* \"contracts/PriceConverter.sol\":744:748  1e18 */\n      0x0de0b6b3a7640000\n        /* \"contracts/PriceConverter.sol\":732:740  ethPrice */\n      dup3\n        /* \"contracts/PriceConverter.sol\":719:729  _ethAmount */\n      dup6\n        /* \"contracts/PriceConverter.sol\":719:740  _ethAmount * ethPrice */\n      tag_63\n      swap2\n      swap1\n      tag_64\n      jump\t// in\n    tag_63:\n        /* \"contracts/PriceConverter.sol\":718:748  (_ethAmount * ethPrice) / 1e18 */\n      tag_65\n      swap2\n      swap1\n      tag_66\n      jump\t// in\n    tag_65:\n        /* \"contracts/PriceConverter.sol\":693:748  uint256 ethAmountInUsd = (_ethAmount * ethPrice) / 1e18 */\n      swap1\n      pop\n        /* \"contracts/PriceConverter.sol\":766:780  ethAmountInUsd */\n      dup1\n        /* \"contracts/PriceConverter.sol\":759:780  return ethAmountInUsd */\n      swap3\n      pop\n      pop\n      pop\n        /* \"contracts/PriceConverter.sol\":566:788  function getConvertionRate(uint256 _ethAmount) internal view returns(uint256) {... */\n      swap2\n      swap1\n      pop\n      jump\t// out\n        /* \"contracts/PriceConverter.sol\":293:560  function getPrice() internal view returns (uint256) {... */\n    tag_62:\n        /* \"contracts/PriceConverter.sol\":336:343  uint256 */\n      0x00\n        /* \"contracts/PriceConverter.sol\":355:386  AggregatorV3Interface pricefeed */\n      dup1\n        /* \"contracts/PriceConverter.sol\":411:453  0x694AA1769357215DE4FAC081bf1f309aDC325306 */\n      0x694aa1769357215de4fac081bf1f309adc325306\n        /* \"contracts/PriceConverter.sol\":355:454  AggregatorV3Interface pricefeed = AggregatorV3Interface(0x694AA1769357215DE4FAC081bf1f309aDC325306) */\n      swap1\n      pop\n        /* \"contracts/PriceConverter.sol\":467:477  int answer */\n      0x00\n        /* \"contracts/PriceConverter.sol\":486:495  pricefeed */\n      dup2\n        /* \"contracts/PriceConverter.sol\":486:511  pricefeed.latestRoundData */\n      0xffffffffffffffffffffffffffffffffffffffff\n      and\n      0xfeaf968c\n        /* \"contracts/PriceConverter.sol\":486:513  pricefeed.latestRoundData() */\n      mload(0x40)\n      dup2\n      0xffffffff\n      and\n      0xe0\n      shl\n      dup2\n      mstore\n      0x04\n      add\n      0xa0\n      mload(0x40)\n      dup1\n      dup4\n      sub\n      dup2\n      dup7\n      gas\n      staticcall\n      iszero\n      dup1\n      iszero\n      tag_69\n      jumpi\n      returndatasize\n      0x00\n      dup1\n      returndatacopy\n      revert(0x00, returndatasize)\n    tag_69:\n      pop\n      pop\n      pop\n      pop\n      mload(0x40)\n      returndatasize\n      not(0x1f)\n      0x1f\n      dup3\n      add\n      and\n      dup3\n      add\n      dup1\n      0x40\n      mstore\n      pop\n      dup2\n      add\n      swap1\n      tag_70\n      swap2\n      swap1\n      tag_71\n      jump\t// in\n    tag_70:\n        /* \"contracts/PriceConverter.sol\":464:513  (, int answer, , ,) = pricefeed.latestRoundData() */\n      pop\n      pop\n      pop\n      swap2\n      pop\n      pop\n        /* \"contracts/PriceConverter.sol\":548:552  1e10 */\n      0x02540be400\n        /* \"contracts/PriceConverter.sol\":539:545  answer */\n      dup2\n        /* \"contracts/PriceConverter.sol\":539:552  answer * 1e10 */\n      tag_72\n      swap2\n      swap1\n      tag_73\n      jump\t// in\n    tag_72:\n        /* \"contracts/PriceConverter.sol\":524:553  return uint256(answer * 1e10) */\n      swap3\n      pop\n      pop\n      pop\n        /* \"contracts/PriceConverter.sol\":293:560  function getPrice() internal view returns (uint256) {... */\n      swap1\n      jump\t// out\n    tag_48:\n      dup3\n      dup1\n      sload\n      dup3\n      dup3\n      sstore\n      swap1\n      0x00\n      mstore\n      keccak256(0x00, 0x20)\n      swap1\n      dup2\n      add\n      swap3\n      dup3\n      iszero\n      tag_74\n      jumpi\n      swap2\n      0x20\n      mul\n      dup3\n      add\n    tag_75:\n      dup3\n      dup2\n      gt\n      iszero\n      tag_76\n      jumpi\n      dup3\n      mload\n      dup3\n      exp(0x0100, 0x00)\n      dup2\n      sload\n      dup2\n      0xffffffffffffffffffffffffffffffffffffffff\n      mul\n      not\n      and\n      swap1\n      dup4\n      0xffffffffffffffffffffffffffffffffffffffff\n      and\n      mul\n      or\n      swap1\n      sstore\n      pop\n      swap2\n      0x20\n      add\n      swap2\n      swap1\n      0x01\n      add\n      swap1\n      jump(tag_75)\n    tag_76:\n    tag_74:\n      pop\n      swap1\n      pop\n      tag_77\n      swap2\n      swap1\n      tag_78\n      jump\t// in\n    tag_77:\n      pop\n      swap1\n      jump\t// out\n    tag_78:\n    tag_79:\n      dup1\n      dup3\n      gt\n      iszero\n      tag_80\n      jumpi\n      0x00\n      dup2\n      0x00\n      swap1\n      sstore\n      pop\n      0x01\n      add\n      jump(tag_79)\n    tag_80:\n      pop\n      swap1\n      jump\t// out\n        /* \"#utility.yul\":88:205   */\n    tag_82:\n        /* \"#utility.yul\":197:198   */\n      0x00\n        /* \"#utility.yul\":194:195   */\n      dup1\n        /* \"#utility.yul\":187:199   */\n      revert\n        /* \"#utility.yul\":334:460   */\n    tag_84:\n        /* \"#utility.yul\":371:378   */\n      0x00\n        /* \"#utility.yul\":411:453   */\n      0xffffffffffffffffffffffffffffffffffffffff\n        /* \"#utility.yul\":404:409   */\n      dup3\n        /* \"#utility.yul\":400:454   */\n      and\n        /* \"#utility.yul\":389:454   */\n      swap1\n      pop\n        /* \"#utility.yul\":334:460   */\n      swap2\n      swap1\n      pop\n      jump\t// out\n        /* \"#utility.yul\":466:562   */\n    tag_85:\n        /* \"#utility.yul\":503:510   */\n      0x00\n        /* \"#utility.yul\":532:556   */\n      tag_111\n        /* \"#utility.yul\":550:555   */\n      dup3\n        /* \"#utility.yul\":532:556   */\n      tag_84\n      jump\t// in\n    tag_111:\n        /* \"#utility.yul\":521:556   */\n      swap1\n      pop\n        /* \"#utility.yul\":466:562   */\n      swap2\n      swap1\n      pop\n      jump\t// out\n        /* \"#utility.yul\":568:690   */\n    tag_86:\n        /* \"#utility.yul\":641:665   */\n      tag_113\n        /* \"#utility.yul\":659:664   */\n      dup2\n        /* \"#utility.yul\":641:665   */\n      tag_85\n      jump\t// in\n    tag_113:\n        /* \"#utility.yul\":634:639   */\n      dup2\n        /* \"#utility.yul\":631:666   */\n      eq\n        /* \"#utility.yul\":621:684   */\n      tag_114\n      jumpi\n        /* \"#utility.yul\":680:681   */\n      0x00\n        /* \"#utility.yul\":677:678   */\n      dup1\n        /* \"#utility.yul\":670:682   */\n      revert\n        /* \"#utility.yul\":621:684   */\n    tag_114:\n        /* \"#utility.yul\":568:690   */\n      pop\n      jump\t// out\n        /* \"#utility.yul\":696:835   */\n    tag_87:\n        /* \"#utility.yul\":742:747   */\n      0x00\n        /* \"#utility.yul\":780:786   */\n      dup2\n        /* \"#utility.yul\":767:787   */\n      calldataload\n        /* \"#utility.yul\":758:787   */\n      swap1\n      pop\n        /* \"#utility.yul\":796:829   */\n      tag_116\n        /* \"#utility.yul\":823:828   */\n      dup2\n        /* \"#utility.yul\":796:829   */\n      tag_86\n      jump\t// in\n    tag_116:\n        /* \"#utility.yul\":696:835   */\n      swap3\n      swap2\n      pop\n      pop\n      jump\t// out\n        /* \"#utility.yul\":841:1170   */\n    tag_14:\n        /* \"#utility.yul\":900:906   */\n      0x00\n        /* \"#utility.yul\":949:951   */\n      0x20\n        /* \"#utility.yul\":937:946   */\n      dup3\n        /* \"#utility.yul\":928:935   */\n      dup5\n        /* \"#utility.yul\":924:947   */\n      sub\n        /* \"#utility.yul\":920:952   */\n      slt\n        /* \"#utility.yul\":917:1036   */\n      iszero\n      tag_118\n      jumpi\n        /* \"#utility.yul\":955:1034   */\n      tag_119\n      tag_82\n      jump\t// in\n    tag_119:\n        /* \"#utility.yul\":917:1036   */\n    tag_118:\n        /* \"#utility.yul\":1075:1076   */\n      0x00\n        /* \"#utility.yul\":1100:1153   */\n      tag_120\n        /* \"#utility.yul\":1145:1152   */\n      dup5\n        /* \"#utility.yul\":1136:1142   */\n      dup3\n        /* \"#utility.yul\":1125:1134   */\n      dup6\n        /* \"#utility.yul\":1121:1143   */\n      add\n        /* \"#utility.yul\":1100:1153   */\n      tag_87\n      jump\t// in\n    tag_120:\n        /* \"#utility.yul\":1090:1153   */\n      swap2\n      pop\n        /* \"#utility.yul\":1046:1163   */\n      pop\n        /* \"#utility.yul\":841:1170   */\n      swap3\n      swap2\n      pop\n      pop\n      jump\t// out\n        /* \"#utility.yul\":1176:1253   */\n    tag_88:\n        /* \"#utility.yul\":1213:1220   */\n      0x00\n        /* \"#utility.yul\":1242:1247   */\n      dup2\n        /* \"#utility.yul\":1231:1247   */\n      swap1\n      pop\n        /* \"#utility.yul\":1176:1253   */\n      swap2\n      swap1\n      pop\n      jump\t// out\n        /* \"#utility.yul\":1259:1377   */\n    tag_89:\n        /* \"#utility.yul\":1346:1370   */\n      tag_123\n        /* \"#utility.yul\":1364:1369   */\n      dup2\n        /* \"#utility.yul\":1346:1370   */\n      tag_88\n      jump\t// in\n    tag_123:\n        /* \"#utility.yul\":1341:1344   */\n      dup3\n        /* \"#utility.yul\":1334:1371   */\n      mstore\n        /* \"#utility.yul\":1259:1377   */\n      pop\n      pop\n      jump\t// out\n        /* \"#utility.yul\":1383:1605   */\n    tag_17:\n        /* \"#utility.yul\":1476:1480   */\n      0x00\n        /* \"#utility.yul\":1514:1516   */\n      0x20\n        /* \"#utility.yul\":1503:1512   */\n      dup3\n        /* \"#utility.yul\":1499:1517   */\n      add\n        /* \"#utility.yul\":1491:1517   */\n      swap1\n      pop\n        /* \"#utility.yul\":1527:1598   */\n      tag_125\n        /* \"#utility.yul\":1595:1596   */\n      0x00\n        /* \"#utility.yul\":1584:1593   */\n      dup4\n        /* \"#utility.yul\":1580:1597   */\n      add\n        /* \"#utility.yul\":1571:1577   */\n      dup5\n        /* \"#utility.yul\":1527:1598   */\n      tag_89\n      jump\t// in\n    tag_125:\n        /* \"#utility.yul\":1383:1605   */\n      swap3\n      swap2\n      pop\n      pop\n      jump\t// out\n        /* \"#utility.yul\":1611:1733   */\n    tag_90:\n        /* \"#utility.yul\":1684:1708   */\n      tag_127\n        /* \"#utility.yul\":1702:1707   */\n      dup2\n        /* \"#utility.yul\":1684:1708   */\n      tag_88\n      jump\t// in\n    tag_127:\n        /* \"#utility.yul\":1677:1682   */\n      dup2\n        /* \"#utility.yul\":1674:1709   */\n      eq\n        /* \"#utility.yul\":1664:1727   */\n      tag_128\n      jumpi\n        /* \"#utility.yul\":1723:1724   */\n      0x00\n        /* \"#utility.yul\":1720:1721   */\n      dup1\n        /* \"#utility.yul\":1713:1725   */\n      revert\n        /* \"#utility.yul\":1664:1727   */\n    tag_128:\n        /* \"#utility.yul\":1611:1733   */\n      pop\n      jump\t// out\n        /* \"#utility.yul\":1739:1878   */\n    tag_91:\n        /* \"#utility.yul\":1785:1790   */\n      0x00\n        /* \"#utility.yul\":1823:1829   */\n      dup2\n        /* \"#utility.yul\":1810:1830   */\n      calldataload\n        /* \"#utility.yul\":1801:1830   */\n      swap1\n      pop\n        /* \"#utility.yul\":1839:1872   */\n      tag_130\n        /* \"#utility.yul\":1866:1871   */\n      dup2\n        /* \"#utility.yul\":1839:1872   */\n      tag_90\n      jump\t// in\n    tag_130:\n        /* \"#utility.yul\":1739:1878   */\n      swap3\n      swap2\n      pop\n      pop\n      jump\t// out\n        /* \"#utility.yul\":1884:2213   */\n    tag_27:\n        /* \"#utility.yul\":1943:1949   */\n      0x00\n        /* \"#utility.yul\":1992:1994   */\n      0x20\n        /* \"#utility.yul\":1980:1989   */\n      dup3\n        /* \"#utility.yul\":1971:1978   */\n      dup5\n        /* \"#utility.yul\":1967:1990   */\n      sub\n        /* \"#utility.yul\":1963:1995   */\n      slt\n        /* \"#utility.yul\":1960:2079   */\n      iszero\n      tag_132\n      jumpi\n        /* \"#utility.yul\":1998:2077   */\n      tag_133\n      tag_82\n      jump\t// in\n    tag_133:\n        /* \"#utility.yul\":1960:2079   */\n    tag_132:\n        /* \"#utility.yul\":2118:2119   */\n      0x00\n        /* \"#utility.yul\":2143:2196   */\n      tag_134\n        /* \"#utility.yul\":2188:2195   */\n      dup5\n        /* \"#utility.yul\":2179:2185   */\n      dup3\n        /* \"#utility.yul\":2168:2177   */\n      dup6\n        /* \"#utility.yul\":2164:2186   */\n      add\n        /* \"#utility.yul\":2143:2196   */\n      tag_91\n      jump\t// in\n    tag_134:\n        /* \"#utility.yul\":2133:2196   */\n      swap2\n      pop\n        /* \"#utility.yul\":2089:2206   */\n      pop\n        /* \"#utility.yul\":1884:2213   */\n      swap3\n      swap2\n      pop\n      pop\n      jump\t// out\n        /* \"#utility.yul\":2219:2337   */\n    tag_92:\n        /* \"#utility.yul\":2306:2330   */\n      tag_136\n        /* \"#utility.yul\":2324:2329   */\n      dup2\n        /* \"#utility.yul\":2306:2330   */\n      tag_85\n      jump\t// in\n    tag_136:\n        /* \"#utility.yul\":2301:2304   */\n      dup3\n        /* \"#utility.yul\":2294:2331   */\n      mstore\n        /* \"#utility.yul\":2219:2337   */\n      pop\n      pop\n      jump\t// out\n        /* \"#utility.yul\":2343:2565   */\n    tag_30:\n        /* \"#utility.yul\":2436:2440   */\n      0x00\n        /* \"#utility.yul\":2474:2476   */\n      0x20\n        /* \"#utility.yul\":2463:2472   */\n      dup3\n        /* \"#utility.yul\":2459:2477   */\n      add\n        /* \"#utility.yul\":2451:2477   */\n      swap1\n      pop\n        /* \"#utility.yul\":2487:2558   */\n      tag_138\n        /* \"#utility.yul\":2555:2556   */\n      0x00\n        /* \"#utility.yul\":2544:2553   */\n      dup4\n        /* \"#utility.yul\":2540:2557   */\n      add\n        /* \"#utility.yul\":2531:2537   */\n      dup5\n        /* \"#utility.yul\":2487:2558   */\n      tag_92\n      jump\t// in\n    tag_138:\n        /* \"#utility.yul\":2343:2565   */\n      swap3\n      swap2\n      pop\n      pop\n      jump\t// out\n        /* \"#utility.yul\":2571:2751   */\n    tag_41:\n        /* \"#utility.yul\":2619:2696   */\n      0x4e487b7100000000000000000000000000000000000000000000000000000000\n        /* \"#utility.yul\":2616:2617   */\n      0x00\n        /* \"#utility.yul\":2609:2697   */\n      mstore\n        /* \"#utility.yul\":2716:2720   */\n      0x32\n        /* \"#utility.yul\":2713:2714   */\n      0x04\n        /* \"#utility.yul\":2706:2721   */\n      mstore\n        /* \"#utility.yul\":2740:2744   */\n      0x24\n        /* \"#utility.yul\":2737:2738   */\n      0x00\n        /* \"#utility.yul\":2730:2745   */\n      revert\n        /* \"#utility.yul\":2757:2937   */\n    tag_45:\n        /* \"#utility.yul\":2805:2882   */\n      0x4e487b7100000000000000000000000000000000000000000000000000000000\n        /* \"#utility.yul\":2802:2803   */\n      0x00\n        /* \"#utility.yul\":2795:2883   */\n      mstore\n        /* \"#utility.yul\":2902:2906   */\n      0x41\n        /* \"#utility.yul\":2899:2900   */\n      0x04\n        /* \"#utility.yul\":2892:2907   */\n      mstore\n        /* \"#utility.yul\":2926:2930   */\n      0x24\n        /* \"#utility.yul\":2923:2924   */\n      0x00\n        /* \"#utility.yul\":2916:2931   */\n      revert\n        /* \"#utility.yul\":2943:3112   */\n    tag_93:\n        /* \"#utility.yul\":3027:3038   */\n      0x00\n        /* \"#utility.yul\":3061:3067   */\n      dup3\n        /* \"#utility.yul\":3056:3059   */\n      dup3\n        /* \"#utility.yul\":3049:3068   */\n      mstore\n        /* \"#utility.yul\":3101:3105   */\n      0x20\n        /* \"#utility.yul\":3096:3099   */\n      dup3\n        /* \"#utility.yul\":3092:3106   */\n      add\n        /* \"#utility.yul\":3077:3106   */\n      swap1\n      pop\n        /* \"#utility.yul\":2943:3112   */\n      swap3\n      swap2\n      pop\n      pop\n      jump\t// out\n        /* \"#utility.yul\":3118:3290   */\n    tag_94:\n        /* \"#utility.yul\":3258:3282   */\n      0x6469646e27742073656e6420656e6f7567682045544800000000000000000000\n        /* \"#utility.yul\":3254:3255   */\n      0x00\n        /* \"#utility.yul\":3246:3252   */\n      dup3\n        /* \"#utility.yul\":3242:3256   */\n      add\n        /* \"#utility.yul\":3235:3283   */\n      mstore\n        /* \"#utility.yul\":3118:3290   */\n      pop\n      jump\t// out\n        /* \"#utility.yul\":3296:3662   */\n    tag_95:\n        /* \"#utility.yul\":3438:3441   */\n      0x00\n        /* \"#utility.yul\":3459:3526   */\n      tag_144\n        /* \"#utility.yul\":3523:3525   */\n      0x16\n        /* \"#utility.yul\":3518:3521   */\n      dup4\n        /* \"#utility.yul\":3459:3526   */\n      tag_93\n      jump\t// in\n    tag_144:\n        /* \"#utility.yul\":3452:3526   */\n      swap2\n      pop\n        /* \"#utility.yul\":3535:3628   */\n      tag_145\n        /* \"#utility.yul\":3624:3627   */\n      dup3\n        /* \"#utility.yul\":3535:3628   */\n      tag_94\n      jump\t// in\n    tag_145:\n        /* \"#utility.yul\":3653:3655   */\n      0x20\n        /* \"#utility.yul\":3648:3651   */\n      dup3\n        /* \"#utility.yul\":3644:3656   */\n      add\n        /* \"#utility.yul\":3637:3656   */\n      swap1\n      pop\n        /* \"#utility.yul\":3296:3662   */\n      swap2\n      swap1\n      pop\n      jump\t// out\n        /* \"#utility.yul\":3668:4087   */\n    tag_54:\n        /* \"#utility.yul\":3834:3838   */\n      0x00\n        /* \"#utility.yul\":3872:3874   */\n      0x20\n        /* \"#utility.yul\":3861:3870   */\n      dup3\n        /* \"#utility.yul\":3857:3875   */\n      add\n        /* \"#utility.yul\":3849:3875   */\n      swap1\n      pop\n        /* \"#utility.yul\":3921:3930   */\n      dup2\n        /* \"#utility.yul\":3915:3919   */\n      dup2\n        /* \"#utility.yul\":3911:3931   */\n      sub\n        /* \"#utility.yul\":3907:3908   */\n      0x00\n        /* \"#utility.yul\":3896:3905   */\n      dup4\n        /* \"#utility.yul\":3892:3909   */\n      add\n        /* \"#utility.yul\":3885:3932   */\n      mstore\n        /* \"#utility.yul\":3949:4080   */\n      tag_147\n        /* \"#utility.yul\":4075:4079   */\n      dup2\n        /* \"#utility.yul\":3949:4080   */\n      tag_95\n      jump\t// in\n    tag_147:\n        /* \"#utility.yul\":3941:4080   */\n      swap1\n      pop\n        /* \"#utility.yul\":3668:4087   */\n      swap2\n      swap1\n      pop\n      jump\t// out\n        /* \"#utility.yul\":4093:4273   */\n    tag_96:\n        /* \"#utility.yul\":4141:4218   */\n      0x4e487b7100000000000000000000000000000000000000000000000000000000\n        /* \"#utility.yul\":4138:4139   */\n      0x00\n        /* \"#utility.yul\":4131:4219   */\n      mstore\n        /* \"#utility.yul\":4238:4242   */\n      0x11\n        /* \"#utility.yul\":4235:4236   */\n      0x04\n        /* \"#utility.yul\":4228:4243   */\n      mstore\n        /* \"#utility.yul\":4262:4266   */\n      0x24\n        /* \"#utility.yul\":4259:4260   */\n      0x00\n        /* \"#utility.yul\":4252:4267   */\n      revert\n        /* \"#utility.yul\":4279:4470   */\n    tag_57:\n        /* \"#utility.yul\":4319:4322   */\n      0x00\n        /* \"#utility.yul\":4338:4358   */\n      tag_150\n        /* \"#utility.yul\":4356:4357   */\n      dup3\n        /* \"#utility.yul\":4338:4358   */\n      tag_88\n      jump\t// in\n    tag_150:\n        /* \"#utility.yul\":4333:4358   */\n      swap2\n      pop\n        /* \"#utility.yul\":4372:4392   */\n      tag_151\n        /* \"#utility.yul\":4390:4391   */\n      dup4\n        /* \"#utility.yul\":4372:4392   */\n      tag_88\n      jump\t// in\n    tag_151:\n        /* \"#utility.yul\":4367:4392   */\n      swap3\n      pop\n        /* \"#utility.yul\":4415:4416   */\n      dup3\n        /* \"#utility.yul\":4412:4413   */\n      dup3\n        /* \"#utility.yul\":4408:4417   */\n      add\n        /* \"#utility.yul\":4401:4417   */\n      swap1\n      pop\n        /* \"#utility.yul\":4436:4439   */\n      dup1\n        /* \"#utility.yul\":4433:4434   */\n      dup3\n        /* \"#utility.yul\":4430:4440   */\n      gt\n        /* \"#utility.yul\":4427:4463   */\n      iszero\n      tag_152\n      jumpi\n        /* \"#utility.yul\":4443:4461   */\n      tag_153\n      tag_96\n      jump\t// in\n    tag_153:\n        /* \"#utility.yul\":4427:4463   */\n    tag_152:\n        /* \"#utility.yul\":4279:4470   */\n      swap3\n      swap2\n      pop\n      pop\n      jump\t// out\n        /* \"#utility.yul\":4476:4886   */\n    tag_64:\n        /* \"#utility.yul\":4516:4523   */\n      0x00\n        /* \"#utility.yul\":4539:4559   */\n      tag_155\n        /* \"#utility.yul\":4557:4558   */\n      dup3\n        /* \"#utility.yul\":4539:4559   */\n      tag_88\n      jump\t// in\n    tag_155:\n        /* \"#utility.yul\":4534:4559   */\n      swap2\n      pop\n        /* \"#utility.yul\":4573:4593   */\n      tag_156\n        /* \"#utility.yul\":4591:4592   */\n      dup4\n        /* \"#utility.yul\":4573:4593   */\n      tag_88\n      jump\t// in\n    tag_156:\n        /* \"#utility.yul\":4568:4593   */\n      swap3\n      pop\n        /* \"#utility.yul\":4628:4629   */\n      dup3\n        /* \"#utility.yul\":4625:4626   */\n      dup3\n        /* \"#utility.yul\":4621:4630   */\n      mul\n        /* \"#utility.yul\":4650:4680   */\n      tag_157\n        /* \"#utility.yul\":4668:4679   */\n      dup2\n        /* \"#utility.yul\":4650:4680   */\n      tag_88\n      jump\t// in\n    tag_157:\n        /* \"#utility.yul\":4639:4680   */\n      swap2\n      pop\n        /* \"#utility.yul\":4829:4830   */\n      dup3\n        /* \"#utility.yul\":4820:4827   */\n      dup3\n        /* \"#utility.yul\":4816:4831   */\n      div\n        /* \"#utility.yul\":4813:4814   */\n      dup5\n        /* \"#utility.yul\":4810:4832   */\n      eq\n        /* \"#utility.yul\":4790:4791   */\n      dup4\n        /* \"#utility.yul\":4783:4792   */\n      iszero\n        /* \"#utility.yul\":4763:4846   */\n      or\n        /* \"#utility.yul\":4740:4879   */\n      tag_158\n      jumpi\n        /* \"#utility.yul\":4859:4877   */\n      tag_159\n      tag_96\n      jump\t// in\n    tag_159:\n        /* \"#utility.yul\":4740:4879   */\n    tag_158:\n        /* \"#utility.yul\":4524:4886   */\n      pop\n        /* \"#utility.yul\":4476:4886   */\n      swap3\n      swap2\n      pop\n      pop\n      jump\t// out\n        /* \"#utility.yul\":4892:5072   */\n    tag_97:\n        /* \"#utility.yul\":4940:5017   */\n      0x4e487b7100000000000000000000000000000000000000000000000000000000\n        /* \"#utility.yul\":4937:4938   */\n      0x00\n        /* \"#utility.yul\":4930:5018   */\n      mstore\n        /* \"#utility.yul\":5037:5041   */\n      0x12\n        /* \"#utility.yul\":5034:5035   */\n      0x04\n        /* \"#utility.yul\":5027:5042   */\n      mstore\n        /* \"#utility.yul\":5061:5065   */\n      0x24\n        /* \"#utility.yul\":5058:5059   */\n      0x00\n        /* \"#utility.yul\":5051:5066   */\n      revert\n        /* \"#utility.yul\":5078:5263   */\n    tag_66:\n        /* \"#utility.yul\":5118:5119   */\n      0x00\n        /* \"#utility.yul\":5135:5155   */\n      tag_162\n        /* \"#utility.yul\":5153:5154   */\n      dup3\n        /* \"#utility.yul\":5135:5155   */\n      tag_88\n      jump\t// in\n    tag_162:\n        /* \"#utility.yul\":5130:5155   */\n      swap2\n      pop\n        /* \"#utility.yul\":5169:5189   */\n      tag_163\n        /* \"#utility.yul\":5187:5188   */\n      dup4\n        /* \"#utility.yul\":5169:5189   */\n      tag_88\n      jump\t// in\n    tag_163:\n        /* \"#utility.yul\":5164:5189   */\n      swap3\n      pop\n        /* \"#utility.yul\":5208:5209   */\n      dup3\n        /* \"#utility.yul\":5198:5233   */\n      tag_164\n      jumpi\n        /* \"#utility.yul\":5213:5231   */\n      tag_165\n      tag_97\n      jump\t// in\n    tag_165:\n        /* \"#utility.yul\":5198:5233   */\n    tag_164:\n        /* \"#utility.yul\":5255:5256   */\n      dup3\n        /* \"#utility.yul\":5252:5253   */\n      dup3\n        /* \"#utility.yul\":5248:5257   */\n      div\n        /* \"#utility.yul\":5243:5257   */\n      swap1\n      pop\n        /* \"#utility.yul\":5078:5263   */\n      swap3\n      swap2\n      pop\n      pop\n      jump\t// out\n        /* \"#utility.yul\":5269:5374   */\n    tag_98:\n        /* \"#utility.yul\":5305:5312   */\n      0x00\n        /* \"#utility.yul\":5345:5367   */\n      0xffffffffffffffffffff\n        /* \"#utility.yul\":5338:5343   */\n      dup3\n        /* \"#utility.yul\":5334:5368   */\n      and\n        /* \"#utility.yul\":5323:5368   */\n      swap1\n      pop\n        /* \"#utility.yul\":5269:5374   */\n      swap2\n      swap1\n      pop\n      jump\t// out\n        /* \"#utility.yul\":5380:5500   */\n    tag_99:\n        /* \"#utility.yul\":5452:5475   */\n      tag_168\n        /* \"#utility.yul\":5469:5474   */\n      dup2\n        /* \"#utility.yul\":5452:5475   */\n      tag_98\n      jump\t// in\n    tag_168:\n        /* \"#utility.yul\":5445:5450   */\n      dup2\n        /* \"#utility.yul\":5442:5476   */\n      eq\n        /* \"#utility.yul\":5432:5494   */\n      tag_169\n      jumpi\n        /* \"#utility.yul\":5490:5491   */\n      0x00\n        /* \"#utility.yul\":5487:5488   */\n      dup1\n        /* \"#utility.yul\":5480:5492   */\n      revert\n        /* \"#utility.yul\":5432:5494   */\n    tag_169:\n        /* \"#utility.yul\":5380:5500   */\n      pop\n      jump\t// out\n        /* \"#utility.yul\":5506:5647   */\n    tag_100:\n        /* \"#utility.yul\":5562:5567   */\n      0x00\n        /* \"#utility.yul\":5593:5599   */\n      dup2\n        /* \"#utility.yul\":5587:5600   */\n      mload\n        /* \"#utility.yul\":5578:5600   */\n      swap1\n      pop\n        /* \"#utility.yul\":5609:5641   */\n      tag_171\n        /* \"#utility.yul\":5635:5640   */\n      dup2\n        /* \"#utility.yul\":5609:5641   */\n      tag_99\n      jump\t// in\n    tag_171:\n        /* \"#utility.yul\":5506:5647   */\n      swap3\n      swap2\n      pop\n      pop\n      jump\t// out\n        /* \"#utility.yul\":5653:5729   */\n    tag_101:\n        /* \"#utility.yul\":5689:5696   */\n      0x00\n        /* \"#utility.yul\":5718:5723   */\n      dup2\n        /* \"#utility.yul\":5707:5723   */\n      swap1\n      pop\n        /* \"#utility.yul\":5653:5729   */\n      swap2\n      swap1\n      pop\n      jump\t// out\n        /* \"#utility.yul\":5735:5855   */\n    tag_102:\n        /* \"#utility.yul\":5807:5830   */\n      tag_174\n        /* \"#utility.yul\":5824:5829   */\n      dup2\n        /* \"#utility.yul\":5807:5830   */\n      tag_101\n      jump\t// in\n    tag_174:\n        /* \"#utility.yul\":5800:5805   */\n      dup2\n        /* \"#utility.yul\":5797:5831   */\n      eq\n        /* \"#utility.yul\":5787:5849   */\n      tag_175\n      jumpi\n        /* \"#utility.yul\":5845:5846   */\n      0x00\n        /* \"#utility.yul\":5842:5843   */\n      dup1\n        /* \"#utility.yul\":5835:5847   */\n      revert\n        /* \"#utility.yul\":5787:5849   */\n    tag_175:\n        /* \"#utility.yul\":5735:5855   */\n      pop\n      jump\t// out\n        /* \"#utility.yul\":5861:6002   */\n    tag_103:\n        /* \"#utility.yul\":5917:5922   */\n      0x00\n        /* \"#utility.yul\":5948:5954   */\n      dup2\n        /* \"#utility.yul\":5942:5955   */\n      mload\n        /* \"#utility.yul\":5933:5955   */\n      swap1\n      pop\n        /* \"#utility.yul\":5964:5996   */\n      tag_177\n        /* \"#utility.yul\":5990:5995   */\n      dup2\n        /* \"#utility.yul\":5964:5996   */\n      tag_102\n      jump\t// in\n    tag_177:\n        /* \"#utility.yul\":5861:6002   */\n      swap3\n      swap2\n      pop\n      pop\n      jump\t// out\n        /* \"#utility.yul\":6008:6151   */\n    tag_104:\n        /* \"#utility.yul\":6065:6070   */\n      0x00\n        /* \"#utility.yul\":6096:6102   */\n      dup2\n        /* \"#utility.yul\":6090:6103   */\n      mload\n        /* \"#utility.yul\":6081:6103   */\n      swap1\n      pop\n        /* \"#utility.yul\":6112:6145   */\n      tag_179\n        /* \"#utility.yul\":6139:6144   */\n      dup2\n        /* \"#utility.yul\":6112:6145   */\n      tag_90\n      jump\t// in\n    tag_179:\n        /* \"#utility.yul\":6008:6151   */\n      swap3\n      swap2\n      pop\n      pop\n      jump\t// out\n        /* \"#utility.yul\":6157:7128   */\n    tag_71:\n        /* \"#utility.yul\":6260:6266   */\n      0x00\n        /* \"#utility.yul\":6268:6274   */\n      dup1\n        /* \"#utility.yul\":6276:6282   */\n      0x00\n        /* \"#utility.yul\":6284:6290   */\n      dup1\n        /* \"#utility.yul\":6292:6298   */\n      0x00\n        /* \"#utility.yul\":6341:6344   */\n      0xa0\n        /* \"#utility.yul\":6329:6338   */\n      dup7\n        /* \"#utility.yul\":6320:6327   */\n      dup9\n        /* \"#utility.yul\":6316:6339   */\n      sub\n        /* \"#utility.yul\":6312:6345   */\n      slt\n        /* \"#utility.yul\":6309:6429   */\n      iszero\n      tag_181\n      jumpi\n        /* \"#utility.yul\":6348:6427   */\n      tag_182\n      tag_82\n      jump\t// in\n    tag_182:\n        /* \"#utility.yul\":6309:6429   */\n    tag_181:\n        /* \"#utility.yul\":6468:6469   */\n      0x00\n        /* \"#utility.yul\":6493:6556   */\n      tag_183\n        /* \"#utility.yul\":6548:6555   */\n      dup9\n        /* \"#utility.yul\":6539:6545   */\n      dup3\n        /* \"#utility.yul\":6528:6537   */\n      dup10\n        /* \"#utility.yul\":6524:6546   */\n      add\n        /* \"#utility.yul\":6493:6556   */\n      tag_100\n      jump\t// in\n    tag_183:\n        /* \"#utility.yul\":6483:6556   */\n      swap6\n      pop\n        /* \"#utility.yul\":6439:6566   */\n      pop\n        /* \"#utility.yul\":6605:6607   */\n      0x20\n        /* \"#utility.yul\":6631:6694   */\n      tag_184\n        /* \"#utility.yul\":6686:6693   */\n      dup9\n        /* \"#utility.yul\":6677:6683   */\n      dup3\n        /* \"#utility.yul\":6666:6675   */\n      dup10\n        /* \"#utility.yul\":6662:6684   */\n      add\n        /* \"#utility.yul\":6631:6694   */\n      tag_103\n      jump\t// in\n    tag_184:\n        /* \"#utility.yul\":6621:6694   */\n      swap5\n      pop\n        /* \"#utility.yul\":6576:6704   */\n      pop\n        /* \"#utility.yul\":6743:6745   */\n      0x40\n        /* \"#utility.yul\":6769:6833   */\n      tag_185\n        /* \"#utility.yul\":6825:6832   */\n      dup9\n        /* \"#utility.yul\":6816:6822   */\n      dup3\n        /* \"#utility.yul\":6805:6814   */\n      dup10\n        /* \"#utility.yul\":6801:6823   */\n      add\n        /* \"#utility.yul\":6769:6833   */\n      tag_104\n      jump\t// in\n    tag_185:\n        /* \"#utility.yul\":6759:6833   */\n      swap4\n      pop\n        /* \"#utility.yul\":6714:6843   */\n      pop\n        /* \"#utility.yul\":6882:6884   */\n      0x60\n        /* \"#utility.yul\":6908:6972   */\n      tag_186\n        /* \"#utility.yul\":6964:6971   */\n      dup9\n        /* \"#utility.yul\":6955:6961   */\n      dup3\n        /* \"#utility.yul\":6944:6953   */\n      dup10\n        /* \"#utility.yul\":6940:6962   */\n      add\n        /* \"#utility.yul\":6908:6972   */\n      tag_104\n      jump\t// in\n    tag_186:\n        /* \"#utility.yul\":6898:6972   */\n      swap3\n      pop\n        /* \"#utility.yul\":6853:6982   */\n      pop\n        /* \"#utility.yul\":7021:7024   */\n      0x80\n        /* \"#utility.yul\":7048:7111   */\n      tag_187\n        /* \"#utility.yul\":7103:7110   */\n      dup9\n        /* \"#utility.yul\":7094:7100   */\n      dup3\n        /* \"#utility.yul\":7083:7092   */\n      dup10\n        /* \"#utility.yul\":7079:7101   */\n      add\n        /* \"#utility.yul\":7048:7111   */\n      tag_100\n      jump\t// in\n    tag_187:\n        /* \"#utility.yul\":7038:7111   */\n      swap2\n      pop\n        /* \"#utility.yul\":6992:7121   */\n      pop\n        /* \"#utility.yul\":6157:7128   */\n      swap3\n      swap6\n      pop\n      swap3\n      swap6\n      swap1\n      swap4\n      pop\n      jump\t// out\n        /* \"#utility.yul\":7134:7690   */\n    tag_73:\n        /* \"#utility.yul\":7173:7180   */\n      0x00\n        /* \"#utility.yul\":7196:7215   */\n      tag_189\n        /* \"#utility.yul\":7213:7214   */\n      dup3\n        /* \"#utility.yul\":7196:7215   */\n      tag_101\n      jump\t// in\n    tag_189:\n        /* \"#utility.yul\":7191:7215   */\n      swap2\n      pop\n        /* \"#utility.yul\":7229:7248   */\n      tag_190\n        /* \"#utility.yul\":7246:7247   */\n      dup4\n        /* \"#utility.yul\":7229:7248   */\n      tag_101\n      jump\t// in\n    tag_190:\n        /* \"#utility.yul\":7224:7248   */\n      swap3\n      pop\n        /* \"#utility.yul\":7283:7284   */\n      dup3\n        /* \"#utility.yul\":7280:7281   */\n      dup3\n        /* \"#utility.yul\":7276:7285   */\n      mul\n        /* \"#utility.yul\":7305:7334   */\n      tag_191\n        /* \"#utility.yul\":7322:7333   */\n      dup2\n        /* \"#utility.yul\":7305:7334   */\n      tag_101\n      jump\t// in\n    tag_191:\n        /* \"#utility.yul\":7294:7334   */\n      swap2\n      pop\n        /* \"#utility.yul\":7392:7458   */\n      0x8000000000000000000000000000000000000000000000000000000000000000\n        /* \"#utility.yul\":7389:7390   */\n      dup5\n        /* \"#utility.yul\":7386:7459   */\n      eq\n        /* \"#utility.yul\":7382:7383   */\n      0x00\n        /* \"#utility.yul\":7379:7380   */\n      dup5\n        /* \"#utility.yul\":7375:7384   */\n      slt\n        /* \"#utility.yul\":7371:7460   */\n      and\n        /* \"#utility.yul\":7368:7483   */\n      iszero\n      tag_192\n      jumpi\n        /* \"#utility.yul\":7463:7481   */\n      tag_193\n      tag_96\n      jump\t// in\n    tag_193:\n        /* \"#utility.yul\":7368:7483   */\n    tag_192:\n        /* \"#utility.yul\":7633:7634   */\n      dup3\n        /* \"#utility.yul\":7624:7631   */\n      dup3\n        /* \"#utility.yul\":7619:7635   */\n      sdiv\n        /* \"#utility.yul\":7616:7617   */\n      dup5\n        /* \"#utility.yul\":7613:7636   */\n      eq\n        /* \"#utility.yul\":7593:7594   */\n      dup4\n        /* \"#utility.yul\":7586:7595   */\n      iszero\n        /* \"#utility.yul\":7566:7650   */\n      or\n        /* \"#utility.yul\":7543:7683   */\n      tag_194\n      jumpi\n        /* \"#utility.yul\":7663:7681   */\n      tag_195\n      tag_96\n      jump\t// in\n    tag_195:\n        /* \"#utility.yul\":7543:7683   */\n    tag_194:\n        /* \"#utility.yul\":7181:7690   */\n      pop\n        /* \"#utility.yul\":7134:7690   */\n      swap3\n      swap2\n      pop\n      pop\n      jump\t// out\n\n    auxdata: 0xa2646970667358221220992b2ada374dcf7bb4cf81696021f875317feea39241df44f5cf09a17076ea4264736f6c63430008180033\n}\n",
				"bytecode": {
					"linkReferences": {},
					"object": "6080604052600a5f55674563918244f4000060015534801561001f575f80fd5b506109d08061002d5f395ff3fe608060405260043610610054575f3560e01c80633ccfd60b146100585780633e47d6f31461006e57806347f1aae7146100aa578063b60d4288146100d4578063dc0d3dff146100de578063dc992aa01461011a575b5f80fd5b348015610063575f80fd5b5061006c610144565b005b348015610079575f80fd5b50610094600480360381019061008f919061057e565b610244565b6040516100a191906105c1565b60405180910390f35b3480156100b5575f80fd5b506100be610259565b6040516100cb91906105c1565b60405180910390f35b6100dc61025e565b005b3480156100e9575f80fd5b5061010460048036038101906100ff9190610604565b610360565b604051610111919061063e565b60405180910390f35b348015610125575f80fd5b5061012e61039b565b60405161013b91906105c1565b60405180910390f35b5f5b6002805490508110156101e2575f6002828154811061016857610167610657565b5b905f5260205f20015f9054906101000a900473ffffffffffffffffffffffffffffffffffffffff1690505f60035f8373ffffffffffffffffffffffffffffffffffffffff1673ffffffffffffffffffffffffffffffffffffffff1681526020019081526020015f2081905550508080600101915050610146565b505f67ffffffffffffffff8111156101fd576101fc610684565b5b60405190808252806020026020018201604052801561022b5781602001602082028036833780820191505090505b506002908051906020019061024192919061047e565b50565b6003602052805f5260405f205f915090505481565b5f5481565b60015461026a346103a1565b10156102ab576040517f08c379a00000000000000000000000000000000000000000000000000000000081526004016102a29061070b565b60405180910390fd5b600233908060018154018082558091505060019003905f5260205f20015f9091909190916101000a81548173ffffffffffffffffffffffffffffffffffffffff021916908373ffffffffffffffffffffffffffffffffffffffff1602179055503460035f3373ffffffffffffffffffffffffffffffffffffffff1673ffffffffffffffffffffffffffffffffffffffff1681526020019081526020015f205f8282546103579190610756565b92505081905550565b6002818154811061036f575f80fd5b905f5260205f20015f915054906101000a900473ffffffffffffffffffffffffffffffffffffffff1681565b60015481565b5f806103ab6103d9565b90505f670de0b6b3a764000082856103c39190610789565b6103cd91906107f7565b90508092505050919050565b5f8073694aa1769357215de4fac081bf1f309adc32530690505f8173ffffffffffffffffffffffffffffffffffffffff1663feaf968c6040518163ffffffff1660e01b815260040160a060405180830381865afa15801561043c573d5f803e3d5ffd5b505050506040513d601f19601f8201168201806040525081019061046091906108ad565b5050509150506402540be400816104779190610924565b9250505090565b828054828255905f5260205f209081019282156104f4579160200282015b828111156104f3578251825f6101000a81548173ffffffffffffffffffffffffffffffffffffffff021916908373ffffffffffffffffffffffffffffffffffffffff1602179055509160200191906001019061049c565b5b5090506105019190610505565b5090565b5b8082111561051c575f815f905550600101610506565b5090565b5f80fd5b5f73ffffffffffffffffffffffffffffffffffffffff82169050919050565b5f61054d82610524565b9050919050565b61055d81610543565b8114610567575f80fd5b50565b5f8135905061057881610554565b92915050565b5f6020828403121561059357610592610520565b5b5f6105a08482850161056a565b91505092915050565b5f819050919050565b6105bb816105a9565b82525050565b5f6020820190506105d45f8301846105b2565b92915050565b6105e3816105a9565b81146105ed575f80fd5b50565b5f813590506105fe816105da565b92915050565b5f6020828403121561061957610618610520565b5b5f610626848285016105f0565b91505092915050565b61063881610543565b82525050565b5f6020820190506106515f83018461062f565b92915050565b7f4e487b71000000000000000000000000000000000000000000000000000000005f52603260045260245ffd5b7f4e487b71000000000000000000000000000000000000000000000000000000005f52604160045260245ffd5b5f82825260208201905092915050565b7f6469646e27742073656e6420656e6f75676820455448000000000000000000005f82015250565b5f6106f56016836106b1565b9150610700826106c1565b602082019050919050565b5f6020820190508181035f830152610722816106e9565b9050919050565b7f4e487b71000000000000000000000000000000000000000000000000000000005f52601160045260245ffd5b5f610760826105a9565b915061076b836105a9565b925082820190508082111561078357610782610729565b5b92915050565b5f610793826105a9565b915061079e836105a9565b92508282026107ac816105a9565b915082820484148315176107c3576107c2610729565b5b5092915050565b7f4e487b71000000000000000000000000000000000000000000000000000000005f52601260045260245ffd5b5f610801826105a9565b915061080c836105a9565b92508261081c5761081b6107ca565b5b828204905092915050565b5f69ffffffffffffffffffff82169050919050565b61084581610827565b811461084f575f80fd5b50565b5f815190506108608161083c565b92915050565b5f819050919050565b61087881610866565b8114610882575f80fd5b50565b5f815190506108938161086f565b92915050565b5f815190506108a7816105da565b92915050565b5f805f805f60a086880312156108c6576108c5610520565b5b5f6108d388828901610852565b95505060206108e488828901610885565b94505060406108f588828901610899565b935050606061090688828901610899565b925050608061091788828901610852565b9150509295509295909350565b5f61092e82610866565b915061093983610866565b925082820261094781610866565b91507f800000000000000000000000000000000000000000000000000000000000000084145f8412161561097e5761097d610729565b5b828205841483151761099357610992610729565b5b509291505056fea2646970667358221220992b2ada374dcf7bb4cf81696021f875317feea39241df44f5cf09a17076ea4264736f6c63430008180033",
					"opcodes": "PUSH1 0x80 PUSH1 0x40 MSTORE PUSH1 0xA PUSH0 SSTORE PUSH8 0x4563918244F40000 PUSH1 0x1 SSTORE CALLVALUE DUP1 ISZERO PUSH2 0x1F JUMPI PUSH0 DUP1 REVERT JUMPDEST POP PUSH2 0x9D0 DUP1 PUSH2 0x2D PUSH0 CODECOPY PUSH0 RETURN INVALID PUSH1 0x80 PUSH1 0x40 MSTORE PUSH1 0x4 CALLDATASIZE LT PUSH2 0x54 JUMPI PUSH0 CALLDATALOAD PUSH1 0xE0 SHR DUP1 PUSH4 0x3CCFD60B EQ PUSH2 0x58 JUMPI DUP1 PUSH4 0x3E47D6F3 EQ PUSH2 0x6E JUMPI DUP1 PUSH4 0x47F1AAE7 EQ PUSH2 0xAA JUMPI DUP1 PUSH4 0xB60D4288 EQ PUSH2 0xD4 JUMPI DUP1 PUSH4 0xDC0D3DFF EQ PUSH2 0xDE JUMPI DUP1 PUSH4 0xDC992AA0 EQ PUSH2 0x11A JUMPI JUMPDEST PUSH0 DUP1 REVERT JUMPDEST CALLVALUE DUP1 ISZERO PUSH2 0x63 JUMPI PUSH0 DUP1 REVERT JUMPDEST POP PUSH2 0x6C PUSH2 0x144 JUMP JUMPDEST STOP JUMPDEST CALLVALUE DUP1 ISZERO PUSH2 0x79 JUMPI PUSH0 DUP1 REVERT JUMPDEST POP PUSH2 0x94 PUSH1 0x4 DUP1 CALLDATASIZE SUB DUP2 ADD SWAP1 PUSH2 0x8F SWAP2 SWAP1 PUSH2 0x57E JUMP JUMPDEST PUSH2 0x244 JUMP JUMPDEST PUSH1 0x40 MLOAD PUSH2 0xA1 SWAP2 SWAP1 PUSH2 0x5C1 JUMP JUMPDEST PUSH1 0x40 MLOAD DUP1 SWAP2 SUB SWAP1 RETURN JUMPDEST CALLVALUE DUP1 ISZERO PUSH2 0xB5 JUMPI PUSH0 DUP1 REVERT JUMPDEST POP PUSH2 0xBE PUSH2 0x259 JUMP JUMPDEST PUSH1 0x40 MLOAD PUSH2 0xCB SWAP2 SWAP1 PUSH2 0x5C1 JUMP JUMPDEST PUSH1 0x40 MLOAD DUP1 SWAP2 SUB SWAP1 RETURN JUMPDEST PUSH2 0xDC PUSH2 0x25E JUMP JUMPDEST STOP JUMPDEST CALLVALUE DUP1 ISZERO PUSH2 0xE9 JUMPI PUSH0 DUP1 REVERT JUMPDEST POP PUSH2 0x104 PUSH1 0x4 DUP1 CALLDATASIZE SUB DUP2 ADD SWAP1 PUSH2 0xFF SWAP2 SWAP1 PUSH2 0x604 JUMP JUMPDEST PUSH2 0x360 JUMP JUMPDEST PUSH1 0x40 MLOAD PUSH2 0x111 SWAP2 SWAP1 PUSH2 0x63E JUMP JUMPDEST PUSH1 0x40 MLOAD DUP1 SWAP2 SUB SWAP1 RETURN JUMPDEST CALLVALUE DUP1 ISZERO PUSH2 0x125 JUMPI PUSH0 DUP1 REVERT JUMPDEST POP PUSH2 0x12E PUSH2 0x39B JUMP JUMPDEST PUSH1 0x40 MLOAD PUSH2 0x13B SWAP2 SWAP1 PUSH2 0x5C1 JUMP JUMPDEST PUSH1 0x40 MLOAD DUP1 SWAP2 SUB SWAP1 RETURN JUMPDEST PUSH0 JUMPDEST PUSH1 0x2 DUP1 SLOAD SWAP1 POP DUP2 LT ISZERO PUSH2 0x1E2 JUMPI PUSH0 PUSH1 0x2 DUP3 DUP2 SLOAD DUP2 LT PUSH2 0x168 JUMPI PUSH2 0x167 PUSH2 0x657 JUMP JUMPDEST JUMPDEST SWAP1 PUSH0 MSTORE PUSH1 0x20 PUSH0 KECCAK256 ADD PUSH0 SWAP1 SLOAD SWAP1 PUSH2 0x100 EXP SWAP1 DIV PUSH20 0xFFFFFFFFFFFFFFFFFFFFFFFFFFFFFFFFFFFFFFFF AND SWAP1 POP PUSH0 PUSH1 0x3 PUSH0 DUP4 PUSH20 0xFFFFFFFFFFFFFFFFFFFFFFFFFFFFFFFFFFFFFFFF AND PUSH20 0xFFFFFFFFFFFFFFFFFFFFFFFFFFFFFFFFFFFFFFFF AND DUP2 MSTORE PUSH1 0x20 ADD SWAP1 DUP2 MSTORE PUSH1 0x20 ADD PUSH0 KECCAK256 DUP2 SWAP1 SSTORE POP POP DUP1 DUP1 PUSH1 0x1 ADD SWAP2 POP POP PUSH2 0x146 JUMP JUMPDEST POP PUSH0 PUSH8 0xFFFFFFFFFFFFFFFF DUP2 GT ISZERO PUSH2 0x1FD JUMPI PUSH2 0x1FC PUSH2 0x684 JUMP JUMPDEST JUMPDEST PUSH1 0x40 MLOAD SWAP1 DUP1 DUP3 MSTORE DUP1 PUSH1 0x20 MUL PUSH1 0x20 ADD DUP3 ADD PUSH1 0x40 MSTORE DUP1 ISZERO PUSH2 0x22B JUMPI DUP2 PUSH1 0x20 ADD PUSH1 0x20 DUP3 MUL DUP1 CALLDATASIZE DUP4 CALLDATACOPY DUP1 DUP3 ADD SWAP2 POP POP SWAP1 POP JUMPDEST POP PUSH1 0x2 SWAP1 DUP1 MLOAD SWAP1 PUSH1 0x20 ADD SWAP1 PUSH2 0x241 SWAP3 SWAP2 SWAP1 PUSH2 0x47E JUMP JUMPDEST POP JUMP JUMPDEST PUSH1 0x3 PUSH1 0x20 MSTORE DUP1 PUSH0 MSTORE PUSH1 0x40 PUSH0 KECCAK256 PUSH0 SWAP2 POP SWAP1 POP SLOAD DUP2 JUMP JUMPDEST PUSH0 SLOAD DUP2 JUMP JUMPDEST PUSH1 0x1 SLOAD PUSH2 0x26A CALLVALUE PUSH2 0x3A1 JUMP JUMPDEST LT ISZERO PUSH2 0x2AB JUMPI PUSH1 0x40 MLOAD PUSH32 0x8C379A000000000000000000000000000000000000000000000000000000000 DUP2 MSTORE PUSH1 0x4 ADD PUSH2 0x2A2 SWAP1 PUSH2 0x70B JUMP JUMPDEST PUSH1 0x40 MLOAD DUP1 SWAP2 SUB SWAP1 REVERT JUMPDEST PUSH1 0x2 CALLER SWAP1 DUP1 PUSH1 0x1 DUP2 SLOAD ADD DUP1 DUP3 SSTORE DUP1 SWAP2 POP POP PUSH1 0x1 SWAP1 SUB SWAP1 PUSH0 MSTORE PUSH1 0x20 PUSH0 KECCAK256 ADD PUSH0 SWAP1 SWAP2 SWAP1 SWAP2 SWAP1 SWAP2 PUSH2 0x100 EXP DUP2 SLOAD DUP2 PUSH20 0xFFFFFFFFFFFFFFFFFFFFFFFFFFFFFFFFFFFFFFFF MUL NOT AND SWAP1 DUP4 PUSH20 0xFFFFFFFFFFFFFFFFFFFFFFFFFFFFFFFFFFFFFFFF AND MUL OR SWAP1 SSTORE POP CALLVALUE PUSH1 0x3 PUSH0 CALLER PUSH20 0xFFFFFFFFFFFFFFFFFFFFFFFFFFFFFFFFFFFFFFFF AND PUSH20 0xFFFFFFFFFFFFFFFFFFFFFFFFFFFFFFFFFFFFFFFF AND DUP2 MSTORE PUSH1 0x20 ADD SWAP1 DUP2 MSTORE PUSH1 0x20 ADD PUSH0 KECCAK256 PUSH0 DUP3 DUP3 SLOAD PUSH2 0x357 SWAP2 SWAP1 PUSH2 0x756 JUMP JUMPDEST SWAP3 POP POP DUP2 SWAP1 SSTORE POP JUMP JUMPDEST PUSH1 0x2 DUP2 DUP2 SLOAD DUP2 LT PUSH2 0x36F JUMPI PUSH0 DUP1 REVERT JUMPDEST SWAP1 PUSH0 MSTORE PUSH1 0x20 PUSH0 KECCAK256 ADD PUSH0 SWAP2 POP SLOAD SWAP1 PUSH2 0x100 EXP SWAP1 DIV PUSH20 0xFFFFFFFFFFFFFFFFFFFFFFFFFFFFFFFFFFFFFFFF AND DUP2 JUMP JUMPDEST PUSH1 0x1 SLOAD DUP2 JUMP JUMPDEST PUSH0 DUP1 PUSH2 0x3AB PUSH2 0x3D9 JUMP JUMPDEST SWAP1 POP PUSH0 PUSH8 0xDE0B6B3A7640000 DUP3 DUP6 PUSH2 0x3C3 SWAP2 SWAP1 PUSH2 0x789 JUMP JUMPDEST PUSH2 0x3CD SWAP2 SWAP1 PUSH2 0x7F7 JUMP JUMPDEST SWAP1 POP DUP1 SWAP3 POP POP POP SWAP2 SWAP1 POP JUMP JUMPDEST PUSH0 DUP1 PUSH20 0x694AA1769357215DE4FAC081BF1F309ADC325306 SWAP1 POP PUSH0 DUP2 PUSH20 0xFFFFFFFFFFFFFFFFFFFFFFFFFFFFFFFFFFFFFFFF AND PUSH4 0xFEAF968C PUSH1 0x40 MLOAD DUP2 PUSH4 0xFFFFFFFF AND PUSH1 0xE0 SHL DUP2 MSTORE PUSH1 0x4 ADD PUSH1 0xA0 PUSH1 0x40 MLOAD DUP1 DUP4 SUB DUP2 DUP7 GAS STATICCALL ISZERO DUP1 ISZERO PUSH2 0x43C JUMPI RETURNDATASIZE PUSH0 DUP1 RETURNDATACOPY RETURNDATASIZE PUSH0 REVERT JUMPDEST POP POP POP POP PUSH1 0x40 MLOAD RETURNDATASIZE PUSH1 0x1F NOT PUSH1 0x1F DUP3 ADD AND DUP3 ADD DUP1 PUSH1 0x40 MSTORE POP DUP2 ADD SWAP1 PUSH2 0x460 SWAP2 SWAP1 PUSH2 0x8AD JUMP JUMPDEST POP POP POP SWAP2 POP POP PUSH5 0x2540BE400 DUP2 PUSH2 0x477 SWAP2 SWAP1 PUSH2 0x924 JUMP JUMPDEST SWAP3 POP POP POP SWAP1 JUMP JUMPDEST DUP3 DUP1 SLOAD DUP3 DUP3 SSTORE SWAP1 PUSH0 MSTORE PUSH1 0x20 PUSH0 KECCAK256 SWAP1 DUP2 ADD SWAP3 DUP3 ISZERO PUSH2 0x4F4 JUMPI SWAP2 PUSH1 0x20 MUL DUP3 ADD JUMPDEST DUP3 DUP2 GT ISZERO PUSH2 0x4F3 JUMPI DUP3 MLOAD DUP3 PUSH0 PUSH2 0x100 EXP DUP2 SLOAD DUP2 PUSH20 0xFFFFFFFFFFFFFFFFFFFFFFFFFFFFFFFFFFFFFFFF MUL NOT AND SWAP1 DUP4 PUSH20 0xFFFFFFFFFFFFFFFFFFFFFFFFFFFFFFFFFFFFFFFF AND MUL OR SWAP1 SSTORE POP SWAP2 PUSH1 0x20 ADD SWAP2 SWAP1 PUSH1 0x1 ADD SWAP1 PUSH2 0x49C JUMP JUMPDEST JUMPDEST POP SWAP1 POP PUSH2 0x501 SWAP2 SWAP1 PUSH2 0x505 JUMP JUMPDEST POP SWAP1 JUMP JUMPDEST JUMPDEST DUP1 DUP3 GT ISZERO PUSH2 0x51C JUMPI PUSH0 DUP2 PUSH0 SWAP1 SSTORE POP PUSH1 0x1 ADD PUSH2 0x506 JUMP JUMPDEST POP SWAP1 JUMP JUMPDEST PUSH0 DUP1 REVERT JUMPDEST PUSH0 PUSH20 0xFFFFFFFFFFFFFFFFFFFFFFFFFFFFFFFFFFFFFFFF DUP3 AND SWAP1 POP SWAP2 SWAP1 POP JUMP JUMPDEST PUSH0 PUSH2 0x54D DUP3 PUSH2 0x524 JUMP JUMPDEST SWAP1 POP SWAP2 SWAP1 POP JUMP JUMPDEST PUSH2 0x55D DUP2 PUSH2 0x543 JUMP JUMPDEST DUP2 EQ PUSH2 0x567 JUMPI PUSH0 DUP1 REVERT JUMPDEST POP JUMP JUMPDEST PUSH0 DUP2 CALLDATALOAD SWAP1 POP PUSH2 0x578 DUP2 PUSH2 0x554 JUMP JUMPDEST SWAP3 SWAP2 POP POP JUMP JUMPDEST PUSH0 PUSH1 0x20 DUP3 DUP5 SUB SLT ISZERO PUSH2 0x593 JUMPI PUSH2 0x592 PUSH2 0x520 JUMP JUMPDEST JUMPDEST PUSH0 PUSH2 0x5A0 DUP5 DUP3 DUP6 ADD PUSH2 0x56A JUMP JUMPDEST SWAP2 POP POP SWAP3 SWAP2 POP POP JUMP JUMPDEST PUSH0 DUP2 SWAP1 POP SWAP2 SWAP1 POP JUMP JUMPDEST PUSH2 0x5BB DUP2 PUSH2 0x5A9 JUMP JUMPDEST DUP3 MSTORE POP POP JUMP JUMPDEST PUSH0 PUSH1 0x20 DUP3 ADD SWAP1 POP PUSH2 0x5D4 PUSH0 DUP4 ADD DUP5 PUSH2 0x5B2 JUMP JUMPDEST SWAP3 SWAP2 POP POP JUMP JUMPDEST PUSH2 0x5E3 DUP2 PUSH2 0x5A9 JUMP JUMPDEST DUP2 EQ PUSH2 0x5ED JUMPI PUSH0 DUP1 REVERT JUMPDEST POP JUMP JUMPDEST PUSH0 DUP2 CALLDATALOAD SWAP1 POP PUSH2 0x5FE DUP2 PUSH2 0x5DA JUMP JUMPDEST SWAP3 SWAP2 POP POP JUMP JUMPDEST PUSH0 PUSH1 0x20 DUP3 DUP5 SUB SLT ISZERO PUSH2 0x619 JUMPI PUSH2 0x618 PUSH2 0x520 JUMP JUMPDEST JUMPDEST PUSH0 PUSH2 0x626 DUP5 DUP3 DUP6 ADD PUSH2 0x5F0 JUMP JUMPDEST SWAP2 POP POP SWAP3 SWAP2 POP POP JUMP JUMPDEST PUSH2 0x638 DUP2 PUSH2 0x543 JUMP JUMPDEST DUP3 MSTORE POP POP JUMP JUMPDEST PUSH0 PUSH1 0x20 DUP3 ADD SWAP1 POP PUSH2 0x651 PUSH0 DUP4 ADD DUP5 PUSH2 0x62F JUMP JUMPDEST SWAP3 SWAP2 POP POP JUMP JUMPDEST PUSH32 0x4E487B7100000000000000000000000000000000000000000000000000000000 PUSH0 MSTORE PUSH1 0x32 PUSH1 0x4 MSTORE PUSH1 0x24 PUSH0 REVERT JUMPDEST PUSH32 0x4E487B7100000000000000000000000000000000000000000000000000000000 PUSH0 MSTORE PUSH1 0x41 PUSH1 0x4 MSTORE PUSH1 0x24 PUSH0 REVERT JUMPDEST PUSH0 DUP3 DUP3 MSTORE PUSH1 0x20 DUP3 ADD SWAP1 POP SWAP3 SWAP2 POP POP JUMP JUMPDEST PUSH32 0x6469646E27742073656E6420656E6F7567682045544800000000000000000000 PUSH0 DUP3 ADD MSTORE POP JUMP JUMPDEST PUSH0 PUSH2 0x6F5 PUSH1 0x16 DUP4 PUSH2 0x6B1 JUMP JUMPDEST SWAP2 POP PUSH2 0x700 DUP3 PUSH2 0x6C1 JUMP JUMPDEST PUSH1 0x20 DUP3 ADD SWAP1 POP SWAP2 SWAP1 POP JUMP JUMPDEST PUSH0 PUSH1 0x20 DUP3 ADD SWAP1 POP DUP2 DUP2 SUB PUSH0 DUP4 ADD MSTORE PUSH2 0x722 DUP2 PUSH2 0x6E9 JUMP JUMPDEST SWAP1 POP SWAP2 SWAP1 POP JUMP JUMPDEST PUSH32 0x4E487B7100000000000000000000000000000000000000000000000000000000 PUSH0 MSTORE PUSH1 0x11 PUSH1 0x4 MSTORE PUSH1 0x24 PUSH0 REVERT JUMPDEST PUSH0 PUSH2 0x760 DUP3 PUSH2 0x5A9 JUMP JUMPDEST SWAP2 POP PUSH2 0x76B DUP4 PUSH2 0x5A9 JUMP JUMPDEST SWAP3 POP DUP3 DUP3 ADD SWAP1 POP DUP1 DUP3 GT ISZERO PUSH2 0x783 JUMPI PUSH2 0x782 PUSH2 0x729 JUMP JUMPDEST JUMPDEST SWAP3 SWAP2 POP POP JUMP JUMPDEST PUSH0 PUSH2 0x793 DUP3 PUSH2 0x5A9 JUMP JUMPDEST SWAP2 POP PUSH2 0x79E DUP4 PUSH2 0x5A9 JUMP JUMPDEST SWAP3 POP DUP3 DUP3 MUL PUSH2 0x7AC DUP2 PUSH2 0x5A9 JUMP JUMPDEST SWAP2 POP DUP3 DUP3 DIV DUP5 EQ DUP4 ISZERO OR PUSH2 0x7C3 JUMPI PUSH2 0x7C2 PUSH2 0x729 JUMP JUMPDEST JUMPDEST POP SWAP3 SWAP2 POP POP JUMP JUMPDEST PUSH32 0x4E487B7100000000000000000000000000000000000000000000000000000000 PUSH0 MSTORE PUSH1 0x12 PUSH1 0x4 MSTORE PUSH1 0x24 PUSH0 REVERT JUMPDEST PUSH0 PUSH2 0x801 DUP3 PUSH2 0x5A9 JUMP JUMPDEST SWAP2 POP PUSH2 0x80C DUP4 PUSH2 0x5A9 JUMP JUMPDEST SWAP3 POP DUP3 PUSH2 0x81C JUMPI PUSH2 0x81B PUSH2 0x7CA JUMP JUMPDEST JUMPDEST DUP3 DUP3 DIV SWAP1 POP SWAP3 SWAP2 POP POP JUMP JUMPDEST PUSH0 PUSH10 0xFFFFFFFFFFFFFFFFFFFF DUP3 AND SWAP1 POP SWAP2 SWAP1 POP JUMP JUMPDEST PUSH2 0x845 DUP2 PUSH2 0x827 JUMP JUMPDEST DUP2 EQ PUSH2 0x84F JUMPI PUSH0 DUP1 REVERT JUMPDEST POP JUMP JUMPDEST PUSH0 DUP2 MLOAD SWAP1 POP PUSH2 0x860 DUP2 PUSH2 0x83C JUMP JUMPDEST SWAP3 SWAP2 POP POP JUMP JUMPDEST PUSH0 DUP2 SWAP1 POP SWAP2 SWAP1 POP JUMP JUMPDEST PUSH2 0x878 DUP2 PUSH2 0x866 JUMP JUMPDEST DUP2 EQ PUSH2 0x882 JUMPI PUSH0 DUP1 REVERT JUMPDEST POP JUMP JUMPDEST PUSH0 DUP2 MLOAD SWAP1 POP PUSH2 0x893 DUP2 PUSH2 0x86F JUMP JUMPDEST SWAP3 SWAP2 POP POP JUMP JUMPDEST PUSH0 DUP2 MLOAD SWAP1 POP PUSH2 0x8A7 DUP2 PUSH2 0x5DA JUMP JUMPDEST SWAP3 SWAP2 POP POP JUMP JUMPDEST PUSH0 DUP1 PUSH0 DUP1 PUSH0 PUSH1 0xA0 DUP7 DUP9 SUB SLT ISZERO PUSH2 0x8C6 JUMPI PUSH2 0x8C5 PUSH2 0x520 JUMP JUMPDEST JUMPDEST PUSH0 PUSH2 0x8D3 DUP9 DUP3 DUP10 ADD PUSH2 0x852 JUMP JUMPDEST SWAP6 POP POP PUSH1 0x20 PUSH2 0x8E4 DUP9 DUP3 DUP10 ADD PUSH2 0x885 JUMP JUMPDEST SWAP5 POP POP PUSH1 0x40 PUSH2 0x8F5 DUP9 DUP3 DUP10 ADD PUSH2 0x899 JUMP JUMPDEST SWAP4 POP POP PUSH1 0x60 PUSH2 0x906 DUP9 DUP3 DUP10 ADD PUSH2 0x899 JUMP JUMPDEST SWAP3 POP POP PUSH1 0x80 PUSH2 0x917 DUP9 DUP3 DUP10 ADD PUSH2 0x852 JUMP JUMPDEST SWAP2 POP POP SWAP3 SWAP6 POP SWAP3 SWAP6 SWAP1 SWAP4 POP JUMP JUMPDEST PUSH0 PUSH2 0x92E DUP3 PUSH2 0x866 JUMP JUMPDEST SWAP2 POP PUSH2 0x939 DUP4 PUSH2 0x866 JUMP JUMPDEST SWAP3 POP DUP3 DUP3 MUL PUSH2 0x947 DUP2 PUSH2 0x866 JUMP JUMPDEST SWAP2 POP PUSH32 0x8000000000000000000000000000000000000000000000000000000000000000 DUP5 EQ PUSH0 DUP5 SLT AND ISZERO PUSH2 0x97E JUMPI PUSH2 0x97D PUSH2 0x729 JUMP JUMPDEST JUMPDEST DUP3 DUP3 SDIV DUP5 EQ DUP4 ISZERO OR PUSH2 0x993 JUMPI PUSH2 0x992 PUSH2 0x729 JUMP JUMPDEST JUMPDEST POP SWAP3 SWAP2 POP POP JUMP INVALID LOG2 PUSH5 0x6970667358 0x22 SLT KECCAK256 SWAP10 0x2B 0x2A 0xDA CALLDATACOPY 0x4D 0xCF PUSH28 0xB4CF81696021F875317FEEA39241DF44F5CF09A17076EA4264736F6C PUSH4 0x43000818 STOP CALLER "
				},
				"gasEstimates": {
					"creation": {
						"codeDepositCost": "502400",
						"executionCost": "44746",
						"totalCost": "547146"
					},
					"external": {
						"addressToAmountFunded(address)": "2802",
						"fund()": "infinite",
						"funders(uint256)": "5010",
						"minUSD()": "2513",
						"myValue()": "2446",
						"withdraw()": "infinite"
					}
				},
				"methodIdentifiers": {
					"addressToAmountFunded(address)": "3e47d6f3",
					"fund()": "b60d4288",
					"funders(uint256)": "dc0d3dff",
					"minUSD()": "dc992aa0",
					"myValue()": "47f1aae7",
					"withdraw()": "3ccfd60b"
				}
			},
			"storageLayout": {
				"storage": [
					{
						"astId": 55,
						"contract": "contracts/FundMe02.sol:FundMe",
						"label": "myValue",
						"offset": 0,
						"slot": "0",
						"type": "t_uint256"
					},
					{
						"astId": 63,
						"contract": "contracts/FundMe02.sol:FundMe",
						"label": "minUSD",
						"offset": 0,
						"slot": "1",
						"type": "t_uint256"
					},
					{
						"astId": 66,
						"contract": "contracts/FundMe02.sol:FundMe",
						"label": "funders",
						"offset": 0,
						"slot": "2",
						"type": "t_array(t_address)dyn_storage"
					},
					{
						"astId": 70,
						"contract": "contracts/FundMe02.sol:FundMe",
						"label": "addressToAmountFunded",
						"offset": 0,
						"slot": "3",
						"type": "t_mapping(t_address,t_uint256)"
					}
				],
				"types": {
					"t_address": {
						"encoding": "inplace",
						"label": "address",
						"numberOfBytes": "20"
					},
					"t_array(t_address)dyn_storage": {
						"base": "t_address",
						"encoding": "dynamic_array",
						"label": "address[]",
						"numberOfBytes": "32"
					},
					"t_mapping(t_address,t_uint256)": {
						"encoding": "mapping",
						"key": "t_address",
						"label": "mapping(address => uint256)",
						"numberOfBytes": "32",
						"value": "t_uint256"
					},
					"t_uint256": {
						"encoding": "inplace",
						"label": "uint256",
						"numberOfBytes": "32"
					}
				}
			},
			"userdoc": {
				"kind": "user",
				"methods": {},
				"version": 1
			}
		}
	}
}