{
	"contracts/FundMe03.sol": {
		"FundMe": {
			"abi": [
				{
					"inputs": [],
					"stateMutability": "nonpayable",
					"type": "constructor"
				},
				{
					"inputs": [],
					"name": "NotOwner",
					"type": "error"
				},
				{
					"stateMutability": "payable",
					"type": "fallback"
				},
				{
					"inputs": [],
					"name": "MINIMUM_USD",
					"outputs": [
						{
							"internalType": "uint256",
							"name": "",
							"type": "uint256"
						}
					],
					"stateMutability": "view",
					"type": "function"
				},
				{
					"inputs": [],
					"name": "MY_VALUE",
					"outputs": [
						{
							"internalType": "uint256",
							"name": "",
							"type": "uint256"
						}
					],
					"stateMutability": "view",
					"type": "function"
				},
				{
					"inputs": [
						{
							"internalType": "address",
							"name": "funder",
							"type": "address"
						}
					],
					"name": "addressToAmountFunded",
					"outputs": [
						{
							"internalType": "uint256",
							"name": "amountFunded",
							"type": "uint256"
						}
					],
					"stateMutability": "view",
					"type": "function"
				},
				{
					"inputs": [],
					"name": "fund",
					"outputs": [],
					"stateMutability": "payable",
					"type": "function"
				},
				{
					"inputs": [
						{
							"internalType": "uint256",
							"name": "",
							"type": "uint256"
						}
					],
					"name": "funders",
					"outputs": [
						{
							"internalType": "address",
							"name": "",
							"type": "address"
						}
					],
					"stateMutability": "view",
					"type": "function"
				},
				{
					"inputs": [],
					"name": "i_owner",
					"outputs": [
						{
							"internalType": "address",
							"name": "",
							"type": "address"
						}
					],
					"stateMutability": "view",
					"type": "function"
				},
				{
					"inputs": [],
					"name": "withdraw",
					"outputs": [],
					"stateMutability": "nonpayable",
					"type": "function"
				},
				{
					"stateMutability": "payable",
					"type": "receive"
				}
			],
			"devdoc": {
				"kind": "dev",
				"methods": {},
				"version": 1
			},
			"evm": {
				"assembly": "    /* \"contracts/FundMe03.sol\":436:1986  contract FundMe {... */\n  mstore(0x40, 0xa0)\n    /* \"contracts/FundMe03.sol\":787:831  constructor() {... */\n  callvalue\n  dup1\n  iszero\n  tag_1\n  jumpi\n  0x00\n  dup1\n  revert\ntag_1:\n  pop\n    /* \"contracts/FundMe03.sol\":817:827  msg.sender */\n  caller\n    /* \"contracts/FundMe03.sol\":807:827  i_owner = msg.sender */\n  0xffffffffffffffffffffffffffffffffffffffff\n  and\n  0x80\n  dup2\n  0xffffffffffffffffffffffffffffffffffffffff\n  and\n  dup2\n  mstore\n  pop\n  pop\n    /* \"contracts/FundMe03.sol\":436:1986  contract FundMe {... */\n  mload(0x80)\n  codecopy(0x00, dataOffset(sub_0), dataSize(sub_0))\n  0x00\n  assignImmutable(\"0x57014f1e5f1d53e43fa40624186159531d6372d1ab8f40ec7882845ca66de31d\")\n  return(0x00, dataSize(sub_0))\nstop\n\nsub_0: assembly {\n        /* \"contracts/FundMe03.sol\":436:1986  contract FundMe {... */\n      mstore(0x40, 0x80)\n      jumpi(tag_1, lt(calldatasize, 0x04))\n      shr(0xe0, calldataload(0x00))\n      dup1\n      0xb60d4288\n      gt\n      tag_10\n      jumpi\n      dup1\n      0xb60d4288\n      eq\n      tag_6\n      jumpi\n      dup1\n      0xdba6335f\n      eq\n      tag_7\n      jumpi\n      dup1\n      0xdc0d3dff\n      eq\n      tag_8\n      jumpi\n      dup1\n      0xf82585a4\n      eq\n      tag_9\n      jumpi\n      jump(tag_2)\n    tag_10:\n      dup1\n      0x3ccfd60b\n      eq\n      tag_3\n      jumpi\n      dup1\n      0x3e47d6f3\n      eq\n      tag_4\n      jumpi\n      dup1\n      0x6b69a592\n      eq\n      tag_5\n      jumpi\n      jump(tag_2)\n    tag_1:\n      jumpi(tag_2, calldatasize)\n        /* \"contracts/FundMe03.sol\":1861:1867  fund() */\n      tag_13\n        /* \"contracts/FundMe03.sol\":1861:1865  fund */\n      tag_14\n        /* \"contracts/FundMe03.sol\":1861:1867  fund() */\n      jump\t// in\n    tag_13:\n        /* \"contracts/FundMe03.sol\":436:1986  contract FundMe {... */\n      stop\n    tag_2:\n        /* \"contracts/FundMe03.sol\":1975:1981  fund() */\n      tag_17\n        /* \"contracts/FundMe03.sol\":1975:1979  fund */\n      tag_14\n        /* \"contracts/FundMe03.sol\":1975:1981  fund() */\n      jump\t// in\n    tag_17:\n        /* \"contracts/FundMe03.sol\":436:1986  contract FundMe {... */\n      stop\n        /* \"contracts/FundMe03.sol\":1040:1438  function withdraw() public onlyOwner {... */\n    tag_3:\n      callvalue\n      dup1\n      iszero\n      tag_18\n      jumpi\n      0x00\n      dup1\n      revert\n    tag_18:\n      pop\n      tag_19\n      tag_20\n      jump\t// in\n    tag_19:\n      stop\n        /* \"contracts/FundMe03.sol\":654:731  mapping(address funder => uint256 amountFunded ) public addressToAmountFunded */\n    tag_4:\n      callvalue\n      dup1\n      iszero\n      tag_21\n      jumpi\n      0x00\n      dup1\n      revert\n    tag_21:\n      pop\n      tag_22\n      0x04\n      dup1\n      calldatasize\n      sub\n      dup2\n      add\n      swap1\n      tag_23\n      swap2\n      swap1\n      tag_24\n      jump\t// in\n    tag_23:\n      tag_25\n      jump\t// in\n    tag_22:\n      mload(0x40)\n      tag_26\n      swap2\n      swap1\n      tag_27\n      jump\t// in\n    tag_26:\n      mload(0x40)\n      dup1\n      swap2\n      sub\n      swap1\n      return\n        /* \"contracts/FundMe03.sol\":553:605  uint256 public constant MINIMUM_USD = 5 * (10 ** 18) */\n    tag_5:\n      callvalue\n      dup1\n      iszero\n      tag_28\n      jumpi\n      0x00\n      dup1\n      revert\n    tag_28:\n      pop\n      tag_29\n      tag_30\n      jump\t// in\n    tag_29:\n      mload(0x40)\n      tag_31\n      swap2\n      swap1\n      tag_27\n      jump\t// in\n    tag_31:\n      mload(0x40)\n      dup1\n      swap2\n      sub\n      swap1\n      return\n        /* \"contracts/FundMe03.sol\":834:1037  function fund() public payable {... */\n    tag_6:\n      tag_32\n      tag_14\n      jump\t// in\n    tag_32:\n      stop\n        /* \"contracts/FundMe03.sol\":738:770  address public immutable i_owner */\n    tag_7:\n      callvalue\n      dup1\n      iszero\n      tag_33\n      jumpi\n      0x00\n      dup1\n      revert\n    tag_33:\n      pop\n      tag_34\n      tag_35\n      jump\t// in\n    tag_34:\n      mload(0x40)\n      tag_36\n      swap2\n      swap1\n      tag_37\n      jump\t// in\n    tag_36:\n      mload(0x40)\n      dup1\n      swap2\n      sub\n      swap1\n      return\n        /* \"contracts/FundMe03.sol\":624:648  address[] public funders */\n    tag_8:\n      callvalue\n      dup1\n      iszero\n      tag_38\n      jumpi\n      0x00\n      dup1\n      revert\n    tag_38:\n      pop\n      tag_39\n      0x04\n      dup1\n      calldatasize\n      sub\n      dup2\n      add\n      swap1\n      tag_40\n      swap2\n      swap1\n      tag_41\n      jump\t// in\n    tag_40:\n      tag_42\n      jump\t// in\n    tag_39:\n      mload(0x40)\n      tag_43\n      swap2\n      swap1\n      tag_37\n      jump\t// in\n    tag_43:\n      mload(0x40)\n      dup1\n      swap2\n      sub\n      swap1\n      return\n        /* \"contracts/FundMe03.sol\":498:535  uint256 public constant MY_VALUE = 10 */\n    tag_9:\n      callvalue\n      dup1\n      iszero\n      tag_44\n      jumpi\n      0x00\n      dup1\n      revert\n    tag_44:\n      pop\n      tag_45\n      tag_46\n      jump\t// in\n    tag_45:\n      mload(0x40)\n      tag_47\n      swap2\n      swap1\n      tag_27\n      jump\t// in\n    tag_47:\n      mload(0x40)\n      dup1\n      swap2\n      sub\n      swap1\n      return\n        /* \"contracts/FundMe03.sol\":834:1037  function fund() public payable {... */\n    tag_14:\n        /* \"contracts/FundMe03.sol\":591:605  5 * (10 ** 18) */\n      0x4563918244f40000\n        /* \"contracts/FundMe03.sol\":879:908  msg.value.getConvertionRate() */\n      tag_49\n        /* \"contracts/FundMe03.sol\":879:888  msg.value */\n      callvalue\n        /* \"contracts/FundMe03.sol\":879:906  msg.value.getConvertionRate */\n      tag_50\n        /* \"contracts/FundMe03.sol\":879:908  msg.value.getConvertionRate() */\n      jump\t// in\n    tag_49:\n        /* \"contracts/FundMe03.sol\":879:923  msg.value.getConvertionRate() >= MINIMUM_USD */\n      lt\n      iszero\n        /* \"contracts/FundMe03.sol\":871:950  require(msg.value.getConvertionRate() >= MINIMUM_USD, \"didn't send enough ETH\") */\n      tag_51\n      jumpi\n      mload(0x40)\n      0x08c379a000000000000000000000000000000000000000000000000000000000\n      dup2\n      mstore\n      0x04\n      add\n      tag_52\n      swap1\n      tag_53\n      jump\t// in\n    tag_52:\n      mload(0x40)\n      dup1\n      swap2\n      sub\n      swap1\n      revert\n    tag_51:\n        /* \"contracts/FundMe03.sol\":957:964  funders */\n      0x00\n        /* \"contracts/FundMe03.sol\":970:980  msg.sender */\n      caller\n        /* \"contracts/FundMe03.sol\":957:981  funders.push(msg.sender) */\n      swap1\n      dup1\n      0x01\n      dup2\n      sload\n      add\n      dup1\n      dup3\n      sstore\n      dup1\n      swap2\n      pop\n      pop\n      0x01\n      swap1\n      sub\n      swap1\n      0x00\n      mstore\n      keccak256(0x00, 0x20)\n      add\n      0x00\n      swap1\n      swap2\n      swap1\n      swap2\n      swap1\n      swap2\n      0x0100\n      exp\n      dup2\n      sload\n      dup2\n      0xffffffffffffffffffffffffffffffffffffffff\n      mul\n      not\n      and\n      swap1\n      dup4\n      0xffffffffffffffffffffffffffffffffffffffff\n      and\n      mul\n      or\n      swap1\n      sstore\n      pop\n        /* \"contracts/FundMe03.sol\":1024:1033  msg.value */\n      callvalue\n        /* \"contracts/FundMe03.sol\":987:1008  addressToAmountFunded */\n      0x01\n        /* \"contracts/FundMe03.sol\":987:1020  addressToAmountFunded[msg.sender] */\n      0x00\n        /* \"contracts/FundMe03.sol\":1009:1019  msg.sender */\n      caller\n        /* \"contracts/FundMe03.sol\":987:1020  addressToAmountFunded[msg.sender] */\n      0xffffffffffffffffffffffffffffffffffffffff\n      and\n      0xffffffffffffffffffffffffffffffffffffffff\n      and\n      dup2\n      mstore\n      0x20\n      add\n      swap1\n      dup2\n      mstore\n      0x20\n      add\n      0x00\n      keccak256\n      0x00\n        /* \"contracts/FundMe03.sol\":987:1033  addressToAmountFunded[msg.sender] += msg.value */\n      dup3\n      dup3\n      sload\n      tag_55\n      swap2\n      swap1\n      tag_56\n      jump\t// in\n    tag_55:\n      swap3\n      pop\n      pop\n      dup2\n      swap1\n      sstore\n      pop\n        /* \"contracts/FundMe03.sol\":834:1037  function fund() public payable {... */\n      jump\t// out\n        /* \"contracts/FundMe03.sol\":1040:1438  function withdraw() public onlyOwner {... */\n    tag_20:\n        /* \"contracts/FundMe03.sol\":1566:1573  i_owner */\n      immutable(\"0x57014f1e5f1d53e43fa40624186159531d6372d1ab8f40ec7882845ca66de31d\")\n        /* \"contracts/FundMe03.sol\":1552:1573  msg.sender != i_owner */\n      0xffffffffffffffffffffffffffffffffffffffff\n      and\n        /* \"contracts/FundMe03.sol\":1552:1562  msg.sender */\n      caller\n        /* \"contracts/FundMe03.sol\":1552:1573  msg.sender != i_owner */\n      0xffffffffffffffffffffffffffffffffffffffff\n      and\n      eq\n        /* \"contracts/FundMe03.sol\":1549:1597  if(msg.sender != i_owner) { revert NotOwner(); } */\n      tag_58\n      jumpi\n        /* \"contracts/FundMe03.sol\":1584:1594  NotOwner() */\n      mload(0x40)\n      0x30cd747100000000000000000000000000000000000000000000000000000000\n      dup2\n      mstore\n      0x04\n      add\n      mload(0x40)\n      dup1\n      swap2\n      sub\n      swap1\n      revert\n        /* \"contracts/FundMe03.sol\":1549:1597  if(msg.sender != i_owner) { revert NotOwner(); } */\n    tag_58:\n        /* \"contracts/FundMe03.sol\":1089:1108  uint256 funderIndex */\n      0x00\n        /* \"contracts/FundMe03.sol\":1084:1269  for (uint256 funderIndex = 0; funderIndex < funders.length; funderIndex++){... */\n    tag_60:\n        /* \"contracts/FundMe03.sol\":1128:1135  funders */\n      0x00\n        /* \"contracts/FundMe03.sol\":1128:1142  funders.length */\n      dup1\n      sload\n      swap1\n      pop\n        /* \"contracts/FundMe03.sol\":1114:1125  funderIndex */\n      dup2\n        /* \"contracts/FundMe03.sol\":1114:1142  funderIndex < funders.length */\n      lt\n        /* \"contracts/FundMe03.sol\":1084:1269  for (uint256 funderIndex = 0; funderIndex < funders.length; funderIndex++){... */\n      iszero\n      tag_61\n      jumpi\n        /* \"contracts/FundMe03.sol\":1168:1189  address funderAddress */\n      0x00\n        /* \"contracts/FundMe03.sol\":1192:1199  funders */\n      dup1\n        /* \"contracts/FundMe03.sol\":1200:1211  funderIndex */\n      dup3\n        /* \"contracts/FundMe03.sol\":1192:1212  funders[funderIndex] */\n      dup2\n      sload\n      dup2\n      lt\n      tag_63\n      jumpi\n      tag_64\n      tag_65\n      jump\t// in\n    tag_64:\n    tag_63:\n      swap1\n      0x00\n      mstore\n      keccak256(0x00, 0x20)\n      add\n      0x00\n      swap1\n      sload\n      swap1\n      0x0100\n      exp\n      swap1\n      div\n      0xffffffffffffffffffffffffffffffffffffffff\n      and\n        /* \"contracts/FundMe03.sol\":1168:1212  address funderAddress = funders[funderIndex] */\n      swap1\n      pop\n        /* \"contracts/FundMe03.sol\":1261:1262  0 */\n      0x00\n        /* \"contracts/FundMe03.sol\":1222:1243  addressToAmountFunded */\n      0x01\n        /* \"contracts/FundMe03.sol\":1222:1258  addressToAmountFunded[funderAddress] */\n      0x00\n        /* \"contracts/FundMe03.sol\":1244:1257  funderAddress */\n      dup4\n        /* \"contracts/FundMe03.sol\":1222:1258  addressToAmountFunded[funderAddress] */\n      0xffffffffffffffffffffffffffffffffffffffff\n      and\n      0xffffffffffffffffffffffffffffffffffffffff\n      and\n      dup2\n      mstore\n      0x20\n      add\n      swap1\n      dup2\n      mstore\n      0x20\n      add\n      0x00\n      keccak256\n        /* \"contracts/FundMe03.sol\":1222:1262  addressToAmountFunded[funderAddress] = 0 */\n      dup2\n      swap1\n      sstore\n      pop\n        /* \"contracts/FundMe03.sol\":1158:1269  {... */\n      pop\n        /* \"contracts/FundMe03.sol\":1144:1157  funderIndex++ */\n      dup1\n      dup1\n      0x01\n      add\n      swap2\n      pop\n      pop\n        /* \"contracts/FundMe03.sol\":1084:1269  for (uint256 funderIndex = 0; funderIndex < funders.length; funderIndex++){... */\n      jump(tag_60)\n    tag_61:\n      pop\n        /* \"contracts/FundMe03.sol\":1299:1300  0 */\n      0x00\n        /* \"contracts/FundMe03.sol\":1285:1301  new address[](0) */\n      0xffffffffffffffff\n      dup2\n      gt\n      iszero\n      tag_67\n      jumpi\n      tag_68\n      tag_69\n      jump\t// in\n    tag_68:\n    tag_67:\n      mload(0x40)\n      swap1\n      dup1\n      dup3\n      mstore\n      dup1\n      0x20\n      mul\n      0x20\n      add\n      dup3\n      add\n      0x40\n      mstore\n      dup1\n      iszero\n      tag_70\n      jumpi\n      dup2\n      0x20\n      add\n      0x20\n      dup3\n      mul\n      dup1\n      calldatasize\n      dup4\n      calldatacopy\n      dup1\n      dup3\n      add\n      swap2\n      pop\n      pop\n      swap1\n      pop\n    tag_70:\n      pop\n        /* \"contracts/FundMe03.sol\":1275:1282  funders */\n      0x00\n        /* \"contracts/FundMe03.sol\":1275:1301  funders = new address[](0) */\n      swap1\n      dup1\n      mload\n      swap1\n      0x20\n      add\n      swap1\n      tag_71\n      swap3\n      swap2\n      swap1\n      tag_72\n      jump\t// in\n    tag_71:\n      pop\n        /* \"contracts/FundMe03.sol\":1310:1326  bool callSuccess */\n      0x00\n        /* \"contracts/FundMe03.sol\":1340:1350  msg.sender */\n      caller\n        /* \"contracts/FundMe03.sol\":1332:1356  payable(msg.sender).call */\n      0xffffffffffffffffffffffffffffffffffffffff\n      and\n        /* \"contracts/FundMe03.sol\":1364:1385  address(this).balance */\n      selfbalance\n        /* \"contracts/FundMe03.sol\":1332:1390  payable(msg.sender).call{value: address(this).balance}(\"\") */\n      mload(0x40)\n      tag_73\n      swap1\n      tag_74\n      jump\t// in\n    tag_73:\n      0x00\n      mload(0x40)\n      dup1\n      dup4\n      sub\n      dup2\n      dup6\n      dup8\n      gas\n      call\n      swap3\n      pop\n      pop\n      pop\n      returndatasize\n      dup1\n      0x00\n      dup2\n      eq\n      tag_77\n      jumpi\n      mload(0x40)\n      swap2\n      pop\n      and(add(returndatasize, 0x3f), not(0x1f))\n      dup3\n      add\n      0x40\n      mstore\n      returndatasize\n      dup3\n      mstore\n      returndatasize\n      0x00\n      0x20\n      dup5\n      add\n      returndatacopy\n      jump(tag_76)\n    tag_77:\n      0x60\n      swap2\n      pop\n    tag_76:\n      pop\n        /* \"contracts/FundMe03.sol\":1309:1390  (bool callSuccess, ) = payable(msg.sender).call{value: address(this).balance}(\"\") */\n      pop\n      swap1\n      pop\n        /* \"contracts/FundMe03.sol\":1405:1416  callSuccess */\n      dup1\n        /* \"contracts/FundMe03.sol\":1397:1432  require(callSuccess, \"Call failed\") */\n      tag_78\n      jumpi\n      mload(0x40)\n      0x08c379a000000000000000000000000000000000000000000000000000000000\n      dup2\n      mstore\n      0x04\n      add\n      tag_79\n      swap1\n      tag_80\n      jump\t// in\n    tag_79:\n      mload(0x40)\n      dup1\n      swap2\n      sub\n      swap1\n      revert\n    tag_78:\n        /* \"contracts/FundMe03.sol\":1077:1438  {... */\n      pop\n        /* \"contracts/FundMe03.sol\":1040:1438  function withdraw() public onlyOwner {... */\n      jump\t// out\n        /* \"contracts/FundMe03.sol\":654:731  mapping(address funder => uint256 amountFunded ) public addressToAmountFunded */\n    tag_25:\n      mstore(0x20, 0x01)\n      dup1\n      0x00\n      mstore\n      keccak256(0x00, 0x40)\n      0x00\n      swap2\n      pop\n      swap1\n      pop\n      sload\n      dup2\n      jump\t// out\n        /* \"contracts/FundMe03.sol\":553:605  uint256 public constant MINIMUM_USD = 5 * (10 ** 18) */\n    tag_30:\n        /* \"contracts/FundMe03.sol\":591:605  5 * (10 ** 18) */\n      0x4563918244f40000\n        /* \"contracts/FundMe03.sol\":553:605  uint256 public constant MINIMUM_USD = 5 * (10 ** 18) */\n      dup2\n      jump\t// out\n        /* \"contracts/FundMe03.sol\":738:770  address public immutable i_owner */\n    tag_35:\n      immutable(\"0x57014f1e5f1d53e43fa40624186159531d6372d1ab8f40ec7882845ca66de31d\")\n      dup2\n      jump\t// out\n        /* \"contracts/FundMe03.sol\":624:648  address[] public funders */\n    tag_42:\n      0x00\n      dup2\n      dup2\n      sload\n      dup2\n      lt\n      tag_81\n      jumpi\n      0x00\n      dup1\n      revert\n    tag_81:\n      swap1\n      0x00\n      mstore\n      keccak256(0x00, 0x20)\n      add\n      0x00\n      swap2\n      pop\n      sload\n      swap1\n      0x0100\n      exp\n      swap1\n      div\n      0xffffffffffffffffffffffffffffffffffffffff\n      and\n      dup2\n      jump\t// out\n        /* \"contracts/FundMe03.sol\":498:535  uint256 public constant MY_VALUE = 10 */\n    tag_46:\n        /* \"contracts/FundMe03.sol\":533:535  10 */\n      0x0a\n        /* \"contracts/FundMe03.sol\":498:535  uint256 public constant MY_VALUE = 10 */\n      dup2\n      jump\t// out\n        /* \"contracts/PriceConverter.sol\":566:788  function getConvertionRate(uint256 _ethAmount) internal view returns(uint256) {... */\n    tag_50:\n        /* \"contracts/PriceConverter.sol\":635:642  uint256 */\n      0x00\n        /* \"contracts/PriceConverter.sol\":654:670  uint256 ethPrice */\n      dup1\n        /* \"contracts/PriceConverter.sol\":673:683  getPrice() */\n      tag_84\n        /* \"contracts/PriceConverter.sol\":673:681  getPrice */\n      tag_85\n        /* \"contracts/PriceConverter.sol\":673:683  getPrice() */\n      jump\t// in\n    tag_84:\n        /* \"contracts/PriceConverter.sol\":654:683  uint256 ethPrice = getPrice() */\n      swap1\n      pop\n        /* \"contracts/PriceConverter.sol\":693:715  uint256 ethAmountInUsd */\n      0x00\n        /* \"contracts/PriceConverter.sol\":744:748  1e18 */\n      0x0de0b6b3a7640000\n        /* \"contracts/PriceConverter.sol\":732:740  ethPrice */\n      dup3\n        /* \"contracts/PriceConverter.sol\":719:729  _ethAmount */\n      dup6\n        /* \"contracts/PriceConverter.sol\":719:740  _ethAmount * ethPrice */\n      tag_86\n      swap2\n      swap1\n      tag_87\n      jump\t// in\n    tag_86:\n        /* \"contracts/PriceConverter.sol\":718:748  (_ethAmount * ethPrice) / 1e18 */\n      tag_88\n      swap2\n      swap1\n      tag_89\n      jump\t// in\n    tag_88:\n        /* \"contracts/PriceConverter.sol\":693:748  uint256 ethAmountInUsd = (_ethAmount * ethPrice) / 1e18 */\n      swap1\n      pop\n        /* \"contracts/PriceConverter.sol\":766:780  ethAmountInUsd */\n      dup1\n        /* \"contracts/PriceConverter.sol\":759:780  return ethAmountInUsd */\n      swap3\n      pop\n      pop\n      pop\n        /* \"contracts/PriceConverter.sol\":566:788  function getConvertionRate(uint256 _ethAmount) internal view returns(uint256) {... */\n      swap2\n      swap1\n      pop\n      jump\t// out\n        /* \"contracts/PriceConverter.sol\":293:560  function getPrice() internal view returns (uint256) {... */\n    tag_85:\n        /* \"contracts/PriceConverter.sol\":336:343  uint256 */\n      0x00\n        /* \"contracts/PriceConverter.sol\":355:386  AggregatorV3Interface pricefeed */\n      dup1\n        /* \"contracts/PriceConverter.sol\":411:453  0x694AA1769357215DE4FAC081bf1f309aDC325306 */\n      0x694aa1769357215de4fac081bf1f309adc325306\n        /* \"contracts/PriceConverter.sol\":355:454  AggregatorV3Interface pricefeed = AggregatorV3Interface(0x694AA1769357215DE4FAC081bf1f309aDC325306) */\n      swap1\n      pop\n        /* \"contracts/PriceConverter.sol\":467:477  int answer */\n      0x00\n        /* \"contracts/PriceConverter.sol\":486:495  pricefeed */\n      dup2\n        /* \"contracts/PriceConverter.sol\":486:511  pricefeed.latestRoundData */\n      0xffffffffffffffffffffffffffffffffffffffff\n      and\n      0xfeaf968c\n        /* \"contracts/PriceConverter.sol\":486:513  pricefeed.latestRoundData() */\n      mload(0x40)\n      dup2\n      0xffffffff\n      and\n      0xe0\n      shl\n      dup2\n      mstore\n      0x04\n      add\n      0xa0\n      mload(0x40)\n      dup1\n      dup4\n      sub\n      dup2\n      dup7\n      gas\n      staticcall\n      iszero\n      dup1\n      iszero\n      tag_92\n      jumpi\n      returndatasize\n      0x00\n      dup1\n      returndatacopy\n      revert(0x00, returndatasize)\n    tag_92:\n      pop\n      pop\n      pop\n      pop\n      mload(0x40)\n      returndatasize\n      not(0x1f)\n      0x1f\n      dup3\n      add\n      and\n      dup3\n      add\n      dup1\n      0x40\n      mstore\n      pop\n      dup2\n      add\n      swap1\n      tag_93\n      swap2\n      swap1\n      tag_94\n      jump\t// in\n    tag_93:\n        /* \"contracts/PriceConverter.sol\":464:513  (, int answer, , ,) = pricefeed.latestRoundData() */\n      pop\n      pop\n      pop\n      swap2\n      pop\n      pop\n        /* \"contracts/PriceConverter.sol\":548:552  1e10 */\n      0x02540be400\n        /* \"contracts/PriceConverter.sol\":539:545  answer */\n      dup2\n        /* \"contracts/PriceConverter.sol\":539:552  answer * 1e10 */\n      tag_95\n      swap2\n      swap1\n      tag_96\n      jump\t// in\n    tag_95:\n        /* \"contracts/PriceConverter.sol\":524:553  return uint256(answer * 1e10) */\n      swap3\n      pop\n      pop\n      pop\n        /* \"contracts/PriceConverter.sol\":293:560  function getPrice() internal view returns (uint256) {... */\n      swap1\n      jump\t// out\n    tag_72:\n      dup3\n      dup1\n      sload\n      dup3\n      dup3\n      sstore\n      swap1\n      0x00\n      mstore\n      keccak256(0x00, 0x20)\n      swap1\n      dup2\n      add\n      swap3\n      dup3\n      iszero\n      tag_97\n      jumpi\n      swap2\n      0x20\n      mul\n      dup3\n      add\n    tag_98:\n      dup3\n      dup2\n      gt\n      iszero\n      tag_99\n      jumpi\n      dup3\n      mload\n      dup3\n      exp(0x0100, 0x00)\n      dup2\n      sload\n      dup2\n      0xffffffffffffffffffffffffffffffffffffffff\n      mul\n      not\n      and\n      swap1\n      dup4\n      0xffffffffffffffffffffffffffffffffffffffff\n      and\n      mul\n      or\n      swap1\n      sstore\n      pop\n      swap2\n      0x20\n      add\n      swap2\n      swap1\n      0x01\n      add\n      swap1\n      jump(tag_98)\n    tag_99:\n    tag_97:\n      pop\n      swap1\n      pop\n      tag_100\n      swap2\n      swap1\n      tag_101\n      jump\t// in\n    tag_100:\n      pop\n      swap1\n      jump\t// out\n    tag_101:\n    tag_102:\n      dup1\n      dup3\n      gt\n      iszero\n      tag_103\n      jumpi\n      0x00\n      dup2\n      0x00\n      swap1\n      sstore\n      pop\n      0x01\n      add\n      jump(tag_102)\n    tag_103:\n      pop\n      swap1\n      jump\t// out\n        /* \"#utility.yul\":88:205   */\n    tag_105:\n        /* \"#utility.yul\":197:198   */\n      0x00\n        /* \"#utility.yul\":194:195   */\n      dup1\n        /* \"#utility.yul\":187:199   */\n      revert\n        /* \"#utility.yul\":334:460   */\n    tag_107:\n        /* \"#utility.yul\":371:378   */\n      0x00\n        /* \"#utility.yul\":411:453   */\n      0xffffffffffffffffffffffffffffffffffffffff\n        /* \"#utility.yul\":404:409   */\n      dup3\n        /* \"#utility.yul\":400:454   */\n      and\n        /* \"#utility.yul\":389:454   */\n      swap1\n      pop\n        /* \"#utility.yul\":334:460   */\n      swap2\n      swap1\n      pop\n      jump\t// out\n        /* \"#utility.yul\":466:562   */\n    tag_108:\n        /* \"#utility.yul\":503:510   */\n      0x00\n        /* \"#utility.yul\":532:556   */\n      tag_139\n        /* \"#utility.yul\":550:555   */\n      dup3\n        /* \"#utility.yul\":532:556   */\n      tag_107\n      jump\t// in\n    tag_139:\n        /* \"#utility.yul\":521:556   */\n      swap1\n      pop\n        /* \"#utility.yul\":466:562   */\n      swap2\n      swap1\n      pop\n      jump\t// out\n        /* \"#utility.yul\":568:690   */\n    tag_109:\n        /* \"#utility.yul\":641:665   */\n      tag_141\n        /* \"#utility.yul\":659:664   */\n      dup2\n        /* \"#utility.yul\":641:665   */\n      tag_108\n      jump\t// in\n    tag_141:\n        /* \"#utility.yul\":634:639   */\n      dup2\n        /* \"#utility.yul\":631:666   */\n      eq\n        /* \"#utility.yul\":621:684   */\n      tag_142\n      jumpi\n        /* \"#utility.yul\":680:681   */\n      0x00\n        /* \"#utility.yul\":677:678   */\n      dup1\n        /* \"#utility.yul\":670:682   */\n      revert\n        /* \"#utility.yul\":621:684   */\n    tag_142:\n        /* \"#utility.yul\":568:690   */\n      pop\n      jump\t// out\n        /* \"#utility.yul\":696:835   */\n    tag_110:\n        /* \"#utility.yul\":742:747   */\n      0x00\n        /* \"#utility.yul\":780:786   */\n      dup2\n        /* \"#utility.yul\":767:787   */\n      calldataload\n        /* \"#utility.yul\":758:787   */\n      swap1\n      pop\n        /* \"#utility.yul\":796:829   */\n      tag_144\n        /* \"#utility.yul\":823:828   */\n      dup2\n        /* \"#utility.yul\":796:829   */\n      tag_109\n      jump\t// in\n    tag_144:\n        /* \"#utility.yul\":696:835   */\n      swap3\n      swap2\n      pop\n      pop\n      jump\t// out\n        /* \"#utility.yul\":841:1170   */\n    tag_24:\n        /* \"#utility.yul\":900:906   */\n      0x00\n        /* \"#utility.yul\":949:951   */\n      0x20\n        /* \"#utility.yul\":937:946   */\n      dup3\n        /* \"#utility.yul\":928:935   */\n      dup5\n        /* \"#utility.yul\":924:947   */\n      sub\n        /* \"#utility.yul\":920:952   */\n      slt\n        /* \"#utility.yul\":917:1036   */\n      iszero\n      tag_146\n      jumpi\n        /* \"#utility.yul\":955:1034   */\n      tag_147\n      tag_105\n      jump\t// in\n    tag_147:\n        /* \"#utility.yul\":917:1036   */\n    tag_146:\n        /* \"#utility.yul\":1075:1076   */\n      0x00\n        /* \"#utility.yul\":1100:1153   */\n      tag_148\n        /* \"#utility.yul\":1145:1152   */\n      dup5\n        /* \"#utility.yul\":1136:1142   */\n      dup3\n        /* \"#utility.yul\":1125:1134   */\n      dup6\n        /* \"#utility.yul\":1121:1143   */\n      add\n        /* \"#utility.yul\":1100:1153   */\n      tag_110\n      jump\t// in\n    tag_148:\n        /* \"#utility.yul\":1090:1153   */\n      swap2\n      pop\n        /* \"#utility.yul\":1046:1163   */\n      pop\n        /* \"#utility.yul\":841:1170   */\n      swap3\n      swap2\n      pop\n      pop\n      jump\t// out\n        /* \"#utility.yul\":1176:1253   */\n    tag_111:\n        /* \"#utility.yul\":1213:1220   */\n      0x00\n        /* \"#utility.yul\":1242:1247   */\n      dup2\n        /* \"#utility.yul\":1231:1247   */\n      swap1\n      pop\n        /* \"#utility.yul\":1176:1253   */\n      swap2\n      swap1\n      pop\n      jump\t// out\n        /* \"#utility.yul\":1259:1377   */\n    tag_112:\n        /* \"#utility.yul\":1346:1370   */\n      tag_151\n        /* \"#utility.yul\":1364:1369   */\n      dup2\n        /* \"#utility.yul\":1346:1370   */\n      tag_111\n      jump\t// in\n    tag_151:\n        /* \"#utility.yul\":1341:1344   */\n      dup3\n        /* \"#utility.yul\":1334:1371   */\n      mstore\n        /* \"#utility.yul\":1259:1377   */\n      pop\n      pop\n      jump\t// out\n        /* \"#utility.yul\":1383:1605   */\n    tag_27:\n        /* \"#utility.yul\":1476:1480   */\n      0x00\n        /* \"#utility.yul\":1514:1516   */\n      0x20\n        /* \"#utility.yul\":1503:1512   */\n      dup3\n        /* \"#utility.yul\":1499:1517   */\n      add\n        /* \"#utility.yul\":1491:1517   */\n      swap1\n      pop\n        /* \"#utility.yul\":1527:1598   */\n      tag_153\n        /* \"#utility.yul\":1595:1596   */\n      0x00\n        /* \"#utility.yul\":1584:1593   */\n      dup4\n        /* \"#utility.yul\":1580:1597   */\n      add\n        /* \"#utility.yul\":1571:1577   */\n      dup5\n        /* \"#utility.yul\":1527:1598   */\n      tag_112\n      jump\t// in\n    tag_153:\n        /* \"#utility.yul\":1383:1605   */\n      swap3\n      swap2\n      pop\n      pop\n      jump\t// out\n        /* \"#utility.yul\":1611:1729   */\n    tag_113:\n        /* \"#utility.yul\":1698:1722   */\n      tag_155\n        /* \"#utility.yul\":1716:1721   */\n      dup2\n        /* \"#utility.yul\":1698:1722   */\n      tag_108\n      jump\t// in\n    tag_155:\n        /* \"#utility.yul\":1693:1696   */\n      dup3\n        /* \"#utility.yul\":1686:1723   */\n      mstore\n        /* \"#utility.yul\":1611:1729   */\n      pop\n      pop\n      jump\t// out\n        /* \"#utility.yul\":1735:1957   */\n    tag_37:\n        /* \"#utility.yul\":1828:1832   */\n      0x00\n        /* \"#utility.yul\":1866:1868   */\n      0x20\n        /* \"#utility.yul\":1855:1864   */\n      dup3\n        /* \"#utility.yul\":1851:1869   */\n      add\n        /* \"#utility.yul\":1843:1869   */\n      swap1\n      pop\n        /* \"#utility.yul\":1879:1950   */\n      tag_157\n        /* \"#utility.yul\":1947:1948   */\n      0x00\n        /* \"#utility.yul\":1936:1945   */\n      dup4\n        /* \"#utility.yul\":1932:1949   */\n      add\n        /* \"#utility.yul\":1923:1929   */\n      dup5\n        /* \"#utility.yul\":1879:1950   */\n      tag_113\n      jump\t// in\n    tag_157:\n        /* \"#utility.yul\":1735:1957   */\n      swap3\n      swap2\n      pop\n      pop\n      jump\t// out\n        /* \"#utility.yul\":1963:2085   */\n    tag_114:\n        /* \"#utility.yul\":2036:2060   */\n      tag_159\n        /* \"#utility.yul\":2054:2059   */\n      dup2\n        /* \"#utility.yul\":2036:2060   */\n      tag_111\n      jump\t// in\n    tag_159:\n        /* \"#utility.yul\":2029:2034   */\n      dup2\n        /* \"#utility.yul\":2026:2061   */\n      eq\n        /* \"#utility.yul\":2016:2079   */\n      tag_160\n      jumpi\n        /* \"#utility.yul\":2075:2076   */\n      0x00\n        /* \"#utility.yul\":2072:2073   */\n      dup1\n        /* \"#utility.yul\":2065:2077   */\n      revert\n        /* \"#utility.yul\":2016:2079   */\n    tag_160:\n        /* \"#utility.yul\":1963:2085   */\n      pop\n      jump\t// out\n        /* \"#utility.yul\":2091:2230   */\n    tag_115:\n        /* \"#utility.yul\":2137:2142   */\n      0x00\n        /* \"#utility.yul\":2175:2181   */\n      dup2\n        /* \"#utility.yul\":2162:2182   */\n      calldataload\n        /* \"#utility.yul\":2153:2182   */\n      swap1\n      pop\n        /* \"#utility.yul\":2191:2224   */\n      tag_162\n        /* \"#utility.yul\":2218:2223   */\n      dup2\n        /* \"#utility.yul\":2191:2224   */\n      tag_114\n      jump\t// in\n    tag_162:\n        /* \"#utility.yul\":2091:2230   */\n      swap3\n      swap2\n      pop\n      pop\n      jump\t// out\n        /* \"#utility.yul\":2236:2565   */\n    tag_41:\n        /* \"#utility.yul\":2295:2301   */\n      0x00\n        /* \"#utility.yul\":2344:2346   */\n      0x20\n        /* \"#utility.yul\":2332:2341   */\n      dup3\n        /* \"#utility.yul\":2323:2330   */\n      dup5\n        /* \"#utility.yul\":2319:2342   */\n      sub\n        /* \"#utility.yul\":2315:2347   */\n      slt\n        /* \"#utility.yul\":2312:2431   */\n      iszero\n      tag_164\n      jumpi\n        /* \"#utility.yul\":2350:2429   */\n      tag_165\n      tag_105\n      jump\t// in\n    tag_165:\n        /* \"#utility.yul\":2312:2431   */\n    tag_164:\n        /* \"#utility.yul\":2470:2471   */\n      0x00\n        /* \"#utility.yul\":2495:2548   */\n      tag_166\n        /* \"#utility.yul\":2540:2547   */\n      dup5\n        /* \"#utility.yul\":2531:2537   */\n      dup3\n        /* \"#utility.yul\":2520:2529   */\n      dup6\n        /* \"#utility.yul\":2516:2538   */\n      add\n        /* \"#utility.yul\":2495:2548   */\n      tag_115\n      jump\t// in\n    tag_166:\n        /* \"#utility.yul\":2485:2548   */\n      swap2\n      pop\n        /* \"#utility.yul\":2441:2558   */\n      pop\n        /* \"#utility.yul\":2236:2565   */\n      swap3\n      swap2\n      pop\n      pop\n      jump\t// out\n        /* \"#utility.yul\":2571:2740   */\n    tag_116:\n        /* \"#utility.yul\":2655:2666   */\n      0x00\n        /* \"#utility.yul\":2689:2695   */\n      dup3\n        /* \"#utility.yul\":2684:2687   */\n      dup3\n        /* \"#utility.yul\":2677:2696   */\n      mstore\n        /* \"#utility.yul\":2729:2733   */\n      0x20\n        /* \"#utility.yul\":2724:2727   */\n      dup3\n        /* \"#utility.yul\":2720:2734   */\n      add\n        /* \"#utility.yul\":2705:2734   */\n      swap1\n      pop\n        /* \"#utility.yul\":2571:2740   */\n      swap3\n      swap2\n      pop\n      pop\n      jump\t// out\n        /* \"#utility.yul\":2746:2918   */\n    tag_117:\n        /* \"#utility.yul\":2886:2910   */\n      0x6469646e27742073656e6420656e6f7567682045544800000000000000000000\n        /* \"#utility.yul\":2882:2883   */\n      0x00\n        /* \"#utility.yul\":2874:2880   */\n      dup3\n        /* \"#utility.yul\":2870:2884   */\n      add\n        /* \"#utility.yul\":2863:2911   */\n      mstore\n        /* \"#utility.yul\":2746:2918   */\n      pop\n      jump\t// out\n        /* \"#utility.yul\":2924:3290   */\n    tag_118:\n        /* \"#utility.yul\":3066:3069   */\n      0x00\n        /* \"#utility.yul\":3087:3154   */\n      tag_170\n        /* \"#utility.yul\":3151:3153   */\n      0x16\n        /* \"#utility.yul\":3146:3149   */\n      dup4\n        /* \"#utility.yul\":3087:3154   */\n      tag_116\n      jump\t// in\n    tag_170:\n        /* \"#utility.yul\":3080:3154   */\n      swap2\n      pop\n        /* \"#utility.yul\":3163:3256   */\n      tag_171\n        /* \"#utility.yul\":3252:3255   */\n      dup3\n        /* \"#utility.yul\":3163:3256   */\n      tag_117\n      jump\t// in\n    tag_171:\n        /* \"#utility.yul\":3281:3283   */\n      0x20\n        /* \"#utility.yul\":3276:3279   */\n      dup3\n        /* \"#utility.yul\":3272:3284   */\n      add\n        /* \"#utility.yul\":3265:3284   */\n      swap1\n      pop\n        /* \"#utility.yul\":2924:3290   */\n      swap2\n      swap1\n      pop\n      jump\t// out\n        /* \"#utility.yul\":3296:3715   */\n    tag_53:\n        /* \"#utility.yul\":3462:3466   */\n      0x00\n        /* \"#utility.yul\":3500:3502   */\n      0x20\n        /* \"#utility.yul\":3489:3498   */\n      dup3\n        /* \"#utility.yul\":3485:3503   */\n      add\n        /* \"#utility.yul\":3477:3503   */\n      swap1\n      pop\n        /* \"#utility.yul\":3549:3558   */\n      dup2\n        /* \"#utility.yul\":3543:3547   */\n      dup2\n        /* \"#utility.yul\":3539:3559   */\n      sub\n        /* \"#utility.yul\":3535:3536   */\n      0x00\n        /* \"#utility.yul\":3524:3533   */\n      dup4\n        /* \"#utility.yul\":3520:3537   */\n      add\n        /* \"#utility.yul\":3513:3560   */\n      mstore\n        /* \"#utility.yul\":3577:3708   */\n      tag_173\n        /* \"#utility.yul\":3703:3707   */\n      dup2\n        /* \"#utility.yul\":3577:3708   */\n      tag_118\n      jump\t// in\n    tag_173:\n        /* \"#utility.yul\":3569:3708   */\n      swap1\n      pop\n        /* \"#utility.yul\":3296:3715   */\n      swap2\n      swap1\n      pop\n      jump\t// out\n        /* \"#utility.yul\":3721:3901   */\n    tag_119:\n        /* \"#utility.yul\":3769:3846   */\n      0x4e487b7100000000000000000000000000000000000000000000000000000000\n        /* \"#utility.yul\":3766:3767   */\n      0x00\n        /* \"#utility.yul\":3759:3847   */\n      mstore\n        /* \"#utility.yul\":3866:3870   */\n      0x11\n        /* \"#utility.yul\":3863:3864   */\n      0x04\n        /* \"#utility.yul\":3856:3871   */\n      mstore\n        /* \"#utility.yul\":3890:3894   */\n      0x24\n        /* \"#utility.yul\":3887:3888   */\n      0x00\n        /* \"#utility.yul\":3880:3895   */\n      revert\n        /* \"#utility.yul\":3907:4098   */\n    tag_56:\n        /* \"#utility.yul\":3947:3950   */\n      0x00\n        /* \"#utility.yul\":3966:3986   */\n      tag_176\n        /* \"#utility.yul\":3984:3985   */\n      dup3\n        /* \"#utility.yul\":3966:3986   */\n      tag_111\n      jump\t// in\n    tag_176:\n        /* \"#utility.yul\":3961:3986   */\n      swap2\n      pop\n        /* \"#utility.yul\":4000:4020   */\n      tag_177\n        /* \"#utility.yul\":4018:4019   */\n      dup4\n        /* \"#utility.yul\":4000:4020   */\n      tag_111\n      jump\t// in\n    tag_177:\n        /* \"#utility.yul\":3995:4020   */\n      swap3\n      pop\n        /* \"#utility.yul\":4043:4044   */\n      dup3\n        /* \"#utility.yul\":4040:4041   */\n      dup3\n        /* \"#utility.yul\":4036:4045   */\n      add\n        /* \"#utility.yul\":4029:4045   */\n      swap1\n      pop\n        /* \"#utility.yul\":4064:4067   */\n      dup1\n        /* \"#utility.yul\":4061:4062   */\n      dup3\n        /* \"#utility.yul\":4058:4068   */\n      gt\n        /* \"#utility.yul\":4055:4091   */\n      iszero\n      tag_178\n      jumpi\n        /* \"#utility.yul\":4071:4089   */\n      tag_179\n      tag_119\n      jump\t// in\n    tag_179:\n        /* \"#utility.yul\":4055:4091   */\n    tag_178:\n        /* \"#utility.yul\":3907:4098   */\n      swap3\n      swap2\n      pop\n      pop\n      jump\t// out\n        /* \"#utility.yul\":4104:4284   */\n    tag_65:\n        /* \"#utility.yul\":4152:4229   */\n      0x4e487b7100000000000000000000000000000000000000000000000000000000\n        /* \"#utility.yul\":4149:4150   */\n      0x00\n        /* \"#utility.yul\":4142:4230   */\n      mstore\n        /* \"#utility.yul\":4249:4253   */\n      0x32\n        /* \"#utility.yul\":4246:4247   */\n      0x04\n        /* \"#utility.yul\":4239:4254   */\n      mstore\n        /* \"#utility.yul\":4273:4277   */\n      0x24\n        /* \"#utility.yul\":4270:4271   */\n      0x00\n        /* \"#utility.yul\":4263:4278   */\n      revert\n        /* \"#utility.yul\":4290:4470   */\n    tag_69:\n        /* \"#utility.yul\":4338:4415   */\n      0x4e487b7100000000000000000000000000000000000000000000000000000000\n        /* \"#utility.yul\":4335:4336   */\n      0x00\n        /* \"#utility.yul\":4328:4416   */\n      mstore\n        /* \"#utility.yul\":4435:4439   */\n      0x41\n        /* \"#utility.yul\":4432:4433   */\n      0x04\n        /* \"#utility.yul\":4425:4440   */\n      mstore\n        /* \"#utility.yul\":4459:4463   */\n      0x24\n        /* \"#utility.yul\":4456:4457   */\n      0x00\n        /* \"#utility.yul\":4449:4464   */\n      revert\n        /* \"#utility.yul\":4476:4623   */\n    tag_120:\n        /* \"#utility.yul\":4577:4588   */\n      0x00\n        /* \"#utility.yul\":4614:4617   */\n      dup2\n        /* \"#utility.yul\":4599:4617   */\n      swap1\n      pop\n        /* \"#utility.yul\":4476:4623   */\n      swap3\n      swap2\n      pop\n      pop\n      jump\t// out\n        /* \"#utility.yul\":4629:4743   */\n    tag_121:\n      pop\n      jump\t// out\n        /* \"#utility.yul\":4749:5147   */\n    tag_122:\n        /* \"#utility.yul\":4908:4911   */\n      0x00\n        /* \"#utility.yul\":4929:5012   */\n      tag_185\n        /* \"#utility.yul\":5010:5011   */\n      0x00\n        /* \"#utility.yul\":5005:5008   */\n      dup4\n        /* \"#utility.yul\":4929:5012   */\n      tag_120\n      jump\t// in\n    tag_185:\n        /* \"#utility.yul\":4922:5012   */\n      swap2\n      pop\n        /* \"#utility.yul\":5021:5114   */\n      tag_186\n        /* \"#utility.yul\":5110:5113   */\n      dup3\n        /* \"#utility.yul\":5021:5114   */\n      tag_121\n      jump\t// in\n    tag_186:\n        /* \"#utility.yul\":5139:5140   */\n      0x00\n        /* \"#utility.yul\":5134:5137   */\n      dup3\n        /* \"#utility.yul\":5130:5141   */\n      add\n        /* \"#utility.yul\":5123:5141   */\n      swap1\n      pop\n        /* \"#utility.yul\":4749:5147   */\n      swap2\n      swap1\n      pop\n      jump\t// out\n        /* \"#utility.yul\":5153:5532   */\n    tag_74:\n        /* \"#utility.yul\":5337:5340   */\n      0x00\n        /* \"#utility.yul\":5359:5506   */\n      tag_188\n        /* \"#utility.yul\":5502:5505   */\n      dup3\n        /* \"#utility.yul\":5359:5506   */\n      tag_122\n      jump\t// in\n    tag_188:\n        /* \"#utility.yul\":5352:5506   */\n      swap2\n      pop\n        /* \"#utility.yul\":5523:5526   */\n      dup2\n        /* \"#utility.yul\":5516:5526   */\n      swap1\n      pop\n        /* \"#utility.yul\":5153:5532   */\n      swap2\n      swap1\n      pop\n      jump\t// out\n        /* \"#utility.yul\":5538:5699   */\n    tag_123:\n        /* \"#utility.yul\":5678:5691   */\n      0x43616c6c206661696c6564000000000000000000000000000000000000000000\n        /* \"#utility.yul\":5674:5675   */\n      0x00\n        /* \"#utility.yul\":5666:5672   */\n      dup3\n        /* \"#utility.yul\":5662:5676   */\n      add\n        /* \"#utility.yul\":5655:5692   */\n      mstore\n        /* \"#utility.yul\":5538:5699   */\n      pop\n      jump\t// out\n        /* \"#utility.yul\":5705:6071   */\n    tag_124:\n        /* \"#utility.yul\":5847:5850   */\n      0x00\n        /* \"#utility.yul\":5868:5935   */\n      tag_191\n        /* \"#utility.yul\":5932:5934   */\n      0x0b\n        /* \"#utility.yul\":5927:5930   */\n      dup4\n        /* \"#utility.yul\":5868:5935   */\n      tag_116\n      jump\t// in\n    tag_191:\n        /* \"#utility.yul\":5861:5935   */\n      swap2\n      pop\n        /* \"#utility.yul\":5944:6037   */\n      tag_192\n        /* \"#utility.yul\":6033:6036   */\n      dup3\n        /* \"#utility.yul\":5944:6037   */\n      tag_123\n      jump\t// in\n    tag_192:\n        /* \"#utility.yul\":6062:6064   */\n      0x20\n        /* \"#utility.yul\":6057:6060   */\n      dup3\n        /* \"#utility.yul\":6053:6065   */\n      add\n        /* \"#utility.yul\":6046:6065   */\n      swap1\n      pop\n        /* \"#utility.yul\":5705:6071   */\n      swap2\n      swap1\n      pop\n      jump\t// out\n        /* \"#utility.yul\":6077:6496   */\n    tag_80:\n        /* \"#utility.yul\":6243:6247   */\n      0x00\n        /* \"#utility.yul\":6281:6283   */\n      0x20\n        /* \"#utility.yul\":6270:6279   */\n      dup3\n        /* \"#utility.yul\":6266:6284   */\n      add\n        /* \"#utility.yul\":6258:6284   */\n      swap1\n      pop\n        /* \"#utility.yul\":6330:6339   */\n      dup2\n        /* \"#utility.yul\":6324:6328   */\n      dup2\n        /* \"#utility.yul\":6320:6340   */\n      sub\n        /* \"#utility.yul\":6316:6317   */\n      0x00\n        /* \"#utility.yul\":6305:6314   */\n      dup4\n        /* \"#utility.yul\":6301:6318   */\n      add\n        /* \"#utility.yul\":6294:6341   */\n      mstore\n        /* \"#utility.yul\":6358:6489   */\n      tag_194\n        /* \"#utility.yul\":6484:6488   */\n      dup2\n        /* \"#utility.yul\":6358:6489   */\n      tag_124\n      jump\t// in\n    tag_194:\n        /* \"#utility.yul\":6350:6489   */\n      swap1\n      pop\n        /* \"#utility.yul\":6077:6496   */\n      swap2\n      swap1\n      pop\n      jump\t// out\n        /* \"#utility.yul\":6502:6912   */\n    tag_87:\n        /* \"#utility.yul\":6542:6549   */\n      0x00\n        /* \"#utility.yul\":6565:6585   */\n      tag_196\n        /* \"#utility.yul\":6583:6584   */\n      dup3\n        /* \"#utility.yul\":6565:6585   */\n      tag_111\n      jump\t// in\n    tag_196:\n        /* \"#utility.yul\":6560:6585   */\n      swap2\n      pop\n        /* \"#utility.yul\":6599:6619   */\n      tag_197\n        /* \"#utility.yul\":6617:6618   */\n      dup4\n        /* \"#utility.yul\":6599:6619   */\n      tag_111\n      jump\t// in\n    tag_197:\n        /* \"#utility.yul\":6594:6619   */\n      swap3\n      pop\n        /* \"#utility.yul\":6654:6655   */\n      dup3\n        /* \"#utility.yul\":6651:6652   */\n      dup3\n        /* \"#utility.yul\":6647:6656   */\n      mul\n        /* \"#utility.yul\":6676:6706   */\n      tag_198\n        /* \"#utility.yul\":6694:6705   */\n      dup2\n        /* \"#utility.yul\":6676:6706   */\n      tag_111\n      jump\t// in\n    tag_198:\n        /* \"#utility.yul\":6665:6706   */\n      swap2\n      pop\n        /* \"#utility.yul\":6855:6856   */\n      dup3\n        /* \"#utility.yul\":6846:6853   */\n      dup3\n        /* \"#utility.yul\":6842:6857   */\n      div\n        /* \"#utility.yul\":6839:6840   */\n      dup5\n        /* \"#utility.yul\":6836:6858   */\n      eq\n        /* \"#utility.yul\":6816:6817   */\n      dup4\n        /* \"#utility.yul\":6809:6818   */\n      iszero\n        /* \"#utility.yul\":6789:6872   */\n      or\n        /* \"#utility.yul\":6766:6905   */\n      tag_199\n      jumpi\n        /* \"#utility.yul\":6885:6903   */\n      tag_200\n      tag_119\n      jump\t// in\n    tag_200:\n        /* \"#utility.yul\":6766:6905   */\n    tag_199:\n        /* \"#utility.yul\":6550:6912   */\n      pop\n        /* \"#utility.yul\":6502:6912   */\n      swap3\n      swap2\n      pop\n      pop\n      jump\t// out\n        /* \"#utility.yul\":6918:7098   */\n    tag_125:\n        /* \"#utility.yul\":6966:7043   */\n      0x4e487b7100000000000000000000000000000000000000000000000000000000\n        /* \"#utility.yul\":6963:6964   */\n      0x00\n        /* \"#utility.yul\":6956:7044   */\n      mstore\n        /* \"#utility.yul\":7063:7067   */\n      0x12\n        /* \"#utility.yul\":7060:7061   */\n      0x04\n        /* \"#utility.yul\":7053:7068   */\n      mstore\n        /* \"#utility.yul\":7087:7091   */\n      0x24\n        /* \"#utility.yul\":7084:7085   */\n      0x00\n        /* \"#utility.yul\":7077:7092   */\n      revert\n        /* \"#utility.yul\":7104:7289   */\n    tag_89:\n        /* \"#utility.yul\":7144:7145   */\n      0x00\n        /* \"#utility.yul\":7161:7181   */\n      tag_203\n        /* \"#utility.yul\":7179:7180   */\n      dup3\n        /* \"#utility.yul\":7161:7181   */\n      tag_111\n      jump\t// in\n    tag_203:\n        /* \"#utility.yul\":7156:7181   */\n      swap2\n      pop\n        /* \"#utility.yul\":7195:7215   */\n      tag_204\n        /* \"#utility.yul\":7213:7214   */\n      dup4\n        /* \"#utility.yul\":7195:7215   */\n      tag_111\n      jump\t// in\n    tag_204:\n        /* \"#utility.yul\":7190:7215   */\n      swap3\n      pop\n        /* \"#utility.yul\":7234:7235   */\n      dup3\n        /* \"#utility.yul\":7224:7259   */\n      tag_205\n      jumpi\n        /* \"#utility.yul\":7239:7257   */\n      tag_206\n      tag_125\n      jump\t// in\n    tag_206:\n        /* \"#utility.yul\":7224:7259   */\n    tag_205:\n        /* \"#utility.yul\":7281:7282   */\n      dup3\n        /* \"#utility.yul\":7278:7279   */\n      dup3\n        /* \"#utility.yul\":7274:7283   */\n      div\n        /* \"#utility.yul\":7269:7283   */\n      swap1\n      pop\n        /* \"#utility.yul\":7104:7289   */\n      swap3\n      swap2\n      pop\n      pop\n      jump\t// out\n        /* \"#utility.yul\":7295:7400   */\n    tag_126:\n        /* \"#utility.yul\":7331:7338   */\n      0x00\n        /* \"#utility.yul\":7371:7393   */\n      0xffffffffffffffffffff\n        /* \"#utility.yul\":7364:7369   */\n      dup3\n        /* \"#utility.yul\":7360:7394   */\n      and\n        /* \"#utility.yul\":7349:7394   */\n      swap1\n      pop\n        /* \"#utility.yul\":7295:7400   */\n      swap2\n      swap1\n      pop\n      jump\t// out\n        /* \"#utility.yul\":7406:7526   */\n    tag_127:\n        /* \"#utility.yul\":7478:7501   */\n      tag_209\n        /* \"#utility.yul\":7495:7500   */\n      dup2\n        /* \"#utility.yul\":7478:7501   */\n      tag_126\n      jump\t// in\n    tag_209:\n        /* \"#utility.yul\":7471:7476   */\n      dup2\n        /* \"#utility.yul\":7468:7502   */\n      eq\n        /* \"#utility.yul\":7458:7520   */\n      tag_210\n      jumpi\n        /* \"#utility.yul\":7516:7517   */\n      0x00\n        /* \"#utility.yul\":7513:7514   */\n      dup1\n        /* \"#utility.yul\":7506:7518   */\n      revert\n        /* \"#utility.yul\":7458:7520   */\n    tag_210:\n        /* \"#utility.yul\":7406:7526   */\n      pop\n      jump\t// out\n        /* \"#utility.yul\":7532:7673   */\n    tag_128:\n        /* \"#utility.yul\":7588:7593   */\n      0x00\n        /* \"#utility.yul\":7619:7625   */\n      dup2\n        /* \"#utility.yul\":7613:7626   */\n      mload\n        /* \"#utility.yul\":7604:7626   */\n      swap1\n      pop\n        /* \"#utility.yul\":7635:7667   */\n      tag_212\n        /* \"#utility.yul\":7661:7666   */\n      dup2\n        /* \"#utility.yul\":7635:7667   */\n      tag_127\n      jump\t// in\n    tag_212:\n        /* \"#utility.yul\":7532:7673   */\n      swap3\n      swap2\n      pop\n      pop\n      jump\t// out\n        /* \"#utility.yul\":7679:7755   */\n    tag_129:\n        /* \"#utility.yul\":7715:7722   */\n      0x00\n        /* \"#utility.yul\":7744:7749   */\n      dup2\n        /* \"#utility.yul\":7733:7749   */\n      swap1\n      pop\n        /* \"#utility.yul\":7679:7755   */\n      swap2\n      swap1\n      pop\n      jump\t// out\n        /* \"#utility.yul\":7761:7881   */\n    tag_130:\n        /* \"#utility.yul\":7833:7856   */\n      tag_215\n        /* \"#utility.yul\":7850:7855   */\n      dup2\n        /* \"#utility.yul\":7833:7856   */\n      tag_129\n      jump\t// in\n    tag_215:\n        /* \"#utility.yul\":7826:7831   */\n      dup2\n        /* \"#utility.yul\":7823:7857   */\n      eq\n        /* \"#utility.yul\":7813:7875   */\n      tag_216\n      jumpi\n        /* \"#utility.yul\":7871:7872   */\n      0x00\n        /* \"#utility.yul\":7868:7869   */\n      dup1\n        /* \"#utility.yul\":7861:7873   */\n      revert\n        /* \"#utility.yul\":7813:7875   */\n    tag_216:\n        /* \"#utility.yul\":7761:7881   */\n      pop\n      jump\t// out\n        /* \"#utility.yul\":7887:8028   */\n    tag_131:\n        /* \"#utility.yul\":7943:7948   */\n      0x00\n        /* \"#utility.yul\":7974:7980   */\n      dup2\n        /* \"#utility.yul\":7968:7981   */\n      mload\n        /* \"#utility.yul\":7959:7981   */\n      swap1\n      pop\n        /* \"#utility.yul\":7990:8022   */\n      tag_218\n        /* \"#utility.yul\":8016:8021   */\n      dup2\n        /* \"#utility.yul\":7990:8022   */\n      tag_130\n      jump\t// in\n    tag_218:\n        /* \"#utility.yul\":7887:8028   */\n      swap3\n      swap2\n      pop\n      pop\n      jump\t// out\n        /* \"#utility.yul\":8034:8177   */\n    tag_132:\n        /* \"#utility.yul\":8091:8096   */\n      0x00\n        /* \"#utility.yul\":8122:8128   */\n      dup2\n        /* \"#utility.yul\":8116:8129   */\n      mload\n        /* \"#utility.yul\":8107:8129   */\n      swap1\n      pop\n        /* \"#utility.yul\":8138:8171   */\n      tag_220\n        /* \"#utility.yul\":8165:8170   */\n      dup2\n        /* \"#utility.yul\":8138:8171   */\n      tag_114\n      jump\t// in\n    tag_220:\n        /* \"#utility.yul\":8034:8177   */\n      swap3\n      swap2\n      pop\n      pop\n      jump\t// out\n        /* \"#utility.yul\":8183:9154   */\n    tag_94:\n        /* \"#utility.yul\":8286:8292   */\n      0x00\n        /* \"#utility.yul\":8294:8300   */\n      dup1\n        /* \"#utility.yul\":8302:8308   */\n      0x00\n        /* \"#utility.yul\":8310:8316   */\n      dup1\n        /* \"#utility.yul\":8318:8324   */\n      0x00\n        /* \"#utility.yul\":8367:8370   */\n      0xa0\n        /* \"#utility.yul\":8355:8364   */\n      dup7\n        /* \"#utility.yul\":8346:8353   */\n      dup9\n        /* \"#utility.yul\":8342:8365   */\n      sub\n        /* \"#utility.yul\":8338:8371   */\n      slt\n        /* \"#utility.yul\":8335:8455   */\n      iszero\n      tag_222\n      jumpi\n        /* \"#utility.yul\":8374:8453   */\n      tag_223\n      tag_105\n      jump\t// in\n    tag_223:\n        /* \"#utility.yul\":8335:8455   */\n    tag_222:\n        /* \"#utility.yul\":8494:8495   */\n      0x00\n        /* \"#utility.yul\":8519:8582   */\n      tag_224\n        /* \"#utility.yul\":8574:8581   */\n      dup9\n        /* \"#utility.yul\":8565:8571   */\n      dup3\n        /* \"#utility.yul\":8554:8563   */\n      dup10\n        /* \"#utility.yul\":8550:8572   */\n      add\n        /* \"#utility.yul\":8519:8582   */\n      tag_128\n      jump\t// in\n    tag_224:\n        /* \"#utility.yul\":8509:8582   */\n      swap6\n      pop\n        /* \"#utility.yul\":8465:8592   */\n      pop\n        /* \"#utility.yul\":8631:8633   */\n      0x20\n        /* \"#utility.yul\":8657:8720   */\n      tag_225\n        /* \"#utility.yul\":8712:8719   */\n      dup9\n        /* \"#utility.yul\":8703:8709   */\n      dup3\n        /* \"#utility.yul\":8692:8701   */\n      dup10\n        /* \"#utility.yul\":8688:8710   */\n      add\n        /* \"#utility.yul\":8657:8720   */\n      tag_131\n      jump\t// in\n    tag_225:\n        /* \"#utility.yul\":8647:8720   */\n      swap5\n      pop\n        /* \"#utility.yul\":8602:8730   */\n      pop\n        /* \"#utility.yul\":8769:8771   */\n      0x40\n        /* \"#utility.yul\":8795:8859   */\n      tag_226\n        /* \"#utility.yul\":8851:8858   */\n      dup9\n        /* \"#utility.yul\":8842:8848   */\n      dup3\n        /* \"#utility.yul\":8831:8840   */\n      dup10\n        /* \"#utility.yul\":8827:8849   */\n      add\n        /* \"#utility.yul\":8795:8859   */\n      tag_132\n      jump\t// in\n    tag_226:\n        /* \"#utility.yul\":8785:8859   */\n      swap4\n      pop\n        /* \"#utility.yul\":8740:8869   */\n      pop\n        /* \"#utility.yul\":8908:8910   */\n      0x60\n        /* \"#utility.yul\":8934:8998   */\n      tag_227\n        /* \"#utility.yul\":8990:8997   */\n      dup9\n        /* \"#utility.yul\":8981:8987   */\n      dup3\n        /* \"#utility.yul\":8970:8979   */\n      dup10\n        /* \"#utility.yul\":8966:8988   */\n      add\n        /* \"#utility.yul\":8934:8998   */\n      tag_132\n      jump\t// in\n    tag_227:\n        /* \"#utility.yul\":8924:8998   */\n      swap3\n      pop\n        /* \"#utility.yul\":8879:9008   */\n      pop\n        /* \"#utility.yul\":9047:9050   */\n      0x80\n        /* \"#utility.yul\":9074:9137   */\n      tag_228\n        /* \"#utility.yul\":9129:9136   */\n      dup9\n        /* \"#utility.yul\":9120:9126   */\n      dup3\n        /* \"#utility.yul\":9109:9118   */\n      dup10\n        /* \"#utility.yul\":9105:9127   */\n      add\n        /* \"#utility.yul\":9074:9137   */\n      tag_128\n      jump\t// in\n    tag_228:\n        /* \"#utility.yul\":9064:9137   */\n      swap2\n      pop\n        /* \"#utility.yul\":9018:9147   */\n      pop\n        /* \"#utility.yul\":8183:9154   */\n      swap3\n      swap6\n      pop\n      swap3\n      swap6\n      swap1\n      swap4\n      pop\n      jump\t// out\n        /* \"#utility.yul\":9160:9716   */\n    tag_96:\n        /* \"#utility.yul\":9199:9206   */\n      0x00\n        /* \"#utility.yul\":9222:9241   */\n      tag_230\n        /* \"#utility.yul\":9239:9240   */\n      dup3\n        /* \"#utility.yul\":9222:9241   */\n      tag_129\n      jump\t// in\n    tag_230:\n        /* \"#utility.yul\":9217:9241   */\n      swap2\n      pop\n        /* \"#utility.yul\":9255:9274   */\n      tag_231\n        /* \"#utility.yul\":9272:9273   */\n      dup4\n        /* \"#utility.yul\":9255:9274   */\n      tag_129\n      jump\t// in\n    tag_231:\n        /* \"#utility.yul\":9250:9274   */\n      swap3\n      pop\n        /* \"#utility.yul\":9309:9310   */\n      dup3\n        /* \"#utility.yul\":9306:9307   */\n      dup3\n        /* \"#utility.yul\":9302:9311   */\n      mul\n        /* \"#utility.yul\":9331:9360   */\n      tag_232\n        /* \"#utility.yul\":9348:9359   */\n      dup2\n        /* \"#utility.yul\":9331:9360   */\n      tag_129\n      jump\t// in\n    tag_232:\n        /* \"#utility.yul\":9320:9360   */\n      swap2\n      pop\n        /* \"#utility.yul\":9418:9484   */\n      0x8000000000000000000000000000000000000000000000000000000000000000\n        /* \"#utility.yul\":9415:9416   */\n      dup5\n        /* \"#utility.yul\":9412:9485   */\n      eq\n        /* \"#utility.yul\":9408:9409   */\n      0x00\n        /* \"#utility.yul\":9405:9406   */\n      dup5\n        /* \"#utility.yul\":9401:9410   */\n      slt\n        /* \"#utility.yul\":9397:9486   */\n      and\n        /* \"#utility.yul\":9394:9509   */\n      iszero\n      tag_233\n      jumpi\n        /* \"#utility.yul\":9489:9507   */\n      tag_234\n      tag_119\n      jump\t// in\n    tag_234:\n        /* \"#utility.yul\":9394:9509   */\n    tag_233:\n        /* \"#utility.yul\":9659:9660   */\n      dup3\n        /* \"#utility.yul\":9650:9657   */\n      dup3\n        /* \"#utility.yul\":9645:9661   */\n      sdiv\n        /* \"#utility.yul\":9642:9643   */\n      dup5\n        /* \"#utility.yul\":9639:9662   */\n      eq\n        /* \"#utility.yul\":9619:9620   */\n      dup4\n        /* \"#utility.yul\":9612:9621   */\n      iszero\n        /* \"#utility.yul\":9592:9676   */\n      or\n        /* \"#utility.yul\":9569:9709   */\n      tag_235\n      jumpi\n        /* \"#utility.yul\":9689:9707   */\n      tag_236\n      tag_119\n      jump\t// in\n    tag_236:\n        /* \"#utility.yul\":9569:9709   */\n    tag_235:\n        /* \"#utility.yul\":9207:9716   */\n      pop\n        /* \"#utility.yul\":9160:9716   */\n      swap3\n      swap2\n      pop\n      pop\n      jump\t// out\n\n    auxdata: 0xa2646970667358221220aa1d5e812ec0a30ab760d62449473d151fa09a4fc1e70eae3cfc61c89a4a15bb64736f6c63430008180033\n}\n",
				"bytecode": {
					"linkReferences": {},
					"object": "60a060405234801561000f575f80fd5b503373ffffffffffffffffffffffffffffffffffffffff1660808173ffffffffffffffffffffffffffffffffffffffff1681525050608051610c306100635f395f81816102ab01526104f70152610c305ff3fe608060405260043610610073575f3560e01c8063b60d42881161004d578063b60d428814610108578063dba6335f14610112578063dc0d3dff1461013c578063f82585a41461017857610082565b80633ccfd60b1461008c5780633e47d6f3146100a25780636b69a592146100de57610082565b36610082576100806101a2565b005b61008a6101a2565b005b348015610097575f80fd5b506100a06102a9565b005b3480156100ad575f80fd5b506100c860048036038101906100c39190610735565b6104d4565b6040516100d59190610778565b60405180910390f35b3480156100e9575f80fd5b506100f26104e9565b6040516100ff9190610778565b60405180910390f35b6101106101a2565b005b34801561011d575f80fd5b506101266104f5565b60405161013391906107a0565b60405180910390f35b348015610147575f80fd5b50610162600480360381019061015d91906107e3565b610519565b60405161016f91906107a0565b60405180910390f35b348015610183575f80fd5b5061018c610553565b6040516101999190610778565b60405180910390f35b674563918244f400006101b434610558565b10156101f5576040517f08c379a00000000000000000000000000000000000000000000000000000000081526004016101ec90610868565b60405180910390fd5b5f33908060018154018082558091505060019003905f5260205f20015f9091909190916101000a81548173ffffffffffffffffffffffffffffffffffffffff021916908373ffffffffffffffffffffffffffffffffffffffff1602179055503460015f3373ffffffffffffffffffffffffffffffffffffffff1673ffffffffffffffffffffffffffffffffffffffff1681526020019081526020015f205f8282546102a091906108b3565b92505081905550565b7f000000000000000000000000000000000000000000000000000000000000000073ffffffffffffffffffffffffffffffffffffffff163373ffffffffffffffffffffffffffffffffffffffff161461032e576040517f30cd747100000000000000000000000000000000000000000000000000000000815260040160405180910390fd5b5f5b5f805490508110156103ca575f8082815481106103505761034f6108e6565b5b905f5260205f20015f9054906101000a900473ffffffffffffffffffffffffffffffffffffffff1690505f60015f8373ffffffffffffffffffffffffffffffffffffffff1673ffffffffffffffffffffffffffffffffffffffff1681526020019081526020015f2081905550508080600101915050610330565b505f67ffffffffffffffff8111156103e5576103e4610913565b5b6040519080825280602002602001820160405280156104135781602001602082028036833780820191505090505b505f9080519060200190610428929190610635565b505f3373ffffffffffffffffffffffffffffffffffffffff164760405161044e9061096d565b5f6040518083038185875af1925050503d805f8114610488576040519150601f19603f3d011682016040523d82523d5f602084013e61048d565b606091505b50509050806104d1576040517f08c379a00000000000000000000000000000000000000000000000000000000081526004016104c8906109cb565b60405180910390fd5b50565b6001602052805f5260405f205f915090505481565b674563918244f4000081565b7f000000000000000000000000000000000000000000000000000000000000000081565b5f8181548110610527575f80fd5b905f5260205f20015f915054906101000a900473ffffffffffffffffffffffffffffffffffffffff1681565b600a81565b5f80610562610590565b90505f670de0b6b3a7640000828561057a91906109e9565b6105849190610a57565b90508092505050919050565b5f8073694aa1769357215de4fac081bf1f309adc32530690505f8173ffffffffffffffffffffffffffffffffffffffff1663feaf968c6040518163ffffffff1660e01b815260040160a060405180830381865afa1580156105f3573d5f803e3d5ffd5b505050506040513d601f19601f820116820180604052508101906106179190610b0d565b5050509150506402540be4008161062e9190610b84565b9250505090565b828054828255905f5260205f209081019282156106ab579160200282015b828111156106aa578251825f6101000a81548173ffffffffffffffffffffffffffffffffffffffff021916908373ffffffffffffffffffffffffffffffffffffffff16021790555091602001919060010190610653565b5b5090506106b891906106bc565b5090565b5b808211156106d3575f815f9055506001016106bd565b5090565b5f80fd5b5f73ffffffffffffffffffffffffffffffffffffffff82169050919050565b5f610704826106db565b9050919050565b610714816106fa565b811461071e575f80fd5b50565b5f8135905061072f8161070b565b92915050565b5f6020828403121561074a576107496106d7565b5b5f61075784828501610721565b91505092915050565b5f819050919050565b61077281610760565b82525050565b5f60208201905061078b5f830184610769565b92915050565b61079a816106fa565b82525050565b5f6020820190506107b35f830184610791565b92915050565b6107c281610760565b81146107cc575f80fd5b50565b5f813590506107dd816107b9565b92915050565b5f602082840312156107f8576107f76106d7565b5b5f610805848285016107cf565b91505092915050565b5f82825260208201905092915050565b7f6469646e27742073656e6420656e6f75676820455448000000000000000000005f82015250565b5f61085260168361080e565b915061085d8261081e565b602082019050919050565b5f6020820190508181035f83015261087f81610846565b9050919050565b7f4e487b71000000000000000000000000000000000000000000000000000000005f52601160045260245ffd5b5f6108bd82610760565b91506108c883610760565b92508282019050808211156108e0576108df610886565b5b92915050565b7f4e487b71000000000000000000000000000000000000000000000000000000005f52603260045260245ffd5b7f4e487b71000000000000000000000000000000000000000000000000000000005f52604160045260245ffd5b5f81905092915050565b50565b5f6109585f83610940565b91506109638261094a565b5f82019050919050565b5f6109778261094d565b9150819050919050565b7f43616c6c206661696c65640000000000000000000000000000000000000000005f82015250565b5f6109b5600b8361080e565b91506109c082610981565b602082019050919050565b5f6020820190508181035f8301526109e2816109a9565b9050919050565b5f6109f382610760565b91506109fe83610760565b9250828202610a0c81610760565b91508282048414831517610a2357610a22610886565b5b5092915050565b7f4e487b71000000000000000000000000000000000000000000000000000000005f52601260045260245ffd5b5f610a6182610760565b9150610a6c83610760565b925082610a7c57610a7b610a2a565b5b828204905092915050565b5f69ffffffffffffffffffff82169050919050565b610aa581610a87565b8114610aaf575f80fd5b50565b5f81519050610ac081610a9c565b92915050565b5f819050919050565b610ad881610ac6565b8114610ae2575f80fd5b50565b5f81519050610af381610acf565b92915050565b5f81519050610b07816107b9565b92915050565b5f805f805f60a08688031215610b2657610b256106d7565b5b5f610b3388828901610ab2565b9550506020610b4488828901610ae5565b9450506040610b5588828901610af9565b9350506060610b6688828901610af9565b9250506080610b7788828901610ab2565b9150509295509295909350565b5f610b8e82610ac6565b9150610b9983610ac6565b9250828202610ba781610ac6565b91507f800000000000000000000000000000000000000000000000000000000000000084145f84121615610bde57610bdd610886565b5b8282058414831517610bf357610bf2610886565b5b509291505056fea2646970667358221220aa1d5e812ec0a30ab760d62449473d151fa09a4fc1e70eae3cfc61c89a4a15bb64736f6c63430008180033",
					"opcodes": "PUSH1 0xA0 PUSH1 0x40 MSTORE CALLVALUE DUP1 ISZERO PUSH2 0xF JUMPI PUSH0 DUP1 REVERT JUMPDEST POP CALLER PUSH20 0xFFFFFFFFFFFFFFFFFFFFFFFFFFFFFFFFFFFFFFFF AND PUSH1 0x80 DUP2 PUSH20 0xFFFFFFFFFFFFFFFFFFFFFFFFFFFFFFFFFFFFFFFF AND DUP2 MSTORE POP POP PUSH1 0x80 MLOAD PUSH2 0xC30 PUSH2 0x63 PUSH0 CODECOPY PUSH0 DUP2 DUP2 PUSH2 0x2AB ADD MSTORE PUSH2 0x4F7 ADD MSTORE PUSH2 0xC30 PUSH0 RETURN INVALID PUSH1 0x80 PUSH1 0x40 MSTORE PUSH1 0x4 CALLDATASIZE LT PUSH2 0x73 JUMPI PUSH0 CALLDATALOAD PUSH1 0xE0 SHR DUP1 PUSH4 0xB60D4288 GT PUSH2 0x4D JUMPI DUP1 PUSH4 0xB60D4288 EQ PUSH2 0x108 JUMPI DUP1 PUSH4 0xDBA6335F EQ PUSH2 0x112 JUMPI DUP1 PUSH4 0xDC0D3DFF EQ PUSH2 0x13C JUMPI DUP1 PUSH4 0xF82585A4 EQ PUSH2 0x178 JUMPI PUSH2 0x82 JUMP JUMPDEST DUP1 PUSH4 0x3CCFD60B EQ PUSH2 0x8C JUMPI DUP1 PUSH4 0x3E47D6F3 EQ PUSH2 0xA2 JUMPI DUP1 PUSH4 0x6B69A592 EQ PUSH2 0xDE JUMPI PUSH2 0x82 JUMP JUMPDEST CALLDATASIZE PUSH2 0x82 JUMPI PUSH2 0x80 PUSH2 0x1A2 JUMP JUMPDEST STOP JUMPDEST PUSH2 0x8A PUSH2 0x1A2 JUMP JUMPDEST STOP JUMPDEST CALLVALUE DUP1 ISZERO PUSH2 0x97 JUMPI PUSH0 DUP1 REVERT JUMPDEST POP PUSH2 0xA0 PUSH2 0x2A9 JUMP JUMPDEST STOP JUMPDEST CALLVALUE DUP1 ISZERO PUSH2 0xAD JUMPI PUSH0 DUP1 REVERT JUMPDEST POP PUSH2 0xC8 PUSH1 0x4 DUP1 CALLDATASIZE SUB DUP2 ADD SWAP1 PUSH2 0xC3 SWAP2 SWAP1 PUSH2 0x735 JUMP JUMPDEST PUSH2 0x4D4 JUMP JUMPDEST PUSH1 0x40 MLOAD PUSH2 0xD5 SWAP2 SWAP1 PUSH2 0x778 JUMP JUMPDEST PUSH1 0x40 MLOAD DUP1 SWAP2 SUB SWAP1 RETURN JUMPDEST CALLVALUE DUP1 ISZERO PUSH2 0xE9 JUMPI PUSH0 DUP1 REVERT JUMPDEST POP PUSH2 0xF2 PUSH2 0x4E9 JUMP JUMPDEST PUSH1 0x40 MLOAD PUSH2 0xFF SWAP2 SWAP1 PUSH2 0x778 JUMP JUMPDEST PUSH1 0x40 MLOAD DUP1 SWAP2 SUB SWAP1 RETURN JUMPDEST PUSH2 0x110 PUSH2 0x1A2 JUMP JUMPDEST STOP JUMPDEST CALLVALUE DUP1 ISZERO PUSH2 0x11D JUMPI PUSH0 DUP1 REVERT JUMPDEST POP PUSH2 0x126 PUSH2 0x4F5 JUMP JUMPDEST PUSH1 0x40 MLOAD PUSH2 0x133 SWAP2 SWAP1 PUSH2 0x7A0 JUMP JUMPDEST PUSH1 0x40 MLOAD DUP1 SWAP2 SUB SWAP1 RETURN JUMPDEST CALLVALUE DUP1 ISZERO PUSH2 0x147 JUMPI PUSH0 DUP1 REVERT JUMPDEST POP PUSH2 0x162 PUSH1 0x4 DUP1 CALLDATASIZE SUB DUP2 ADD SWAP1 PUSH2 0x15D SWAP2 SWAP1 PUSH2 0x7E3 JUMP JUMPDEST PUSH2 0x519 JUMP JUMPDEST PUSH1 0x40 MLOAD PUSH2 0x16F SWAP2 SWAP1 PUSH2 0x7A0 JUMP JUMPDEST PUSH1 0x40 MLOAD DUP1 SWAP2 SUB SWAP1 RETURN JUMPDEST CALLVALUE DUP1 ISZERO PUSH2 0x183 JUMPI PUSH0 DUP1 REVERT JUMPDEST POP PUSH2 0x18C PUSH2 0x553 JUMP JUMPDEST PUSH1 0x40 MLOAD PUSH2 0x199 SWAP2 SWAP1 PUSH2 0x778 JUMP JUMPDEST PUSH1 0x40 MLOAD DUP1 SWAP2 SUB SWAP1 RETURN JUMPDEST PUSH8 0x4563918244F40000 PUSH2 0x1B4 CALLVALUE PUSH2 0x558 JUMP JUMPDEST LT ISZERO PUSH2 0x1F5 JUMPI PUSH1 0x40 MLOAD PUSH32 0x8C379A000000000000000000000000000000000000000000000000000000000 DUP2 MSTORE PUSH1 0x4 ADD PUSH2 0x1EC SWAP1 PUSH2 0x868 JUMP JUMPDEST PUSH1 0x40 MLOAD DUP1 SWAP2 SUB SWAP1 REVERT JUMPDEST PUSH0 CALLER SWAP1 DUP1 PUSH1 0x1 DUP2 SLOAD ADD DUP1 DUP3 SSTORE DUP1 SWAP2 POP POP PUSH1 0x1 SWAP1 SUB SWAP1 PUSH0 MSTORE PUSH1 0x20 PUSH0 KECCAK256 ADD PUSH0 SWAP1 SWAP2 SWAP1 SWAP2 SWAP1 SWAP2 PUSH2 0x100 EXP DUP2 SLOAD DUP2 PUSH20 0xFFFFFFFFFFFFFFFFFFFFFFFFFFFFFFFFFFFFFFFF MUL NOT AND SWAP1 DUP4 PUSH20 0xFFFFFFFFFFFFFFFFFFFFFFFFFFFFFFFFFFFFFFFF AND MUL OR SWAP1 SSTORE POP CALLVALUE PUSH1 0x1 PUSH0 CALLER PUSH20 0xFFFFFFFFFFFFFFFFFFFFFFFFFFFFFFFFFFFFFFFF AND PUSH20 0xFFFFFFFFFFFFFFFFFFFFFFFFFFFFFFFFFFFFFFFF AND DUP2 MSTORE PUSH1 0x20 ADD SWAP1 DUP2 MSTORE PUSH1 0x20 ADD PUSH0 KECCAK256 PUSH0 DUP3 DUP3 SLOAD PUSH2 0x2A0 SWAP2 SWAP1 PUSH2 0x8B3 JUMP JUMPDEST SWAP3 POP POP DUP2 SWAP1 SSTORE POP JUMP JUMPDEST PUSH32 0x0 PUSH20 0xFFFFFFFFFFFFFFFFFFFFFFFFFFFFFFFFFFFFFFFF AND CALLER PUSH20 0xFFFFFFFFFFFFFFFFFFFFFFFFFFFFFFFFFFFFFFFF AND EQ PUSH2 0x32E JUMPI PUSH1 0x40 MLOAD PUSH32 0x30CD747100000000000000000000000000000000000000000000000000000000 DUP2 MSTORE PUSH1 0x4 ADD PUSH1 0x40 MLOAD DUP1 SWAP2 SUB SWAP1 REVERT JUMPDEST PUSH0 JUMPDEST PUSH0 DUP1 SLOAD SWAP1 POP DUP2 LT ISZERO PUSH2 0x3CA JUMPI PUSH0 DUP1 DUP3 DUP2 SLOAD DUP2 LT PUSH2 0x350 JUMPI PUSH2 0x34F PUSH2 0x8E6 JUMP JUMPDEST JUMPDEST SWAP1 PUSH0 MSTORE PUSH1 0x20 PUSH0 KECCAK256 ADD PUSH0 SWAP1 SLOAD SWAP1 PUSH2 0x100 EXP SWAP1 DIV PUSH20 0xFFFFFFFFFFFFFFFFFFFFFFFFFFFFFFFFFFFFFFFF AND SWAP1 POP PUSH0 PUSH1 0x1 PUSH0 DUP4 PUSH20 0xFFFFFFFFFFFFFFFFFFFFFFFFFFFFFFFFFFFFFFFF AND PUSH20 0xFFFFFFFFFFFFFFFFFFFFFFFFFFFFFFFFFFFFFFFF AND DUP2 MSTORE PUSH1 0x20 ADD SWAP1 DUP2 MSTORE PUSH1 0x20 ADD PUSH0 KECCAK256 DUP2 SWAP1 SSTORE POP POP DUP1 DUP1 PUSH1 0x1 ADD SWAP2 POP POP PUSH2 0x330 JUMP JUMPDEST POP PUSH0 PUSH8 0xFFFFFFFFFFFFFFFF DUP2 GT ISZERO PUSH2 0x3E5 JUMPI PUSH2 0x3E4 PUSH2 0x913 JUMP JUMPDEST JUMPDEST PUSH1 0x40 MLOAD SWAP1 DUP1 DUP3 MSTORE DUP1 PUSH1 0x20 MUL PUSH1 0x20 ADD DUP3 ADD PUSH1 0x40 MSTORE DUP1 ISZERO PUSH2 0x413 JUMPI DUP2 PUSH1 0x20 ADD PUSH1 0x20 DUP3 MUL DUP1 CALLDATASIZE DUP4 CALLDATACOPY DUP1 DUP3 ADD SWAP2 POP POP SWAP1 POP JUMPDEST POP PUSH0 SWAP1 DUP1 MLOAD SWAP1 PUSH1 0x20 ADD SWAP1 PUSH2 0x428 SWAP3 SWAP2 SWAP1 PUSH2 0x635 JUMP JUMPDEST POP PUSH0 CALLER PUSH20 0xFFFFFFFFFFFFFFFFFFFFFFFFFFFFFFFFFFFFFFFF AND SELFBALANCE PUSH1 0x40 MLOAD PUSH2 0x44E SWAP1 PUSH2 0x96D JUMP JUMPDEST PUSH0 PUSH1 0x40 MLOAD DUP1 DUP4 SUB DUP2 DUP6 DUP8 GAS CALL SWAP3 POP POP POP RETURNDATASIZE DUP1 PUSH0 DUP2 EQ PUSH2 0x488 JUMPI PUSH1 0x40 MLOAD SWAP2 POP PUSH1 0x1F NOT PUSH1 0x3F RETURNDATASIZE ADD AND DUP3 ADD PUSH1 0x40 MSTORE RETURNDATASIZE DUP3 MSTORE RETURNDATASIZE PUSH0 PUSH1 0x20 DUP5 ADD RETURNDATACOPY PUSH2 0x48D JUMP JUMPDEST PUSH1 0x60 SWAP2 POP JUMPDEST POP POP SWAP1 POP DUP1 PUSH2 0x4D1 JUMPI PUSH1 0x40 MLOAD PUSH32 0x8C379A000000000000000000000000000000000000000000000000000000000 DUP2 MSTORE PUSH1 0x4 ADD PUSH2 0x4C8 SWAP1 PUSH2 0x9CB JUMP JUMPDEST PUSH1 0x40 MLOAD DUP1 SWAP2 SUB SWAP1 REVERT JUMPDEST POP JUMP JUMPDEST PUSH1 0x1 PUSH1 0x20 MSTORE DUP1 PUSH0 MSTORE PUSH1 0x40 PUSH0 KECCAK256 PUSH0 SWAP2 POP SWAP1 POP SLOAD DUP2 JUMP JUMPDEST PUSH8 0x4563918244F40000 DUP2 JUMP JUMPDEST PUSH32 0x0 DUP2 JUMP JUMPDEST PUSH0 DUP2 DUP2 SLOAD DUP2 LT PUSH2 0x527 JUMPI PUSH0 DUP1 REVERT JUMPDEST SWAP1 PUSH0 MSTORE PUSH1 0x20 PUSH0 KECCAK256 ADD PUSH0 SWAP2 POP SLOAD SWAP1 PUSH2 0x100 EXP SWAP1 DIV PUSH20 0xFFFFFFFFFFFFFFFFFFFFFFFFFFFFFFFFFFFFFFFF AND DUP2 JUMP JUMPDEST PUSH1 0xA DUP2 JUMP JUMPDEST PUSH0 DUP1 PUSH2 0x562 PUSH2 0x590 JUMP JUMPDEST SWAP1 POP PUSH0 PUSH8 0xDE0B6B3A7640000 DUP3 DUP6 PUSH2 0x57A SWAP2 SWAP1 PUSH2 0x9E9 JUMP JUMPDEST PUSH2 0x584 SWAP2 SWAP1 PUSH2 0xA57 JUMP JUMPDEST SWAP1 POP DUP1 SWAP3 POP POP POP SWAP2 SWAP1 POP JUMP JUMPDEST PUSH0 DUP1 PUSH20 0x694AA1769357215DE4FAC081BF1F309ADC325306 SWAP1 POP PUSH0 DUP2 PUSH20 0xFFFFFFFFFFFFFFFFFFFFFFFFFFFFFFFFFFFFFFFF AND PUSH4 0xFEAF968C PUSH1 0x40 MLOAD DUP2 PUSH4 0xFFFFFFFF AND PUSH1 0xE0 SHL DUP2 MSTORE PUSH1 0x4 ADD PUSH1 0xA0 PUSH1 0x40 MLOAD DUP1 DUP4 SUB DUP2 DUP7 GAS STATICCALL ISZERO DUP1 ISZERO PUSH2 0x5F3 JUMPI RETURNDATASIZE PUSH0 DUP1 RETURNDATACOPY RETURNDATASIZE PUSH0 REVERT JUMPDEST POP POP POP POP PUSH1 0x40 MLOAD RETURNDATASIZE PUSH1 0x1F NOT PUSH1 0x1F DUP3 ADD AND DUP3 ADD DUP1 PUSH1 0x40 MSTORE POP DUP2 ADD SWAP1 PUSH2 0x617 SWAP2 SWAP1 PUSH2 0xB0D JUMP JUMPDEST POP POP POP SWAP2 POP POP PUSH5 0x2540BE400 DUP2 PUSH2 0x62E SWAP2 SWAP1 PUSH2 0xB84 JUMP JUMPDEST SWAP3 POP POP POP SWAP1 JUMP JUMPDEST DUP3 DUP1 SLOAD DUP3 DUP3 SSTORE SWAP1 PUSH0 MSTORE PUSH1 0x20 PUSH0 KECCAK256 SWAP1 DUP2 ADD SWAP3 DUP3 ISZERO PUSH2 0x6AB JUMPI SWAP2 PUSH1 0x20 MUL DUP3 ADD JUMPDEST DUP3 DUP2 GT ISZERO PUSH2 0x6AA JUMPI DUP3 MLOAD DUP3 PUSH0 PUSH2 0x100 EXP DUP2 SLOAD DUP2 PUSH20 0xFFFFFFFFFFFFFFFFFFFFFFFFFFFFFFFFFFFFFFFF MUL NOT AND SWAP1 DUP4 PUSH20 0xFFFFFFFFFFFFFFFFFFFFFFFFFFFFFFFFFFFFFFFF AND MUL OR SWAP1 SSTORE POP SWAP2 PUSH1 0x20 ADD SWAP2 SWAP1 PUSH1 0x1 ADD SWAP1 PUSH2 0x653 JUMP JUMPDEST JUMPDEST POP SWAP1 POP PUSH2 0x6B8 SWAP2 SWAP1 PUSH2 0x6BC JUMP JUMPDEST POP SWAP1 JUMP JUMPDEST JUMPDEST DUP1 DUP3 GT ISZERO PUSH2 0x6D3 JUMPI PUSH0 DUP2 PUSH0 SWAP1 SSTORE POP PUSH1 0x1 ADD PUSH2 0x6BD JUMP JUMPDEST POP SWAP1 JUMP JUMPDEST PUSH0 DUP1 REVERT JUMPDEST PUSH0 PUSH20 0xFFFFFFFFFFFFFFFFFFFFFFFFFFFFFFFFFFFFFFFF DUP3 AND SWAP1 POP SWAP2 SWAP1 POP JUMP JUMPDEST PUSH0 PUSH2 0x704 DUP3 PUSH2 0x6DB JUMP JUMPDEST SWAP1 POP SWAP2 SWAP1 POP JUMP JUMPDEST PUSH2 0x714 DUP2 PUSH2 0x6FA JUMP JUMPDEST DUP2 EQ PUSH2 0x71E JUMPI PUSH0 DUP1 REVERT JUMPDEST POP JUMP JUMPDEST PUSH0 DUP2 CALLDATALOAD SWAP1 POP PUSH2 0x72F DUP2 PUSH2 0x70B JUMP JUMPDEST SWAP3 SWAP2 POP POP JUMP JUMPDEST PUSH0 PUSH1 0x20 DUP3 DUP5 SUB SLT ISZERO PUSH2 0x74A JUMPI PUSH2 0x749 PUSH2 0x6D7 JUMP JUMPDEST JUMPDEST PUSH0 PUSH2 0x757 DUP5 DUP3 DUP6 ADD PUSH2 0x721 JUMP JUMPDEST SWAP2 POP POP SWAP3 SWAP2 POP POP JUMP JUMPDEST PUSH0 DUP2 SWAP1 POP SWAP2 SWAP1 POP JUMP JUMPDEST PUSH2 0x772 DUP2 PUSH2 0x760 JUMP JUMPDEST DUP3 MSTORE POP POP JUMP JUMPDEST PUSH0 PUSH1 0x20 DUP3 ADD SWAP1 POP PUSH2 0x78B PUSH0 DUP4 ADD DUP5 PUSH2 0x769 JUMP JUMPDEST SWAP3 SWAP2 POP POP JUMP JUMPDEST PUSH2 0x79A DUP2 PUSH2 0x6FA JUMP JUMPDEST DUP3 MSTORE POP POP JUMP JUMPDEST PUSH0 PUSH1 0x20 DUP3 ADD SWAP1 POP PUSH2 0x7B3 PUSH0 DUP4 ADD DUP5 PUSH2 0x791 JUMP JUMPDEST SWAP3 SWAP2 POP POP JUMP JUMPDEST PUSH2 0x7C2 DUP2 PUSH2 0x760 JUMP JUMPDEST DUP2 EQ PUSH2 0x7CC JUMPI PUSH0 DUP1 REVERT JUMPDEST POP JUMP JUMPDEST PUSH0 DUP2 CALLDATALOAD SWAP1 POP PUSH2 0x7DD DUP2 PUSH2 0x7B9 JUMP JUMPDEST SWAP3 SWAP2 POP POP JUMP JUMPDEST PUSH0 PUSH1 0x20 DUP3 DUP5 SUB SLT ISZERO PUSH2 0x7F8 JUMPI PUSH2 0x7F7 PUSH2 0x6D7 JUMP JUMPDEST JUMPDEST PUSH0 PUSH2 0x805 DUP5 DUP3 DUP6 ADD PUSH2 0x7CF JUMP JUMPDEST SWAP2 POP POP SWAP3 SWAP2 POP POP JUMP JUMPDEST PUSH0 DUP3 DUP3 MSTORE PUSH1 0x20 DUP3 ADD SWAP1 POP SWAP3 SWAP2 POP POP JUMP JUMPDEST PUSH32 0x6469646E27742073656E6420656E6F7567682045544800000000000000000000 PUSH0 DUP3 ADD MSTORE POP JUMP JUMPDEST PUSH0 PUSH2 0x852 PUSH1 0x16 DUP4 PUSH2 0x80E JUMP JUMPDEST SWAP2 POP PUSH2 0x85D DUP3 PUSH2 0x81E JUMP JUMPDEST PUSH1 0x20 DUP3 ADD SWAP1 POP SWAP2 SWAP1 POP JUMP JUMPDEST PUSH0 PUSH1 0x20 DUP3 ADD SWAP1 POP DUP2 DUP2 SUB PUSH0 DUP4 ADD MSTORE PUSH2 0x87F DUP2 PUSH2 0x846 JUMP JUMPDEST SWAP1 POP SWAP2 SWAP1 POP JUMP JUMPDEST PUSH32 0x4E487B7100000000000000000000000000000000000000000000000000000000 PUSH0 MSTORE PUSH1 0x11 PUSH1 0x4 MSTORE PUSH1 0x24 PUSH0 REVERT JUMPDEST PUSH0 PUSH2 0x8BD DUP3 PUSH2 0x760 JUMP JUMPDEST SWAP2 POP PUSH2 0x8C8 DUP4 PUSH2 0x760 JUMP JUMPDEST SWAP3 POP DUP3 DUP3 ADD SWAP1 POP DUP1 DUP3 GT ISZERO PUSH2 0x8E0 JUMPI PUSH2 0x8DF PUSH2 0x886 JUMP JUMPDEST JUMPDEST SWAP3 SWAP2 POP POP JUMP JUMPDEST PUSH32 0x4E487B7100000000000000000000000000000000000000000000000000000000 PUSH0 MSTORE PUSH1 0x32 PUSH1 0x4 MSTORE PUSH1 0x24 PUSH0 REVERT JUMPDEST PUSH32 0x4E487B7100000000000000000000000000000000000000000000000000000000 PUSH0 MSTORE PUSH1 0x41 PUSH1 0x4 MSTORE PUSH1 0x24 PUSH0 REVERT JUMPDEST PUSH0 DUP2 SWAP1 POP SWAP3 SWAP2 POP POP JUMP JUMPDEST POP JUMP JUMPDEST PUSH0 PUSH2 0x958 PUSH0 DUP4 PUSH2 0x940 JUMP JUMPDEST SWAP2 POP PUSH2 0x963 DUP3 PUSH2 0x94A JUMP JUMPDEST PUSH0 DUP3 ADD SWAP1 POP SWAP2 SWAP1 POP JUMP JUMPDEST PUSH0 PUSH2 0x977 DUP3 PUSH2 0x94D JUMP JUMPDEST SWAP2 POP DUP2 SWAP1 POP SWAP2 SWAP1 POP JUMP JUMPDEST PUSH32 0x43616C6C206661696C6564000000000000000000000000000000000000000000 PUSH0 DUP3 ADD MSTORE POP JUMP JUMPDEST PUSH0 PUSH2 0x9B5 PUSH1 0xB DUP4 PUSH2 0x80E JUMP JUMPDEST SWAP2 POP PUSH2 0x9C0 DUP3 PUSH2 0x981 JUMP JUMPDEST PUSH1 0x20 DUP3 ADD SWAP1 POP SWAP2 SWAP1 POP JUMP JUMPDEST PUSH0 PUSH1 0x20 DUP3 ADD SWAP1 POP DUP2 DUP2 SUB PUSH0 DUP4 ADD MSTORE PUSH2 0x9E2 DUP2 PUSH2 0x9A9 JUMP JUMPDEST SWAP1 POP SWAP2 SWAP1 POP JUMP JUMPDEST PUSH0 PUSH2 0x9F3 DUP3 PUSH2 0x760 JUMP JUMPDEST SWAP2 POP PUSH2 0x9FE DUP4 PUSH2 0x760 JUMP JUMPDEST SWAP3 POP DUP3 DUP3 MUL PUSH2 0xA0C DUP2 PUSH2 0x760 JUMP JUMPDEST SWAP2 POP DUP3 DUP3 DIV DUP5 EQ DUP4 ISZERO OR PUSH2 0xA23 JUMPI PUSH2 0xA22 PUSH2 0x886 JUMP JUMPDEST JUMPDEST POP SWAP3 SWAP2 POP POP JUMP JUMPDEST PUSH32 0x4E487B7100000000000000000000000000000000000000000000000000000000 PUSH0 MSTORE PUSH1 0x12 PUSH1 0x4 MSTORE PUSH1 0x24 PUSH0 REVERT JUMPDEST PUSH0 PUSH2 0xA61 DUP3 PUSH2 0x760 JUMP JUMPDEST SWAP2 POP PUSH2 0xA6C DUP4 PUSH2 0x760 JUMP JUMPDEST SWAP3 POP DUP3 PUSH2 0xA7C JUMPI PUSH2 0xA7B PUSH2 0xA2A JUMP JUMPDEST JUMPDEST DUP3 DUP3 DIV SWAP1 POP SWAP3 SWAP2 POP POP JUMP JUMPDEST PUSH0 PUSH10 0xFFFFFFFFFFFFFFFFFFFF DUP3 AND SWAP1 POP SWAP2 SWAP1 POP JUMP JUMPDEST PUSH2 0xAA5 DUP2 PUSH2 0xA87 JUMP JUMPDEST DUP2 EQ PUSH2 0xAAF JUMPI PUSH0 DUP1 REVERT JUMPDEST POP JUMP JUMPDEST PUSH0 DUP2 MLOAD SWAP1 POP PUSH2 0xAC0 DUP2 PUSH2 0xA9C JUMP JUMPDEST SWAP3 SWAP2 POP POP JUMP JUMPDEST PUSH0 DUP2 SWAP1 POP SWAP2 SWAP1 POP JUMP JUMPDEST PUSH2 0xAD8 DUP2 PUSH2 0xAC6 JUMP JUMPDEST DUP2 EQ PUSH2 0xAE2 JUMPI PUSH0 DUP1 REVERT JUMPDEST POP JUMP JUMPDEST PUSH0 DUP2 MLOAD SWAP1 POP PUSH2 0xAF3 DUP2 PUSH2 0xACF JUMP JUMPDEST SWAP3 SWAP2 POP POP JUMP JUMPDEST PUSH0 DUP2 MLOAD SWAP1 POP PUSH2 0xB07 DUP2 PUSH2 0x7B9 JUMP JUMPDEST SWAP3 SWAP2 POP POP JUMP JUMPDEST PUSH0 DUP1 PUSH0 DUP1 PUSH0 PUSH1 0xA0 DUP7 DUP9 SUB SLT ISZERO PUSH2 0xB26 JUMPI PUSH2 0xB25 PUSH2 0x6D7 JUMP JUMPDEST JUMPDEST PUSH0 PUSH2 0xB33 DUP9 DUP3 DUP10 ADD PUSH2 0xAB2 JUMP JUMPDEST SWAP6 POP POP PUSH1 0x20 PUSH2 0xB44 DUP9 DUP3 DUP10 ADD PUSH2 0xAE5 JUMP JUMPDEST SWAP5 POP POP PUSH1 0x40 PUSH2 0xB55 DUP9 DUP3 DUP10 ADD PUSH2 0xAF9 JUMP JUMPDEST SWAP4 POP POP PUSH1 0x60 PUSH2 0xB66 DUP9 DUP3 DUP10 ADD PUSH2 0xAF9 JUMP JUMPDEST SWAP3 POP POP PUSH1 0x80 PUSH2 0xB77 DUP9 DUP3 DUP10 ADD PUSH2 0xAB2 JUMP JUMPDEST SWAP2 POP POP SWAP3 SWAP6 POP SWAP3 SWAP6 SWAP1 SWAP4 POP JUMP JUMPDEST PUSH0 PUSH2 0xB8E DUP3 PUSH2 0xAC6 JUMP JUMPDEST SWAP2 POP PUSH2 0xB99 DUP4 PUSH2 0xAC6 JUMP JUMPDEST SWAP3 POP DUP3 DUP3 MUL PUSH2 0xBA7 DUP2 PUSH2 0xAC6 JUMP JUMPDEST SWAP2 POP PUSH32 0x8000000000000000000000000000000000000000000000000000000000000000 DUP5 EQ PUSH0 DUP5 SLT AND ISZERO PUSH2 0xBDE JUMPI PUSH2 0xBDD PUSH2 0x886 JUMP JUMPDEST JUMPDEST DUP3 DUP3 SDIV DUP5 EQ DUP4 ISZERO OR PUSH2 0xBF3 JUMPI PUSH2 0xBF2 PUSH2 0x886 JUMP JUMPDEST JUMPDEST POP SWAP3 SWAP2 POP POP JUMP INVALID LOG2 PUSH5 0x6970667358 0x22 SLT KECCAK256 0xAA SAR MCOPY DUP2 0x2E 0xC0 LOG3 EXP 0xB7 PUSH1 0xD6 0x24 BLOBHASH SELFBALANCE RETURNDATASIZE ISZERO 0x1F LOG0 SWAP11 0x4F 0xC1 0xE7 0xE 0xAE EXTCODECOPY 0xFC PUSH2 0xC89A BLOBBASEFEE ISZERO 0xBB PUSH5 0x736F6C6343 STOP ADDMOD XOR STOP CALLER "
				},
				"gasEstimates": {
					"creation": {
						"codeDepositCost": "624000",
						"executionCost": "infinite",
						"totalCost": "infinite"
					},
					"external": {
						"": "infinite",
						"MINIMUM_USD()": "370",
						"MY_VALUE()": "391",
						"addressToAmountFunded(address)": "2825",
						"fund()": "infinite",
						"funders(uint256)": "4987",
						"i_owner()": "infinite",
						"withdraw()": "infinite"
					}
				},
				"methodIdentifiers": {
					"MINIMUM_USD()": "6b69a592",
					"MY_VALUE()": "f82585a4",
					"addressToAmountFunded(address)": "3e47d6f3",
					"fund()": "b60d4288",
					"funders(uint256)": "dc0d3dff",
					"i_owner()": "dba6335f",
					"withdraw()": "3ccfd60b"
				}
			},
			"storageLayout": {
				"storage": [
					{
						"astId": 68,
						"contract": "contracts/FundMe03.sol:FundMe",
						"label": "funders",
						"offset": 0,
						"slot": "0",
						"type": "t_array(t_address)dyn_storage"
					},
					{
						"astId": 72,
						"contract": "contracts/FundMe03.sol:FundMe",
						"label": "addressToAmountFunded",
						"offset": 0,
						"slot": "1",
						"type": "t_mapping(t_address,t_uint256)"
					}
				],
				"types": {
					"t_address": {
						"encoding": "inplace",
						"label": "address",
						"numberOfBytes": "20"
					},
					"t_array(t_address)dyn_storage": {
						"base": "t_address",
						"encoding": "dynamic_array",
						"label": "address[]",
						"numberOfBytes": "32"
					},
					"t_mapping(t_address,t_uint256)": {
						"encoding": "mapping",
						"key": "t_address",
						"label": "mapping(address => uint256)",
						"numberOfBytes": "32",
						"value": "t_uint256"
					},
					"t_uint256": {
						"encoding": "inplace",
						"label": "uint256",
						"numberOfBytes": "32"
					}
				}
			},
			"userdoc": {
				"kind": "user",
				"methods": {},
				"version": 1
			}
		}
	}
}