{
	"contracts/DataConsumerV3.sol": {
		"DataConsumerV3": {
			"abi": [
				{
					"inputs": [],
					"stateMutability": "nonpayable",
					"type": "constructor"
				},
				{
					"inputs": [],
					"name": "getChainlinkDataFeedLatestAnswer",
					"outputs": [
						{
							"internalType": "int256",
							"name": "",
							"type": "int256"
						}
					],
					"stateMutability": "view",
					"type": "function"
				},
				{
					"inputs": [],
					"name": "getDecimals",
					"outputs": [
						{
							"internalType": "uint8",
							"name": "",
							"type": "uint8"
						}
					],
					"stateMutability": "view",
					"type": "function"
				}
			],
			"devdoc": {
				"kind": "dev",
				"methods": {},
				"version": 1
			},
			"evm": {
				"assembly": "    /* \"contracts/DataConsumerV3.sol\":1336:2414  contract DataConsumerV3 {... */\n  mstore(0x40, 0x80)\n    /* \"contracts/DataConsumerV3.sol\":1538:1667  constructor() {... */\n  callvalue\n  dup1\n  iszero\n  tag_1\n  jumpi\n  0x00\n  dup1\n  revert\ntag_1:\n  pop\n    /* \"contracts/DataConsumerV3.sol\":1608:1650  0x694AA1769357215DE4FAC081bf1f309aDC325306 */\n  0x694aa1769357215de4fac081bf1f309adc325306\n    /* \"contracts/DataConsumerV3.sol\":1562:1570  dataFeed */\n  0x00\n  dup1\n    /* \"contracts/DataConsumerV3.sol\":1562:1660  dataFeed = AggregatorV3Interface(... */\n  0x0100\n  exp\n  dup2\n  sload\n  dup2\n  0xffffffffffffffffffffffffffffffffffffffff\n  mul\n  not\n  and\n  swap1\n  dup4\n  0xffffffffffffffffffffffffffffffffffffffff\n  and\n  mul\n  or\n  swap1\n  sstore\n  pop\n    /* \"contracts/DataConsumerV3.sol\":1336:2414  contract DataConsumerV3 {... */\n  dataSize(sub_0)\n  dup1\n  dataOffset(sub_0)\n  0x00\n  codecopy\n  0x00\n  return\nstop\n\nsub_0: assembly {\n        /* \"contracts/DataConsumerV3.sol\":1336:2414  contract DataConsumerV3 {... */\n      mstore(0x40, 0x80)\n      callvalue\n      dup1\n      iszero\n      tag_1\n      jumpi\n      0x00\n      dup1\n      revert\n    tag_1:\n      pop\n      jumpi(tag_2, lt(calldatasize, 0x04))\n      shr(0xe0, calldataload(0x00))\n      dup1\n      0xbea4dfb5\n      eq\n      tag_3\n      jumpi\n      dup1\n      0xf0141d84\n      eq\n      tag_4\n      jumpi\n    tag_2:\n      0x00\n      dup1\n      revert\n        /* \"contracts/DataConsumerV3.sol\":1723:2153  function getChainlinkDataFeedLatestAnswer() public view returns (int) {... */\n    tag_3:\n      tag_5\n      tag_6\n      jump\t// in\n    tag_5:\n      mload(0x40)\n      tag_7\n      swap2\n      swap1\n      tag_8\n      jump\t// in\n    tag_7:\n      mload(0x40)\n      dup1\n      swap2\n      sub\n      swap1\n      return\n        /* \"contracts/DataConsumerV3.sol\":2250:2407  function getDecimals() external view returns (uint8) {... */\n    tag_4:\n      tag_9\n      tag_10\n      jump\t// in\n    tag_9:\n      mload(0x40)\n      tag_11\n      swap2\n      swap1\n      tag_12\n      jump\t// in\n    tag_11:\n      mload(0x40)\n      dup1\n      swap2\n      sub\n      swap1\n      return\n        /* \"contracts/DataConsumerV3.sol\":1723:2153  function getChainlinkDataFeedLatestAnswer() public view returns (int) {... */\n    tag_6:\n        /* \"contracts/DataConsumerV3.sol\":1788:1791  int */\n      0x00\n        /* \"contracts/DataConsumerV3.sol\":1878:1888  int answer */\n      dup1\n        /* \"contracts/DataConsumerV3.sol\":2005:2013  dataFeed */\n      0x00\n      dup1\n      sload\n      swap1\n      0x0100\n      exp\n      swap1\n      div\n      0xffffffffffffffffffffffffffffffffffffffff\n      and\n        /* \"contracts/DataConsumerV3.sol\":2005:2029  dataFeed.latestRoundData */\n      0xffffffffffffffffffffffffffffffffffffffff\n      and\n      0xfeaf968c\n        /* \"contracts/DataConsumerV3.sol\":2005:2031  dataFeed.latestRoundData() */\n      mload(0x40)\n      dup2\n      0xffffffff\n      and\n      0xe0\n      shl\n      dup2\n      mstore\n      0x04\n      add\n      0xa0\n      mload(0x40)\n      dup1\n      dup4\n      sub\n      dup2\n      dup7\n      gas\n      staticcall\n      iszero\n      dup1\n      iszero\n      tag_15\n      jumpi\n      returndatasize\n      0x00\n      dup1\n      returndatacopy\n      revert(0x00, returndatasize)\n    tag_15:\n      pop\n      pop\n      pop\n      pop\n      mload(0x40)\n      returndatasize\n      not(0x1f)\n      0x1f\n      dup3\n      add\n      and\n      dup3\n      add\n      dup1\n      0x40\n      mstore\n      pop\n      dup2\n      add\n      swap1\n      tag_16\n      swap2\n      swap1\n      tag_17\n      jump\t// in\n    tag_16:\n        /* \"contracts/DataConsumerV3.sol\":1830:2031  (... */\n      pop\n      pop\n      pop\n      swap2\n      pop\n      pop\n        /* \"contracts/DataConsumerV3.sol\":2048:2054  answer */\n      dup1\n        /* \"contracts/DataConsumerV3.sol\":2041:2054  return answer */\n      swap2\n      pop\n      pop\n        /* \"contracts/DataConsumerV3.sol\":1723:2153  function getChainlinkDataFeedLatestAnswer() public view returns (int) {... */\n      swap1\n      jump\t// out\n        /* \"contracts/DataConsumerV3.sol\":2250:2407  function getDecimals() external view returns (uint8) {... */\n    tag_10:\n        /* \"contracts/DataConsumerV3.sol\":2296:2301  uint8 */\n      0x00\n        /* \"contracts/DataConsumerV3.sol\":2327:2340  uint8 decimal */\n      dup1\n        /* \"contracts/DataConsumerV3.sol\":2352:2360  dataFeed */\n      0x00\n      dup1\n      sload\n      swap1\n      0x0100\n      exp\n      swap1\n      div\n      0xffffffffffffffffffffffffffffffffffffffff\n      and\n        /* \"contracts/DataConsumerV3.sol\":2352:2369  dataFeed.decimals */\n      0xffffffffffffffffffffffffffffffffffffffff\n      and\n      0x313ce567\n        /* \"contracts/DataConsumerV3.sol\":2352:2371  dataFeed.decimals() */\n      mload(0x40)\n      dup2\n      0xffffffff\n      and\n      0xe0\n      shl\n      dup2\n      mstore\n      0x04\n      add\n      0x20\n      mload(0x40)\n      dup1\n      dup4\n      sub\n      dup2\n      dup7\n      gas\n      staticcall\n      iszero\n      dup1\n      iszero\n      tag_20\n      jumpi\n      returndatasize\n      0x00\n      dup1\n      returndatacopy\n      revert(0x00, returndatasize)\n    tag_20:\n      pop\n      pop\n      pop\n      pop\n      mload(0x40)\n      returndatasize\n      not(0x1f)\n      0x1f\n      dup3\n      add\n      and\n      dup3\n      add\n      dup1\n      0x40\n      mstore\n      pop\n      dup2\n      add\n      swap1\n      tag_21\n      swap2\n      swap1\n      tag_22\n      jump\t// in\n    tag_21:\n        /* \"contracts/DataConsumerV3.sol\":2313:2371  (... */\n      swap1\n      pop\n        /* \"contracts/DataConsumerV3.sol\":2388:2395  decimal */\n      dup1\n        /* \"contracts/DataConsumerV3.sol\":2381:2395  return decimal */\n      swap2\n      pop\n      pop\n        /* \"contracts/DataConsumerV3.sol\":2250:2407  function getDecimals() external view returns (uint8) {... */\n      swap1\n      jump\t// out\n        /* \"#utility.yul\":7:83   */\n    tag_23:\n        /* \"#utility.yul\":43:50   */\n      0x00\n        /* \"#utility.yul\":72:77   */\n      dup2\n        /* \"#utility.yul\":61:77   */\n      swap1\n      pop\n        /* \"#utility.yul\":7:83   */\n      swap2\n      swap1\n      pop\n      jump\t// out\n        /* \"#utility.yul\":89:204   */\n    tag_24:\n        /* \"#utility.yul\":174:197   */\n      tag_43\n        /* \"#utility.yul\":191:196   */\n      dup2\n        /* \"#utility.yul\":174:197   */\n      tag_23\n      jump\t// in\n    tag_43:\n        /* \"#utility.yul\":169:172   */\n      dup3\n        /* \"#utility.yul\":162:198   */\n      mstore\n        /* \"#utility.yul\":89:204   */\n      pop\n      pop\n      jump\t// out\n        /* \"#utility.yul\":210:428   */\n    tag_8:\n        /* \"#utility.yul\":301:305   */\n      0x00\n        /* \"#utility.yul\":339:341   */\n      0x20\n        /* \"#utility.yul\":328:337   */\n      dup3\n        /* \"#utility.yul\":324:342   */\n      add\n        /* \"#utility.yul\":316:342   */\n      swap1\n      pop\n        /* \"#utility.yul\":352:421   */\n      tag_45\n        /* \"#utility.yul\":418:419   */\n      0x00\n        /* \"#utility.yul\":407:416   */\n      dup4\n        /* \"#utility.yul\":403:420   */\n      add\n        /* \"#utility.yul\":394:400   */\n      dup5\n        /* \"#utility.yul\":352:421   */\n      tag_24\n      jump\t// in\n    tag_45:\n        /* \"#utility.yul\":210:428   */\n      swap3\n      swap2\n      pop\n      pop\n      jump\t// out\n        /* \"#utility.yul\":434:520   */\n    tag_25:\n        /* \"#utility.yul\":469:476   */\n      0x00\n        /* \"#utility.yul\":509:513   */\n      0xff\n        /* \"#utility.yul\":502:507   */\n      dup3\n        /* \"#utility.yul\":498:514   */\n      and\n        /* \"#utility.yul\":487:514   */\n      swap1\n      pop\n        /* \"#utility.yul\":434:520   */\n      swap2\n      swap1\n      pop\n      jump\t// out\n        /* \"#utility.yul\":526:638   */\n    tag_26:\n        /* \"#utility.yul\":609:631   */\n      tag_48\n        /* \"#utility.yul\":625:630   */\n      dup2\n        /* \"#utility.yul\":609:631   */\n      tag_25\n      jump\t// in\n    tag_48:\n        /* \"#utility.yul\":604:607   */\n      dup3\n        /* \"#utility.yul\":597:632   */\n      mstore\n        /* \"#utility.yul\":526:638   */\n      pop\n      pop\n      jump\t// out\n        /* \"#utility.yul\":644:858   */\n    tag_12:\n        /* \"#utility.yul\":733:737   */\n      0x00\n        /* \"#utility.yul\":771:773   */\n      0x20\n        /* \"#utility.yul\":760:769   */\n      dup3\n        /* \"#utility.yul\":756:774   */\n      add\n        /* \"#utility.yul\":748:774   */\n      swap1\n      pop\n        /* \"#utility.yul\":784:851   */\n      tag_50\n        /* \"#utility.yul\":848:849   */\n      0x00\n        /* \"#utility.yul\":837:846   */\n      dup4\n        /* \"#utility.yul\":833:850   */\n      add\n        /* \"#utility.yul\":824:830   */\n      dup5\n        /* \"#utility.yul\":784:851   */\n      tag_26\n      jump\t// in\n    tag_50:\n        /* \"#utility.yul\":644:858   */\n      swap3\n      swap2\n      pop\n      pop\n      jump\t// out\n        /* \"#utility.yul\":945:1062   */\n    tag_28:\n        /* \"#utility.yul\":1054:1055   */\n      0x00\n        /* \"#utility.yul\":1051:1052   */\n      dup1\n        /* \"#utility.yul\":1044:1056   */\n      revert\n        /* \"#utility.yul\":1191:1296   */\n    tag_30:\n        /* \"#utility.yul\":1227:1234   */\n      0x00\n        /* \"#utility.yul\":1267:1289   */\n      0xffffffffffffffffffff\n        /* \"#utility.yul\":1260:1265   */\n      dup3\n        /* \"#utility.yul\":1256:1290   */\n      and\n        /* \"#utility.yul\":1245:1290   */\n      swap1\n      pop\n        /* \"#utility.yul\":1191:1296   */\n      swap2\n      swap1\n      pop\n      jump\t// out\n        /* \"#utility.yul\":1302:1422   */\n    tag_31:\n        /* \"#utility.yul\":1374:1397   */\n      tag_56\n        /* \"#utility.yul\":1391:1396   */\n      dup2\n        /* \"#utility.yul\":1374:1397   */\n      tag_30\n      jump\t// in\n    tag_56:\n        /* \"#utility.yul\":1367:1372   */\n      dup2\n        /* \"#utility.yul\":1364:1398   */\n      eq\n        /* \"#utility.yul\":1354:1416   */\n      tag_57\n      jumpi\n        /* \"#utility.yul\":1412:1413   */\n      0x00\n        /* \"#utility.yul\":1409:1410   */\n      dup1\n        /* \"#utility.yul\":1402:1414   */\n      revert\n        /* \"#utility.yul\":1354:1416   */\n    tag_57:\n        /* \"#utility.yul\":1302:1422   */\n      pop\n      jump\t// out\n        /* \"#utility.yul\":1428:1569   */\n    tag_32:\n        /* \"#utility.yul\":1484:1489   */\n      0x00\n        /* \"#utility.yul\":1515:1521   */\n      dup2\n        /* \"#utility.yul\":1509:1522   */\n      mload\n        /* \"#utility.yul\":1500:1522   */\n      swap1\n      pop\n        /* \"#utility.yul\":1531:1563   */\n      tag_59\n        /* \"#utility.yul\":1557:1562   */\n      dup2\n        /* \"#utility.yul\":1531:1563   */\n      tag_31\n      jump\t// in\n    tag_59:\n        /* \"#utility.yul\":1428:1569   */\n      swap3\n      swap2\n      pop\n      pop\n      jump\t// out\n        /* \"#utility.yul\":1575:1695   */\n    tag_33:\n        /* \"#utility.yul\":1647:1670   */\n      tag_61\n        /* \"#utility.yul\":1664:1669   */\n      dup2\n        /* \"#utility.yul\":1647:1670   */\n      tag_23\n      jump\t// in\n    tag_61:\n        /* \"#utility.yul\":1640:1645   */\n      dup2\n        /* \"#utility.yul\":1637:1671   */\n      eq\n        /* \"#utility.yul\":1627:1689   */\n      tag_62\n      jumpi\n        /* \"#utility.yul\":1685:1686   */\n      0x00\n        /* \"#utility.yul\":1682:1683   */\n      dup1\n        /* \"#utility.yul\":1675:1687   */\n      revert\n        /* \"#utility.yul\":1627:1689   */\n    tag_62:\n        /* \"#utility.yul\":1575:1695   */\n      pop\n      jump\t// out\n        /* \"#utility.yul\":1701:1842   */\n    tag_34:\n        /* \"#utility.yul\":1757:1762   */\n      0x00\n        /* \"#utility.yul\":1788:1794   */\n      dup2\n        /* \"#utility.yul\":1782:1795   */\n      mload\n        /* \"#utility.yul\":1773:1795   */\n      swap1\n      pop\n        /* \"#utility.yul\":1804:1836   */\n      tag_64\n        /* \"#utility.yul\":1830:1835   */\n      dup2\n        /* \"#utility.yul\":1804:1836   */\n      tag_33\n      jump\t// in\n    tag_64:\n        /* \"#utility.yul\":1701:1842   */\n      swap3\n      swap2\n      pop\n      pop\n      jump\t// out\n        /* \"#utility.yul\":1848:1925   */\n    tag_35:\n        /* \"#utility.yul\":1885:1892   */\n      0x00\n        /* \"#utility.yul\":1914:1919   */\n      dup2\n        /* \"#utility.yul\":1903:1919   */\n      swap1\n      pop\n        /* \"#utility.yul\":1848:1925   */\n      swap2\n      swap1\n      pop\n      jump\t// out\n        /* \"#utility.yul\":1931:2053   */\n    tag_36:\n        /* \"#utility.yul\":2004:2028   */\n      tag_67\n        /* \"#utility.yul\":2022:2027   */\n      dup2\n        /* \"#utility.yul\":2004:2028   */\n      tag_35\n      jump\t// in\n    tag_67:\n        /* \"#utility.yul\":1997:2002   */\n      dup2\n        /* \"#utility.yul\":1994:2029   */\n      eq\n        /* \"#utility.yul\":1984:2047   */\n      tag_68\n      jumpi\n        /* \"#utility.yul\":2043:2044   */\n      0x00\n        /* \"#utility.yul\":2040:2041   */\n      dup1\n        /* \"#utility.yul\":2033:2045   */\n      revert\n        /* \"#utility.yul\":1984:2047   */\n    tag_68:\n        /* \"#utility.yul\":1931:2053   */\n      pop\n      jump\t// out\n        /* \"#utility.yul\":2059:2202   */\n    tag_37:\n        /* \"#utility.yul\":2116:2121   */\n      0x00\n        /* \"#utility.yul\":2147:2153   */\n      dup2\n        /* \"#utility.yul\":2141:2154   */\n      mload\n        /* \"#utility.yul\":2132:2154   */\n      swap1\n      pop\n        /* \"#utility.yul\":2163:2196   */\n      tag_70\n        /* \"#utility.yul\":2190:2195   */\n      dup2\n        /* \"#utility.yul\":2163:2196   */\n      tag_36\n      jump\t// in\n    tag_70:\n        /* \"#utility.yul\":2059:2202   */\n      swap3\n      swap2\n      pop\n      pop\n      jump\t// out\n        /* \"#utility.yul\":2208:3179   */\n    tag_17:\n        /* \"#utility.yul\":2311:2317   */\n      0x00\n        /* \"#utility.yul\":2319:2325   */\n      dup1\n        /* \"#utility.yul\":2327:2333   */\n      0x00\n        /* \"#utility.yul\":2335:2341   */\n      dup1\n        /* \"#utility.yul\":2343:2349   */\n      0x00\n        /* \"#utility.yul\":2392:2395   */\n      0xa0\n        /* \"#utility.yul\":2380:2389   */\n      dup7\n        /* \"#utility.yul\":2371:2378   */\n      dup9\n        /* \"#utility.yul\":2367:2390   */\n      sub\n        /* \"#utility.yul\":2363:2396   */\n      slt\n        /* \"#utility.yul\":2360:2480   */\n      iszero\n      tag_72\n      jumpi\n        /* \"#utility.yul\":2399:2478   */\n      tag_73\n      tag_28\n      jump\t// in\n    tag_73:\n        /* \"#utility.yul\":2360:2480   */\n    tag_72:\n        /* \"#utility.yul\":2519:2520   */\n      0x00\n        /* \"#utility.yul\":2544:2607   */\n      tag_74\n        /* \"#utility.yul\":2599:2606   */\n      dup9\n        /* \"#utility.yul\":2590:2596   */\n      dup3\n        /* \"#utility.yul\":2579:2588   */\n      dup10\n        /* \"#utility.yul\":2575:2597   */\n      add\n        /* \"#utility.yul\":2544:2607   */\n      tag_32\n      jump\t// in\n    tag_74:\n        /* \"#utility.yul\":2534:2607   */\n      swap6\n      pop\n        /* \"#utility.yul\":2490:2617   */\n      pop\n        /* \"#utility.yul\":2656:2658   */\n      0x20\n        /* \"#utility.yul\":2682:2745   */\n      tag_75\n        /* \"#utility.yul\":2737:2744   */\n      dup9\n        /* \"#utility.yul\":2728:2734   */\n      dup3\n        /* \"#utility.yul\":2717:2726   */\n      dup10\n        /* \"#utility.yul\":2713:2735   */\n      add\n        /* \"#utility.yul\":2682:2745   */\n      tag_34\n      jump\t// in\n    tag_75:\n        /* \"#utility.yul\":2672:2745   */\n      swap5\n      pop\n        /* \"#utility.yul\":2627:2755   */\n      pop\n        /* \"#utility.yul\":2794:2796   */\n      0x40\n        /* \"#utility.yul\":2820:2884   */\n      tag_76\n        /* \"#utility.yul\":2876:2883   */\n      dup9\n        /* \"#utility.yul\":2867:2873   */\n      dup3\n        /* \"#utility.yul\":2856:2865   */\n      dup10\n        /* \"#utility.yul\":2852:2874   */\n      add\n        /* \"#utility.yul\":2820:2884   */\n      tag_37\n      jump\t// in\n    tag_76:\n        /* \"#utility.yul\":2810:2884   */\n      swap4\n      pop\n        /* \"#utility.yul\":2765:2894   */\n      pop\n        /* \"#utility.yul\":2933:2935   */\n      0x60\n        /* \"#utility.yul\":2959:3023   */\n      tag_77\n        /* \"#utility.yul\":3015:3022   */\n      dup9\n        /* \"#utility.yul\":3006:3012   */\n      dup3\n        /* \"#utility.yul\":2995:3004   */\n      dup10\n        /* \"#utility.yul\":2991:3013   */\n      add\n        /* \"#utility.yul\":2959:3023   */\n      tag_37\n      jump\t// in\n    tag_77:\n        /* \"#utility.yul\":2949:3023   */\n      swap3\n      pop\n        /* \"#utility.yul\":2904:3033   */\n      pop\n        /* \"#utility.yul\":3072:3075   */\n      0x80\n        /* \"#utility.yul\":3099:3162   */\n      tag_78\n        /* \"#utility.yul\":3154:3161   */\n      dup9\n        /* \"#utility.yul\":3145:3151   */\n      dup3\n        /* \"#utility.yul\":3134:3143   */\n      dup10\n        /* \"#utility.yul\":3130:3152   */\n      add\n        /* \"#utility.yul\":3099:3162   */\n      tag_32\n      jump\t// in\n    tag_78:\n        /* \"#utility.yul\":3089:3162   */\n      swap2\n      pop\n        /* \"#utility.yul\":3043:3172   */\n      pop\n        /* \"#utility.yul\":2208:3179   */\n      swap3\n      swap6\n      pop\n      swap3\n      swap6\n      swap1\n      swap4\n      pop\n      jump\t// out\n        /* \"#utility.yul\":3185:3303   */\n    tag_38:\n        /* \"#utility.yul\":3256:3278   */\n      tag_80\n        /* \"#utility.yul\":3272:3277   */\n      dup2\n        /* \"#utility.yul\":3256:3278   */\n      tag_25\n      jump\t// in\n    tag_80:\n        /* \"#utility.yul\":3249:3254   */\n      dup2\n        /* \"#utility.yul\":3246:3279   */\n      eq\n        /* \"#utility.yul\":3236:3297   */\n      tag_81\n      jumpi\n        /* \"#utility.yul\":3293:3294   */\n      0x00\n        /* \"#utility.yul\":3290:3291   */\n      dup1\n        /* \"#utility.yul\":3283:3295   */\n      revert\n        /* \"#utility.yul\":3236:3297   */\n    tag_81:\n        /* \"#utility.yul\":3185:3303   */\n      pop\n      jump\t// out\n        /* \"#utility.yul\":3309:3448   */\n    tag_39:\n        /* \"#utility.yul\":3364:3369   */\n      0x00\n        /* \"#utility.yul\":3395:3401   */\n      dup2\n        /* \"#utility.yul\":3389:3402   */\n      mload\n        /* \"#utility.yul\":3380:3402   */\n      swap1\n      pop\n        /* \"#utility.yul\":3411:3442   */\n      tag_83\n        /* \"#utility.yul\":3436:3441   */\n      dup2\n        /* \"#utility.yul\":3411:3442   */\n      tag_38\n      jump\t// in\n    tag_83:\n        /* \"#utility.yul\":3309:3448   */\n      swap3\n      swap2\n      pop\n      pop\n      jump\t// out\n        /* \"#utility.yul\":3454:3801   */\n    tag_22:\n        /* \"#utility.yul\":3522:3528   */\n      0x00\n        /* \"#utility.yul\":3571:3573   */\n      0x20\n        /* \"#utility.yul\":3559:3568   */\n      dup3\n        /* \"#utility.yul\":3550:3557   */\n      dup5\n        /* \"#utility.yul\":3546:3569   */\n      sub\n        /* \"#utility.yul\":3542:3574   */\n      slt\n        /* \"#utility.yul\":3539:3658   */\n      iszero\n      tag_85\n      jumpi\n        /* \"#utility.yul\":3577:3656   */\n      tag_86\n      tag_28\n      jump\t// in\n    tag_86:\n        /* \"#utility.yul\":3539:3658   */\n    tag_85:\n        /* \"#utility.yul\":3697:3698   */\n      0x00\n        /* \"#utility.yul\":3722:3784   */\n      tag_87\n        /* \"#utility.yul\":3776:3783   */\n      dup5\n        /* \"#utility.yul\":3767:3773   */\n      dup3\n        /* \"#utility.yul\":3756:3765   */\n      dup6\n        /* \"#utility.yul\":3752:3774   */\n      add\n        /* \"#utility.yul\":3722:3784   */\n      tag_39\n      jump\t// in\n    tag_87:\n        /* \"#utility.yul\":3712:3784   */\n      swap2\n      pop\n        /* \"#utility.yul\":3668:3794   */\n      pop\n        /* \"#utility.yul\":3454:3801   */\n      swap3\n      swap2\n      pop\n      pop\n      jump\t// out\n\n    auxdata: 0xa264697066735822122053476bb18bc8f721c83a5fa12849788642cbb7b8e159c3484e032996998f449664736f6c634300081a0033\n}\n",
				"bytecode": {
					"linkReferences": {},
					"object": "6080604052348015600e575f80fd5b5073694aa1769357215de4fac081bf1f309adc3253065f806101000a81548173ffffffffffffffffffffffffffffffffffffffff021916908373ffffffffffffffffffffffffffffffffffffffff1602179055506103ad8061006f5f395ff3fe608060405234801561000f575f80fd5b5060043610610034575f3560e01c8063bea4dfb514610038578063f0141d8414610056575b5f80fd5b610040610074565b60405161004d91906101be565b60405180910390f35b61005e61010f565b60405161006b91906101f2565b60405180910390f35b5f805f8054906101000a900473ffffffffffffffffffffffffffffffffffffffff1673ffffffffffffffffffffffffffffffffffffffff1663feaf968c6040518163ffffffff1660e01b815260040160a060405180830381865afa1580156100de573d5f803e3d5ffd5b505050506040513d601f19601f8201168201806040525081019061010291906102ab565b5050509150508091505090565b5f805f8054906101000a900473ffffffffffffffffffffffffffffffffffffffff1673ffffffffffffffffffffffffffffffffffffffff1663313ce5676040518163ffffffff1660e01b8152600401602060405180830381865afa158015610179573d5f803e3d5ffd5b505050506040513d601f19601f8201168201806040525081019061019d919061034c565b90508091505090565b5f819050919050565b6101b8816101a6565b82525050565b5f6020820190506101d15f8301846101af565b92915050565b5f60ff82169050919050565b6101ec816101d7565b82525050565b5f6020820190506102055f8301846101e3565b92915050565b5f80fd5b5f69ffffffffffffffffffff82169050919050565b61022d8161020f565b8114610237575f80fd5b50565b5f8151905061024881610224565b92915050565b610257816101a6565b8114610261575f80fd5b50565b5f815190506102728161024e565b92915050565b5f819050919050565b61028a81610278565b8114610294575f80fd5b50565b5f815190506102a581610281565b92915050565b5f805f805f60a086880312156102c4576102c361020b565b5b5f6102d18882890161023a565b95505060206102e288828901610264565b94505060406102f388828901610297565b935050606061030488828901610297565b92505060806103158882890161023a565b9150509295509295909350565b61032b816101d7565b8114610335575f80fd5b50565b5f8151905061034681610322565b92915050565b5f602082840312156103615761036061020b565b5b5f61036e84828501610338565b9150509291505056fea264697066735822122053476bb18bc8f721c83a5fa12849788642cbb7b8e159c3484e032996998f449664736f6c634300081a0033",
					"opcodes": "PUSH1 0x80 PUSH1 0x40 MSTORE CALLVALUE DUP1 ISZERO PUSH1 0xE JUMPI PUSH0 DUP1 REVERT JUMPDEST POP PUSH20 0x694AA1769357215DE4FAC081BF1F309ADC325306 PUSH0 DUP1 PUSH2 0x100 EXP DUP2 SLOAD DUP2 PUSH20 0xFFFFFFFFFFFFFFFFFFFFFFFFFFFFFFFFFFFFFFFF MUL NOT AND SWAP1 DUP4 PUSH20 0xFFFFFFFFFFFFFFFFFFFFFFFFFFFFFFFFFFFFFFFF AND MUL OR SWAP1 SSTORE POP PUSH2 0x3AD DUP1 PUSH2 0x6F PUSH0 CODECOPY PUSH0 RETURN INVALID PUSH1 0x80 PUSH1 0x40 MSTORE CALLVALUE DUP1 ISZERO PUSH2 0xF JUMPI PUSH0 DUP1 REVERT JUMPDEST POP PUSH1 0x4 CALLDATASIZE LT PUSH2 0x34 JUMPI PUSH0 CALLDATALOAD PUSH1 0xE0 SHR DUP1 PUSH4 0xBEA4DFB5 EQ PUSH2 0x38 JUMPI DUP1 PUSH4 0xF0141D84 EQ PUSH2 0x56 JUMPI JUMPDEST PUSH0 DUP1 REVERT JUMPDEST PUSH2 0x40 PUSH2 0x74 JUMP JUMPDEST PUSH1 0x40 MLOAD PUSH2 0x4D SWAP2 SWAP1 PUSH2 0x1BE JUMP JUMPDEST PUSH1 0x40 MLOAD DUP1 SWAP2 SUB SWAP1 RETURN JUMPDEST PUSH2 0x5E PUSH2 0x10F JUMP JUMPDEST PUSH1 0x40 MLOAD PUSH2 0x6B SWAP2 SWAP1 PUSH2 0x1F2 JUMP JUMPDEST PUSH1 0x40 MLOAD DUP1 SWAP2 SUB SWAP1 RETURN JUMPDEST PUSH0 DUP1 PUSH0 DUP1 SLOAD SWAP1 PUSH2 0x100 EXP SWAP1 DIV PUSH20 0xFFFFFFFFFFFFFFFFFFFFFFFFFFFFFFFFFFFFFFFF AND PUSH20 0xFFFFFFFFFFFFFFFFFFFFFFFFFFFFFFFFFFFFFFFF AND PUSH4 0xFEAF968C PUSH1 0x40 MLOAD DUP2 PUSH4 0xFFFFFFFF AND PUSH1 0xE0 SHL DUP2 MSTORE PUSH1 0x4 ADD PUSH1 0xA0 PUSH1 0x40 MLOAD DUP1 DUP4 SUB DUP2 DUP7 GAS STATICCALL ISZERO DUP1 ISZERO PUSH2 0xDE JUMPI RETURNDATASIZE PUSH0 DUP1 RETURNDATACOPY RETURNDATASIZE PUSH0 REVERT JUMPDEST POP POP POP POP PUSH1 0x40 MLOAD RETURNDATASIZE PUSH1 0x1F NOT PUSH1 0x1F DUP3 ADD AND DUP3 ADD DUP1 PUSH1 0x40 MSTORE POP DUP2 ADD SWAP1 PUSH2 0x102 SWAP2 SWAP1 PUSH2 0x2AB JUMP JUMPDEST POP POP POP SWAP2 POP POP DUP1 SWAP2 POP POP SWAP1 JUMP JUMPDEST PUSH0 DUP1 PUSH0 DUP1 SLOAD SWAP1 PUSH2 0x100 EXP SWAP1 DIV PUSH20 0xFFFFFFFFFFFFFFFFFFFFFFFFFFFFFFFFFFFFFFFF AND PUSH20 0xFFFFFFFFFFFFFFFFFFFFFFFFFFFFFFFFFFFFFFFF AND PUSH4 0x313CE567 PUSH1 0x40 MLOAD DUP2 PUSH4 0xFFFFFFFF AND PUSH1 0xE0 SHL DUP2 MSTORE PUSH1 0x4 ADD PUSH1 0x20 PUSH1 0x40 MLOAD DUP1 DUP4 SUB DUP2 DUP7 GAS STATICCALL ISZERO DUP1 ISZERO PUSH2 0x179 JUMPI RETURNDATASIZE PUSH0 DUP1 RETURNDATACOPY RETURNDATASIZE PUSH0 REVERT JUMPDEST POP POP POP POP PUSH1 0x40 MLOAD RETURNDATASIZE PUSH1 0x1F NOT PUSH1 0x1F DUP3 ADD AND DUP3 ADD DUP1 PUSH1 0x40 MSTORE POP DUP2 ADD SWAP1 PUSH2 0x19D SWAP2 SWAP1 PUSH2 0x34C JUMP JUMPDEST SWAP1 POP DUP1 SWAP2 POP POP SWAP1 JUMP JUMPDEST PUSH0 DUP2 SWAP1 POP SWAP2 SWAP1 POP JUMP JUMPDEST PUSH2 0x1B8 DUP2 PUSH2 0x1A6 JUMP JUMPDEST DUP3 MSTORE POP POP JUMP JUMPDEST PUSH0 PUSH1 0x20 DUP3 ADD SWAP1 POP PUSH2 0x1D1 PUSH0 DUP4 ADD DUP5 PUSH2 0x1AF JUMP JUMPDEST SWAP3 SWAP2 POP POP JUMP JUMPDEST PUSH0 PUSH1 0xFF DUP3 AND SWAP1 POP SWAP2 SWAP1 POP JUMP JUMPDEST PUSH2 0x1EC DUP2 PUSH2 0x1D7 JUMP JUMPDEST DUP3 MSTORE POP POP JUMP JUMPDEST PUSH0 PUSH1 0x20 DUP3 ADD SWAP1 POP PUSH2 0x205 PUSH0 DUP4 ADD DUP5 PUSH2 0x1E3 JUMP JUMPDEST SWAP3 SWAP2 POP POP JUMP JUMPDEST PUSH0 DUP1 REVERT JUMPDEST PUSH0 PUSH10 0xFFFFFFFFFFFFFFFFFFFF DUP3 AND SWAP1 POP SWAP2 SWAP1 POP JUMP JUMPDEST PUSH2 0x22D DUP2 PUSH2 0x20F JUMP JUMPDEST DUP2 EQ PUSH2 0x237 JUMPI PUSH0 DUP1 REVERT JUMPDEST POP JUMP JUMPDEST PUSH0 DUP2 MLOAD SWAP1 POP PUSH2 0x248 DUP2 PUSH2 0x224 JUMP JUMPDEST SWAP3 SWAP2 POP POP JUMP JUMPDEST PUSH2 0x257 DUP2 PUSH2 0x1A6 JUMP JUMPDEST DUP2 EQ PUSH2 0x261 JUMPI PUSH0 DUP1 REVERT JUMPDEST POP JUMP JUMPDEST PUSH0 DUP2 MLOAD SWAP1 POP PUSH2 0x272 DUP2 PUSH2 0x24E JUMP JUMPDEST SWAP3 SWAP2 POP POP JUMP JUMPDEST PUSH0 DUP2 SWAP1 POP SWAP2 SWAP1 POP JUMP JUMPDEST PUSH2 0x28A DUP2 PUSH2 0x278 JUMP JUMPDEST DUP2 EQ PUSH2 0x294 JUMPI PUSH0 DUP1 REVERT JUMPDEST POP JUMP JUMPDEST PUSH0 DUP2 MLOAD SWAP1 POP PUSH2 0x2A5 DUP2 PUSH2 0x281 JUMP JUMPDEST SWAP3 SWAP2 POP POP JUMP JUMPDEST PUSH0 DUP1 PUSH0 DUP1 PUSH0 PUSH1 0xA0 DUP7 DUP9 SUB SLT ISZERO PUSH2 0x2C4 JUMPI PUSH2 0x2C3 PUSH2 0x20B JUMP JUMPDEST JUMPDEST PUSH0 PUSH2 0x2D1 DUP9 DUP3 DUP10 ADD PUSH2 0x23A JUMP JUMPDEST SWAP6 POP POP PUSH1 0x20 PUSH2 0x2E2 DUP9 DUP3 DUP10 ADD PUSH2 0x264 JUMP JUMPDEST SWAP5 POP POP PUSH1 0x40 PUSH2 0x2F3 DUP9 DUP3 DUP10 ADD PUSH2 0x297 JUMP JUMPDEST SWAP4 POP POP PUSH1 0x60 PUSH2 0x304 DUP9 DUP3 DUP10 ADD PUSH2 0x297 JUMP JUMPDEST SWAP3 POP POP PUSH1 0x80 PUSH2 0x315 DUP9 DUP3 DUP10 ADD PUSH2 0x23A JUMP JUMPDEST SWAP2 POP POP SWAP3 SWAP6 POP SWAP3 SWAP6 SWAP1 SWAP4 POP JUMP JUMPDEST PUSH2 0x32B DUP2 PUSH2 0x1D7 JUMP JUMPDEST DUP2 EQ PUSH2 0x335 JUMPI PUSH0 DUP1 REVERT JUMPDEST POP JUMP JUMPDEST PUSH0 DUP2 MLOAD SWAP1 POP PUSH2 0x346 DUP2 PUSH2 0x322 JUMP JUMPDEST SWAP3 SWAP2 POP POP JUMP JUMPDEST PUSH0 PUSH1 0x20 DUP3 DUP5 SUB SLT ISZERO PUSH2 0x361 JUMPI PUSH2 0x360 PUSH2 0x20B JUMP JUMPDEST JUMPDEST PUSH0 PUSH2 0x36E DUP5 DUP3 DUP6 ADD PUSH2 0x338 JUMP JUMPDEST SWAP2 POP POP SWAP3 SWAP2 POP POP JUMP INVALID LOG2 PUSH5 0x6970667358 0x22 SLT KECCAK256 MSTORE8 SELFBALANCE PUSH12 0xB18BC8F721C83A5FA1284978 DUP7 TIMESTAMP 0xCB 0xB7 0xB8 0xE1 MSIZE 0xC3 BASEFEE 0x4E SUB 0x29 SWAP7 SWAP10 DUP16 PREVRANDAO SWAP7 PUSH5 0x736F6C6343 STOP ADDMOD BYTE STOP CALLER "
				},
				"gasEstimates": {
					"creation": {
						"codeDepositCost": "188200",
						"executionCost": "24496",
						"totalCost": "212696"
					},
					"external": {
						"getChainlinkDataFeedLatestAnswer()": "infinite",
						"getDecimals()": "infinite"
					}
				},
				"methodIdentifiers": {
					"getChainlinkDataFeedLatestAnswer()": "bea4dfb5",
					"getDecimals()": "f0141d84"
				}
			},
			"storageLayout": {
				"storage": [
					{
						"astId": 52,
						"contract": "contracts/DataConsumerV3.sol:DataConsumerV3",
						"label": "dataFeed",
						"offset": 0,
						"slot": "0",
						"type": "t_contract(AggregatorV3Interface)45"
					}
				],
				"types": {
					"t_contract(AggregatorV3Interface)45": {
						"encoding": "inplace",
						"label": "contract AggregatorV3Interface",
						"numberOfBytes": "20"
					}
				}
			},
			"userdoc": {
				"kind": "user",
				"methods": {
					"constructor": {
						"notice": "Network: Sepolia Aggregator: BTC/USD Address: 0x1b44F3514812d835EB1BDB0acB33d3fA3351Ee43"
					},
					"getChainlinkDataFeedLatestAnswer()": {
						"notice": "Returns the latest answer."
					}
				},
				"version": 1
			}
		}
	}
}