{
	"data": {
		"bytecode": {
			"linkReferences": {},
			"object": "608060405234801561000f575f80fd5b506109e48061001d5f395ff3fe608060405234801561000f575f80fd5b5060043610610060575f3560e01c80632e64cec1146100645780632ebce631146100825780636057361d146100b35780636f760f41146100cf5780638bab8dd5146100eb578063ef5fb05b1461011b575b5f80fd5b61006c610139565b6040516100799190610311565b60405180910390f35b61009c60048036038101906100979190610365565b610141565b6040516100aa92919061041a565b60405180910390f35b6100cd60048036038101906100c89190610365565b6101f6565b005b6100e960048036038101906100e49190610574565b61020b565b005b610105600480360381019061010091906105ce565b61028f565b6040516101129190610311565b60405180910390f35b6101236102bc565b6040516101309190610615565b60405180910390f35b5f8054905090565b60018181548110610150575f80fd5b905f5260205f2090600202015f91509050805f01549080600101805461017590610662565b80601f01602080910402602001604051908101604052809291908181526020018280546101a190610662565b80156101ec5780601f106101c3576101008083540402835291602001916101ec565b820191905f5260205f20905b8154815290600101906020018083116101cf57829003601f168201915b5050505050905082565b60058161020391906106bf565b5f8190555050565b6001604051806040016040528083815260200184815250908060018154018082558091505060019003905f5260205f2090600202015f909190919091505f820151815f01556020820151816001019081610265919061088f565b505050806002836040516102799190610998565b9081526020016040518091039020819055505050565b6002818051602081018201805184825260208301602085012081835280955050505050505f915090505481565b60606040518060400160405280600381526020017f4869210000000000000000000000000000000000000000000000000000000000815250905090565b5f819050919050565b61030b816102f9565b82525050565b5f6020820190506103245f830184610302565b92915050565b5f604051905090565b5f80fd5b5f80fd5b610344816102f9565b811461034e575f80fd5b50565b5f8135905061035f8161033b565b92915050565b5f6020828403121561037a57610379610333565b5b5f61038784828501610351565b91505092915050565b5f81519050919050565b5f82825260208201905092915050565b5f5b838110156103c75780820151818401526020810190506103ac565b5f8484015250505050565b5f601f19601f8301169050919050565b5f6103ec82610390565b6103f6818561039a565b93506104068185602086016103aa565b61040f816103d2565b840191505092915050565b5f60408201905061042d5f830185610302565b818103602083015261043f81846103e2565b90509392505050565b5f80fd5b5f80fd5b7f4e487b71000000000000000000000000000000000000000000000000000000005f52604160045260245ffd5b610486826103d2565b810181811067ffffffffffffffff821117156104a5576104a4610450565b5b80604052505050565b5f6104b761032a565b90506104c3828261047d565b919050565b5f67ffffffffffffffff8211156104e2576104e1610450565b5b6104eb826103d2565b9050602081019050919050565b828183375f83830152505050565b5f610518610513846104c8565b6104ae565b9050828152602081018484840111156105345761053361044c565b5b61053f8482856104f8565b509392505050565b5f82601f83011261055b5761055a610448565b5b813561056b848260208601610506565b91505092915050565b5f806040838503121561058a57610589610333565b5b5f83013567ffffffffffffffff8111156105a7576105a6610337565b5b6105b385828601610547565b92505060206105c485828601610351565b9150509250929050565b5f602082840312156105e3576105e2610333565b5b5f82013567ffffffffffffffff811115610600576105ff610337565b5b61060c84828501610547565b91505092915050565b5f6020820190508181035f83015261062d81846103e2565b905092915050565b7f4e487b71000000000000000000000000000000000000000000000000000000005f52602260045260245ffd5b5f600282049050600182168061067957607f821691505b60208210810361068c5761068b610635565b5b50919050565b7f4e487b71000000000000000000000000000000000000000000000000000000005f52601160045260245ffd5b5f6106c9826102f9565b91506106d4836102f9565b92508282019050808211156106ec576106eb610692565b5b92915050565b5f819050815f5260205f209050919050565b5f6020601f8301049050919050565b5f82821b905092915050565b5f6008830261074e7fffffffffffffffffffffffffffffffffffffffffffffffffffffffffffffffff82610713565b6107588683610713565b95508019841693508086168417925050509392505050565b5f819050919050565b5f61079361078e610789846102f9565b610770565b6102f9565b9050919050565b5f819050919050565b6107ac83610779565b6107c06107b88261079a565b84845461071f565b825550505050565b5f90565b6107d46107c8565b6107df8184846107a3565b505050565b5b81811015610802576107f75f826107cc565b6001810190506107e5565b5050565b601f82111561084757610818816106f2565b61082184610704565b81016020851015610830578190505b61084461083c85610704565b8301826107e4565b50505b505050565b5f82821c905092915050565b5f6108675f198460080261084c565b1980831691505092915050565b5f61087f8383610858565b9150826002028217905092915050565b61089882610390565b67ffffffffffffffff8111156108b1576108b0610450565b5b6108bb8254610662565b6108c6828285610806565b5f60209050601f8311600181146108f7575f84156108e5578287015190505b6108ef8582610874565b865550610956565b601f198416610905866106f2565b5f5b8281101561092c57848901518255600182019150602085019450602081019050610907565b868310156109495784890151610945601f891682610858565b8355505b6001600288020188555050505b505050505050565b5f81905092915050565b5f61097282610390565b61097c818561095e565b935061098c8185602086016103aa565b80840191505092915050565b5f6109a38284610968565b91508190509291505056fea26469706673582212209495a1ee9c220d2611db72f2b1ab39ac333e0bbc04f023028fcd3474265ca7ac64736f6c63430008180033",
			"opcodes": "PUSH1 0x80 PUSH1 0x40 MSTORE CALLVALUE DUP1 ISZERO PUSH2 0xF JUMPI PUSH0 DUP1 REVERT JUMPDEST POP PUSH2 0x9E4 DUP1 PUSH2 0x1D PUSH0 CODECOPY PUSH0 RETURN INVALID PUSH1 0x80 PUSH1 0x40 MSTORE CALLVALUE DUP1 ISZERO PUSH2 0xF JUMPI PUSH0 DUP1 REVERT JUMPDEST POP PUSH1 0x4 CALLDATASIZE LT PUSH2 0x60 JUMPI PUSH0 CALLDATALOAD PUSH1 0xE0 SHR DUP1 PUSH4 0x2E64CEC1 EQ PUSH2 0x64 JUMPI DUP1 PUSH4 0x2EBCE631 EQ PUSH2 0x82 JUMPI DUP1 PUSH4 0x6057361D EQ PUSH2 0xB3 JUMPI DUP1 PUSH4 0x6F760F41 EQ PUSH2 0xCF JUMPI DUP1 PUSH4 0x8BAB8DD5 EQ PUSH2 0xEB JUMPI DUP1 PUSH4 0xEF5FB05B EQ PUSH2 0x11B JUMPI JUMPDEST PUSH0 DUP1 REVERT JUMPDEST PUSH2 0x6C PUSH2 0x139 JUMP JUMPDEST PUSH1 0x40 MLOAD PUSH2 0x79 SWAP2 SWAP1 PUSH2 0x311 JUMP JUMPDEST PUSH1 0x40 MLOAD DUP1 SWAP2 SUB SWAP1 RETURN JUMPDEST PUSH2 0x9C PUSH1 0x4 DUP1 CALLDATASIZE SUB DUP2 ADD SWAP1 PUSH2 0x97 SWAP2 SWAP1 PUSH2 0x365 JUMP JUMPDEST PUSH2 0x141 JUMP JUMPDEST PUSH1 0x40 MLOAD PUSH2 0xAA SWAP3 SWAP2 SWAP1 PUSH2 0x41A JUMP JUMPDEST PUSH1 0x40 MLOAD DUP1 SWAP2 SUB SWAP1 RETURN JUMPDEST PUSH2 0xCD PUSH1 0x4 DUP1 CALLDATASIZE SUB DUP2 ADD SWAP1 PUSH2 0xC8 SWAP2 SWAP1 PUSH2 0x365 JUMP JUMPDEST PUSH2 0x1F6 JUMP JUMPDEST STOP JUMPDEST PUSH2 0xE9 PUSH1 0x4 DUP1 CALLDATASIZE SUB DUP2 ADD SWAP1 PUSH2 0xE4 SWAP2 SWAP1 PUSH2 0x574 JUMP JUMPDEST PUSH2 0x20B JUMP JUMPDEST STOP JUMPDEST PUSH2 0x105 PUSH1 0x4 DUP1 CALLDATASIZE SUB DUP2 ADD SWAP1 PUSH2 0x100 SWAP2 SWAP1 PUSH2 0x5CE JUMP JUMPDEST PUSH2 0x28F JUMP JUMPDEST PUSH1 0x40 MLOAD PUSH2 0x112 SWAP2 SWAP1 PUSH2 0x311 JUMP JUMPDEST PUSH1 0x40 MLOAD DUP1 SWAP2 SUB SWAP1 RETURN JUMPDEST PUSH2 0x123 PUSH2 0x2BC JUMP JUMPDEST PUSH1 0x40 MLOAD PUSH2 0x130 SWAP2 SWAP1 PUSH2 0x615 JUMP JUMPDEST PUSH1 0x40 MLOAD DUP1 SWAP2 SUB SWAP1 RETURN JUMPDEST PUSH0 DUP1 SLOAD SWAP1 POP SWAP1 JUMP JUMPDEST PUSH1 0x1 DUP2 DUP2 SLOAD DUP2 LT PUSH2 0x150 JUMPI PUSH0 DUP1 REVERT JUMPDEST SWAP1 PUSH0 MSTORE PUSH1 0x20 PUSH0 KECCAK256 SWAP1 PUSH1 0x2 MUL ADD PUSH0 SWAP2 POP SWAP1 POP DUP1 PUSH0 ADD SLOAD SWAP1 DUP1 PUSH1 0x1 ADD DUP1 SLOAD PUSH2 0x175 SWAP1 PUSH2 0x662 JUMP JUMPDEST DUP1 PUSH1 0x1F ADD PUSH1 0x20 DUP1 SWAP2 DIV MUL PUSH1 0x20 ADD PUSH1 0x40 MLOAD SWAP1 DUP2 ADD PUSH1 0x40 MSTORE DUP1 SWAP3 SWAP2 SWAP1 DUP2 DUP2 MSTORE PUSH1 0x20 ADD DUP3 DUP1 SLOAD PUSH2 0x1A1 SWAP1 PUSH2 0x662 JUMP JUMPDEST DUP1 ISZERO PUSH2 0x1EC JUMPI DUP1 PUSH1 0x1F LT PUSH2 0x1C3 JUMPI PUSH2 0x100 DUP1 DUP4 SLOAD DIV MUL DUP4 MSTORE SWAP2 PUSH1 0x20 ADD SWAP2 PUSH2 0x1EC JUMP JUMPDEST DUP3 ADD SWAP2 SWAP1 PUSH0 MSTORE PUSH1 0x20 PUSH0 KECCAK256 SWAP1 JUMPDEST DUP2 SLOAD DUP2 MSTORE SWAP1 PUSH1 0x1 ADD SWAP1 PUSH1 0x20 ADD DUP1 DUP4 GT PUSH2 0x1CF JUMPI DUP3 SWAP1 SUB PUSH1 0x1F AND DUP3 ADD SWAP2 JUMPDEST POP POP POP POP POP SWAP1 POP DUP3 JUMP JUMPDEST PUSH1 0x5 DUP2 PUSH2 0x203 SWAP2 SWAP1 PUSH2 0x6BF JUMP JUMPDEST PUSH0 DUP2 SWAP1 SSTORE POP POP JUMP JUMPDEST PUSH1 0x1 PUSH1 0x40 MLOAD DUP1 PUSH1 0x40 ADD PUSH1 0x40 MSTORE DUP1 DUP4 DUP2 MSTORE PUSH1 0x20 ADD DUP5 DUP2 MSTORE POP SWAP1 DUP1 PUSH1 0x1 DUP2 SLOAD ADD DUP1 DUP3 SSTORE DUP1 SWAP2 POP POP PUSH1 0x1 SWAP1 SUB SWAP1 PUSH0 MSTORE PUSH1 0x20 PUSH0 KECCAK256 SWAP1 PUSH1 0x2 MUL ADD PUSH0 SWAP1 SWAP2 SWAP1 SWAP2 SWAP1 SWAP2 POP PUSH0 DUP3 ADD MLOAD DUP2 PUSH0 ADD SSTORE PUSH1 0x20 DUP3 ADD MLOAD DUP2 PUSH1 0x1 ADD SWAP1 DUP2 PUSH2 0x265 SWAP2 SWAP1 PUSH2 0x88F JUMP JUMPDEST POP POP POP DUP1 PUSH1 0x2 DUP4 PUSH1 0x40 MLOAD PUSH2 0x279 SWAP2 SWAP1 PUSH2 0x998 JUMP JUMPDEST SWAP1 DUP2 MSTORE PUSH1 0x20 ADD PUSH1 0x40 MLOAD DUP1 SWAP2 SUB SWAP1 KECCAK256 DUP2 SWAP1 SSTORE POP POP POP JUMP JUMPDEST PUSH1 0x2 DUP2 DUP1 MLOAD PUSH1 0x20 DUP2 ADD DUP3 ADD DUP1 MLOAD DUP5 DUP3 MSTORE PUSH1 0x20 DUP4 ADD PUSH1 0x20 DUP6 ADD KECCAK256 DUP2 DUP4 MSTORE DUP1 SWAP6 POP POP POP POP POP POP PUSH0 SWAP2 POP SWAP1 POP SLOAD DUP2 JUMP JUMPDEST PUSH1 0x60 PUSH1 0x40 MLOAD DUP1 PUSH1 0x40 ADD PUSH1 0x40 MSTORE DUP1 PUSH1 0x3 DUP2 MSTORE PUSH1 0x20 ADD PUSH32 0x4869210000000000000000000000000000000000000000000000000000000000 DUP2 MSTORE POP SWAP1 POP SWAP1 JUMP JUMPDEST PUSH0 DUP2 SWAP1 POP SWAP2 SWAP1 POP JUMP JUMPDEST PUSH2 0x30B DUP2 PUSH2 0x2F9 JUMP JUMPDEST DUP3 MSTORE POP POP JUMP JUMPDEST PUSH0 PUSH1 0x20 DUP3 ADD SWAP1 POP PUSH2 0x324 PUSH0 DUP4 ADD DUP5 PUSH2 0x302 JUMP JUMPDEST SWAP3 SWAP2 POP POP JUMP JUMPDEST PUSH0 PUSH1 0x40 MLOAD SWAP1 POP SWAP1 JUMP JUMPDEST PUSH0 DUP1 REVERT JUMPDEST PUSH0 DUP1 REVERT JUMPDEST PUSH2 0x344 DUP2 PUSH2 0x2F9 JUMP JUMPDEST DUP2 EQ PUSH2 0x34E JUMPI PUSH0 DUP1 REVERT JUMPDEST POP JUMP JUMPDEST PUSH0 DUP2 CALLDATALOAD SWAP1 POP PUSH2 0x35F DUP2 PUSH2 0x33B JUMP JUMPDEST SWAP3 SWAP2 POP POP JUMP JUMPDEST PUSH0 PUSH1 0x20 DUP3 DUP5 SUB SLT ISZERO PUSH2 0x37A JUMPI PUSH2 0x379 PUSH2 0x333 JUMP JUMPDEST JUMPDEST PUSH0 PUSH2 0x387 DUP5 DUP3 DUP6 ADD PUSH2 0x351 JUMP JUMPDEST SWAP2 POP POP SWAP3 SWAP2 POP POP JUMP JUMPDEST PUSH0 DUP2 MLOAD SWAP1 POP SWAP2 SWAP1 POP JUMP JUMPDEST PUSH0 DUP3 DUP3 MSTORE PUSH1 0x20 DUP3 ADD SWAP1 POP SWAP3 SWAP2 POP POP JUMP JUMPDEST PUSH0 JUMPDEST DUP4 DUP2 LT ISZERO PUSH2 0x3C7 JUMPI DUP1 DUP3 ADD MLOAD DUP2 DUP5 ADD MSTORE PUSH1 0x20 DUP2 ADD SWAP1 POP PUSH2 0x3AC JUMP JUMPDEST PUSH0 DUP5 DUP5 ADD MSTORE POP POP POP POP JUMP JUMPDEST PUSH0 PUSH1 0x1F NOT PUSH1 0x1F DUP4 ADD AND SWAP1 POP SWAP2 SWAP1 POP JUMP JUMPDEST PUSH0 PUSH2 0x3EC DUP3 PUSH2 0x390 JUMP JUMPDEST PUSH2 0x3F6 DUP2 DUP6 PUSH2 0x39A JUMP JUMPDEST SWAP4 POP PUSH2 0x406 DUP2 DUP6 PUSH1 0x20 DUP7 ADD PUSH2 0x3AA JUMP JUMPDEST PUSH2 0x40F DUP2 PUSH2 0x3D2 JUMP JUMPDEST DUP5 ADD SWAP2 POP POP SWAP3 SWAP2 POP POP JUMP JUMPDEST PUSH0 PUSH1 0x40 DUP3 ADD SWAP1 POP PUSH2 0x42D PUSH0 DUP4 ADD DUP6 PUSH2 0x302 JUMP JUMPDEST DUP2 DUP2 SUB PUSH1 0x20 DUP4 ADD MSTORE PUSH2 0x43F DUP2 DUP5 PUSH2 0x3E2 JUMP JUMPDEST SWAP1 POP SWAP4 SWAP3 POP POP POP JUMP JUMPDEST PUSH0 DUP1 REVERT JUMPDEST PUSH0 DUP1 REVERT JUMPDEST PUSH32 0x4E487B7100000000000000000000000000000000000000000000000000000000 PUSH0 MSTORE PUSH1 0x41 PUSH1 0x4 MSTORE PUSH1 0x24 PUSH0 REVERT JUMPDEST PUSH2 0x486 DUP3 PUSH2 0x3D2 JUMP JUMPDEST DUP2 ADD DUP2 DUP2 LT PUSH8 0xFFFFFFFFFFFFFFFF DUP3 GT OR ISZERO PUSH2 0x4A5 JUMPI PUSH2 0x4A4 PUSH2 0x450 JUMP JUMPDEST JUMPDEST DUP1 PUSH1 0x40 MSTORE POP POP POP JUMP JUMPDEST PUSH0 PUSH2 0x4B7 PUSH2 0x32A JUMP JUMPDEST SWAP1 POP PUSH2 0x4C3 DUP3 DUP3 PUSH2 0x47D JUMP JUMPDEST SWAP2 SWAP1 POP JUMP JUMPDEST PUSH0 PUSH8 0xFFFFFFFFFFFFFFFF DUP3 GT ISZERO PUSH2 0x4E2 JUMPI PUSH2 0x4E1 PUSH2 0x450 JUMP JUMPDEST JUMPDEST PUSH2 0x4EB DUP3 PUSH2 0x3D2 JUMP JUMPDEST SWAP1 POP PUSH1 0x20 DUP2 ADD SWAP1 POP SWAP2 SWAP1 POP JUMP JUMPDEST DUP3 DUP2 DUP4 CALLDATACOPY PUSH0 DUP4 DUP4 ADD MSTORE POP POP POP JUMP JUMPDEST PUSH0 PUSH2 0x518 PUSH2 0x513 DUP5 PUSH2 0x4C8 JUMP JUMPDEST PUSH2 0x4AE JUMP JUMPDEST SWAP1 POP DUP3 DUP2 MSTORE PUSH1 0x20 DUP2 ADD DUP5 DUP5 DUP5 ADD GT ISZERO PUSH2 0x534 JUMPI PUSH2 0x533 PUSH2 0x44C JUMP JUMPDEST JUMPDEST PUSH2 0x53F DUP5 DUP3 DUP6 PUSH2 0x4F8 JUMP JUMPDEST POP SWAP4 SWAP3 POP POP POP JUMP JUMPDEST PUSH0 DUP3 PUSH1 0x1F DUP4 ADD SLT PUSH2 0x55B JUMPI PUSH2 0x55A PUSH2 0x448 JUMP JUMPDEST JUMPDEST DUP2 CALLDATALOAD PUSH2 0x56B DUP5 DUP3 PUSH1 0x20 DUP7 ADD PUSH2 0x506 JUMP JUMPDEST SWAP2 POP POP SWAP3 SWAP2 POP POP JUMP JUMPDEST PUSH0 DUP1 PUSH1 0x40 DUP4 DUP6 SUB SLT ISZERO PUSH2 0x58A JUMPI PUSH2 0x589 PUSH2 0x333 JUMP JUMPDEST JUMPDEST PUSH0 DUP4 ADD CALLDATALOAD PUSH8 0xFFFFFFFFFFFFFFFF DUP2 GT ISZERO PUSH2 0x5A7 JUMPI PUSH2 0x5A6 PUSH2 0x337 JUMP JUMPDEST JUMPDEST PUSH2 0x5B3 DUP6 DUP3 DUP7 ADD PUSH2 0x547 JUMP JUMPDEST SWAP3 POP POP PUSH1 0x20 PUSH2 0x5C4 DUP6 DUP3 DUP7 ADD PUSH2 0x351 JUMP JUMPDEST SWAP2 POP POP SWAP3 POP SWAP3 SWAP1 POP JUMP JUMPDEST PUSH0 PUSH1 0x20 DUP3 DUP5 SUB SLT ISZERO PUSH2 0x5E3 JUMPI PUSH2 0x5E2 PUSH2 0x333 JUMP JUMPDEST JUMPDEST PUSH0 DUP3 ADD CALLDATALOAD PUSH8 0xFFFFFFFFFFFFFFFF DUP2 GT ISZERO PUSH2 0x600 JUMPI PUSH2 0x5FF PUSH2 0x337 JUMP JUMPDEST JUMPDEST PUSH2 0x60C DUP5 DUP3 DUP6 ADD PUSH2 0x547 JUMP JUMPDEST SWAP2 POP POP SWAP3 SWAP2 POP POP JUMP JUMPDEST PUSH0 PUSH1 0x20 DUP3 ADD SWAP1 POP DUP2 DUP2 SUB PUSH0 DUP4 ADD MSTORE PUSH2 0x62D DUP2 DUP5 PUSH2 0x3E2 JUMP JUMPDEST SWAP1 POP SWAP3 SWAP2 POP POP JUMP JUMPDEST PUSH32 0x4E487B7100000000000000000000000000000000000000000000000000000000 PUSH0 MSTORE PUSH1 0x22 PUSH1 0x4 MSTORE PUSH1 0x24 PUSH0 REVERT JUMPDEST PUSH0 PUSH1 0x2 DUP3 DIV SWAP1 POP PUSH1 0x1 DUP3 AND DUP1 PUSH2 0x679 JUMPI PUSH1 0x7F DUP3 AND SWAP2 POP JUMPDEST PUSH1 0x20 DUP3 LT DUP2 SUB PUSH2 0x68C JUMPI PUSH2 0x68B PUSH2 0x635 JUMP JUMPDEST JUMPDEST POP SWAP2 SWAP1 POP JUMP JUMPDEST PUSH32 0x4E487B7100000000000000000000000000000000000000000000000000000000 PUSH0 MSTORE PUSH1 0x11 PUSH1 0x4 MSTORE PUSH1 0x24 PUSH0 REVERT JUMPDEST PUSH0 PUSH2 0x6C9 DUP3 PUSH2 0x2F9 JUMP JUMPDEST SWAP2 POP PUSH2 0x6D4 DUP4 PUSH2 0x2F9 JUMP JUMPDEST SWAP3 POP DUP3 DUP3 ADD SWAP1 POP DUP1 DUP3 GT ISZERO PUSH2 0x6EC JUMPI PUSH2 0x6EB PUSH2 0x692 JUMP JUMPDEST JUMPDEST SWAP3 SWAP2 POP POP JUMP JUMPDEST PUSH0 DUP2 SWAP1 POP DUP2 PUSH0 MSTORE PUSH1 0x20 PUSH0 KECCAK256 SWAP1 POP SWAP2 SWAP1 POP JUMP JUMPDEST PUSH0 PUSH1 0x20 PUSH1 0x1F DUP4 ADD DIV SWAP1 POP SWAP2 SWAP1 POP JUMP JUMPDEST PUSH0 DUP3 DUP3 SHL SWAP1 POP SWAP3 SWAP2 POP POP JUMP JUMPDEST PUSH0 PUSH1 0x8 DUP4 MUL PUSH2 0x74E PUSH32 0xFFFFFFFFFFFFFFFFFFFFFFFFFFFFFFFFFFFFFFFFFFFFFFFFFFFFFFFFFFFFFFFF DUP3 PUSH2 0x713 JUMP JUMPDEST PUSH2 0x758 DUP7 DUP4 PUSH2 0x713 JUMP JUMPDEST SWAP6 POP DUP1 NOT DUP5 AND SWAP4 POP DUP1 DUP7 AND DUP5 OR SWAP3 POP POP POP SWAP4 SWAP3 POP POP POP JUMP JUMPDEST PUSH0 DUP2 SWAP1 POP SWAP2 SWAP1 POP JUMP JUMPDEST PUSH0 PUSH2 0x793 PUSH2 0x78E PUSH2 0x789 DUP5 PUSH2 0x2F9 JUMP JUMPDEST PUSH2 0x770 JUMP JUMPDEST PUSH2 0x2F9 JUMP JUMPDEST SWAP1 POP SWAP2 SWAP1 POP JUMP JUMPDEST PUSH0 DUP2 SWAP1 POP SWAP2 SWAP1 POP JUMP JUMPDEST PUSH2 0x7AC DUP4 PUSH2 0x779 JUMP JUMPDEST PUSH2 0x7C0 PUSH2 0x7B8 DUP3 PUSH2 0x79A JUMP JUMPDEST DUP5 DUP5 SLOAD PUSH2 0x71F JUMP JUMPDEST DUP3 SSTORE POP POP POP POP JUMP JUMPDEST PUSH0 SWAP1 JUMP JUMPDEST PUSH2 0x7D4 PUSH2 0x7C8 JUMP JUMPDEST PUSH2 0x7DF DUP2 DUP5 DUP5 PUSH2 0x7A3 JUMP JUMPDEST POP POP POP JUMP JUMPDEST JUMPDEST DUP2 DUP2 LT ISZERO PUSH2 0x802 JUMPI PUSH2 0x7F7 PUSH0 DUP3 PUSH2 0x7CC JUMP JUMPDEST PUSH1 0x1 DUP2 ADD SWAP1 POP PUSH2 0x7E5 JUMP JUMPDEST POP POP JUMP JUMPDEST PUSH1 0x1F DUP3 GT ISZERO PUSH2 0x847 JUMPI PUSH2 0x818 DUP2 PUSH2 0x6F2 JUMP JUMPDEST PUSH2 0x821 DUP5 PUSH2 0x704 JUMP JUMPDEST DUP2 ADD PUSH1 0x20 DUP6 LT ISZERO PUSH2 0x830 JUMPI DUP2 SWAP1 POP JUMPDEST PUSH2 0x844 PUSH2 0x83C DUP6 PUSH2 0x704 JUMP JUMPDEST DUP4 ADD DUP3 PUSH2 0x7E4 JUMP JUMPDEST POP POP JUMPDEST POP POP POP JUMP JUMPDEST PUSH0 DUP3 DUP3 SHR SWAP1 POP SWAP3 SWAP2 POP POP JUMP JUMPDEST PUSH0 PUSH2 0x867 PUSH0 NOT DUP5 PUSH1 0x8 MUL PUSH2 0x84C JUMP JUMPDEST NOT DUP1 DUP4 AND SWAP2 POP POP SWAP3 SWAP2 POP POP JUMP JUMPDEST PUSH0 PUSH2 0x87F DUP4 DUP4 PUSH2 0x858 JUMP JUMPDEST SWAP2 POP DUP3 PUSH1 0x2 MUL DUP3 OR SWAP1 POP SWAP3 SWAP2 POP POP JUMP JUMPDEST PUSH2 0x898 DUP3 PUSH2 0x390 JUMP JUMPDEST PUSH8 0xFFFFFFFFFFFFFFFF DUP2 GT ISZERO PUSH2 0x8B1 JUMPI PUSH2 0x8B0 PUSH2 0x450 JUMP JUMPDEST JUMPDEST PUSH2 0x8BB DUP3 SLOAD PUSH2 0x662 JUMP JUMPDEST PUSH2 0x8C6 DUP3 DUP3 DUP6 PUSH2 0x806 JUMP JUMPDEST PUSH0 PUSH1 0x20 SWAP1 POP PUSH1 0x1F DUP4 GT PUSH1 0x1 DUP2 EQ PUSH2 0x8F7 JUMPI PUSH0 DUP5 ISZERO PUSH2 0x8E5 JUMPI DUP3 DUP8 ADD MLOAD SWAP1 POP JUMPDEST PUSH2 0x8EF DUP6 DUP3 PUSH2 0x874 JUMP JUMPDEST DUP7 SSTORE POP PUSH2 0x956 JUMP JUMPDEST PUSH1 0x1F NOT DUP5 AND PUSH2 0x905 DUP7 PUSH2 0x6F2 JUMP JUMPDEST PUSH0 JUMPDEST DUP3 DUP2 LT ISZERO PUSH2 0x92C JUMPI DUP5 DUP10 ADD MLOAD DUP3 SSTORE PUSH1 0x1 DUP3 ADD SWAP2 POP PUSH1 0x20 DUP6 ADD SWAP5 POP PUSH1 0x20 DUP2 ADD SWAP1 POP PUSH2 0x907 JUMP JUMPDEST DUP7 DUP4 LT ISZERO PUSH2 0x949 JUMPI DUP5 DUP10 ADD MLOAD PUSH2 0x945 PUSH1 0x1F DUP10 AND DUP3 PUSH2 0x858 JUMP JUMPDEST DUP4 SSTORE POP JUMPDEST PUSH1 0x1 PUSH1 0x2 DUP9 MUL ADD DUP9 SSTORE POP POP POP JUMPDEST POP POP POP POP POP POP JUMP JUMPDEST PUSH0 DUP2 SWAP1 POP SWAP3 SWAP2 POP POP JUMP JUMPDEST PUSH0 PUSH2 0x972 DUP3 PUSH2 0x390 JUMP JUMPDEST PUSH2 0x97C DUP2 DUP6 PUSH2 0x95E JUMP JUMPDEST SWAP4 POP PUSH2 0x98C DUP2 DUP6 PUSH1 0x20 DUP7 ADD PUSH2 0x3AA JUMP JUMPDEST DUP1 DUP5 ADD SWAP2 POP POP SWAP3 SWAP2 POP POP JUMP JUMPDEST PUSH0 PUSH2 0x9A3 DUP3 DUP5 PUSH2 0x968 JUMP JUMPDEST SWAP2 POP DUP2 SWAP1 POP SWAP3 SWAP2 POP POP JUMP INVALID LOG2 PUSH5 0x6970667358 0x22 SLT KECCAK256 SWAP5 SWAP6 LOG1 0xEE SWAP13 0x22 0xD 0x26 GT 0xDB PUSH19 0xF2B1AB39AC333E0BBC04F023028FCD3474265C 0xA7 0xAC PUSH5 0x736F6C6343 STOP ADDMOD XOR STOP CALLER "
		},
		"gasEstimates": {
			"creation": {
				"codeDepositCost": "506400",
				"executionCost": "541",
				"totalCost": "506941"
			},
			"external": {
				"addPerson(string,uint256)": "infinite",
				"listOfPeople(uint256)": "infinite",
				"nameToFavoriteNumber(string)": "infinite",
				"retrieve()": "2410",
				"sayHello()": "infinite",
				"store(uint256)": "infinite"
			}
		},
		"methodIdentifiers": {
			"addPerson(string,uint256)": "6f760f41",
			"listOfPeople(uint256)": "2ebce631",
			"nameToFavoriteNumber(string)": "8bab8dd5",
			"retrieve()": "2e64cec1",
			"sayHello()": "ef5fb05b",
			"store(uint256)": "6057361d"
		}
	},
	"abi": [
		{
			"inputs": [
				{
					"internalType": "string",
					"name": "_name",
					"type": "string"
				},
				{
					"internalType": "uint256",
					"name": "_favoriteNumber",
					"type": "uint256"
				}
			],
			"name": "addPerson",
			"outputs": [],
			"stateMutability": "nonpayable",
			"type": "function"
		},
		{
			"inputs": [
				{
					"internalType": "uint256",
					"name": "",
					"type": "uint256"
				}
			],
			"name": "listOfPeople",
			"outputs": [
				{
					"internalType": "uint256",
					"name": "favoriteNumber",
					"type": "uint256"
				},
				{
					"internalType": "string",
					"name": "name",
					"type": "string"
				}
			],
			"stateMutability": "view",
			"type": "function"
		},
		{
			"inputs": [
				{
					"internalType": "string",
					"name": "",
					"type": "string"
				}
			],
			"name": "nameToFavoriteNumber",
			"outputs": [
				{
					"internalType": "uint256",
					"name": "",
					"type": "uint256"
				}
			],
			"stateMutability": "view",
			"type": "function"
		},
		{
			"inputs": [],
			"name": "retrieve",
			"outputs": [
				{
					"internalType": "uint256",
					"name": "",
					"type": "uint256"
				}
			],
			"stateMutability": "view",
			"type": "function"
		},
		{
			"inputs": [],
			"name": "sayHello",
			"outputs": [
				{
					"internalType": "string",
					"name": "",
					"type": "string"
				}
			],
			"stateMutability": "pure",
			"type": "function"
		},
		{
			"inputs": [
				{
					"internalType": "uint256",
					"name": "_newNumber",
					"type": "uint256"
				}
			],
			"name": "store",
			"outputs": [],
			"stateMutability": "nonpayable",
			"type": "function"
		}
	]
}